:100000000C94B3000C94F7000C94F7000C94F700D8
:100010000C94F7000C94F7000C94F7000C94F70084
:100020000C94F7000C94F7000C94F7000C94F70074
:100030000C94F7000C94E60A0C94BC0A0C94F7009C
:100040000C94F7000C94F7000C94F7000C94F70054
:100050000C94F7000C94F7000C94F7000C94F70044
:100060000C94F7000C94F7000C94F7000C94F70034
:1000700049234923492320233623E92259230823EE
:10008000B223B223B223CF23C623BA232A240823C0
:100090009A253025502555254B25A6242B25352579
:1000A000B727B227AD27A827A3277427742774275B
:1000B0007427742774279E27992712280D2808284B
:1000C0000328FE27CB27CB27CB27CB27CB27CB2734
:1000D000F927E62742375B3752370E37F736523764
:1000E0004B37F73652375A550120010100380800C6
:1000F0000000000000000000000000000000000000
:100100000000000000008100450027FF2AD22B7D5F
:10011000210C22FB850084008907881B8B008A47FD
:1001200081096F06444247004501B083B300B10125
:1001300024B9255754545455545454565652535276
:1001400052FA52565653525252FB57565652525228
:10015000535258565454545454545556032B1A2041
:1001600028273F3F3F3F11241FBECFEFD0E1DEBF26
:10017000CDBF23E0A0E0B1E001C01D92A030B207E6
:10018000E1F714BE0FB6F894A895809160008861DD
:1001900080936000109260000FBE0E94C71781110B
:1001A00002C00E94A517F8940E94B91810920F017E
:1001B00081E080930E0180EE8093130184E18093AF
:1001C00012010E94AE1A86E091E0FC012591349163
:1001D000F901FF273083029621E084339207A9F7C3
:1001E00078940E94AD1A0E94B91A0C9475390C9437
:1001F0000000E1E5F0E1B0910C01B03059F01B2EA8
:10020000B191BF70A191019009F00C921A94C1F7BD
:1002100010920C010895112410920C0108959C2D48
:10022000DF92EF92FF920F931F93CF93DF931124EE
:10023000022FD0900B01C0900C01742F372F3695F0
:10024000369536953A95E0EAFFE0E30FF11D008020
:10025000600D262F2695269526952A95777067702E
:10026000293168F5383158F5402F407C21F046FDA2
:10027000405D47FF4056B3D016F504FF12C0E70EAD
:10028000F11CF70105FF02C0108101C0149162FD4D
:10029000129561FB16F4110F110F60FD110F17FD80
:1002A0000EC0770F770F30EF8F70669510F0329594
:1002B0008295760FC70F08800322082A0882DF91F3
:1002C000CF911F910F91FF90EF90DF90C92E08956D
:1002D0000F93002701C00F93BF924F925F926F92CE
:1002E0007F928F929F92CF92DF92EF92FF921F9315
:1002F000CF93DF93B02E022F1124D0900B01C0902A
:100300000C01E9E1F8E14F01742F572E56945694F1
:10031000569477706F937F9378505914C8F4783F50
:10032000B9F0E0EAFFE0E50DF11D0080600D462E1A
:1003300046944694469467703B016850683F19F0B4
:10034000481408F431D04A94B301481408F42CD06E
:100350007F916F915A945914B8F4E0EAFFE0E50DEB
:10036000F11D0080600D462E4694469446946770B9
:100370003B016850683F19F0481408F415D04A94BE
:10038000B301481408F410D0DF91CF911F91FF9072
:10039000EF90DF90CF909F908F907F906F905F90C5
:1003A0004F90BF900F9108954FE067FF461B67FD88
:1003B000460F77FF471B77FD470F04FD4150502F35
:1003C000529556955670450F465047FD4427429525
:1003D000920105D00EF477D103FB04F90895C1E52D
:1003E000D0E104FB03F9C11019C0E0910101F091C3
:1003F00002011091000111FF02C0108101C014918F
:10040000FF27E12F17FF04C0EC54F04F108103C009
:10041000EC5FF7481491185010930D0159E1359F86
:10042000D0011124A854B44FA20FB11D2C91203C2F
:1004300088F12F732C1568F5CEF4E0ECFFE0E20FA5
:10044000F11D10811E3F38F458E0103E38F0E0E016
:10045000F9EF006206C071F50F7E08C0E0E0F2E936
:100460000F7D159FE00DF11D11247F01022E000C60
:10047000020EC00DD11D3881340F08F4306F38835F
:1004800050E2259FE001112400900D01D00D6894E9
:100490000895206CE0910101F0910201109100019A
:1004A000E30FF11D11FF08C0108107C0EF54F04F9A
:1004B000308110C0E89408951491FF27E22FE2954F
:1004C000E695E695E370E10FF11D17FDEFCFEF5FC5
:1004D000F748349150E22502310D203C50F003944E
:1004E000E02CF32EE22FEF73FF27E054F04F108142
:1004F0000DC0E02CF32E58E0E59E112DF59EF00185
:100500001124E10FF11DE051F147149111242EF453
:100510001E3F18F079F60F7EE894CD1054C0FD2DE3
:100520003FEFEF2FF150F87FCF0FD11DCF0FD11D2F
:10053000CF0FD11DE77061F0E23068F139F1E4309E
:1005400000F1D1F0E63098F069F007C06897E85FF5
:100550000D88031610F4302DE7E00A88031610F416
:10056000302DE6E00F84031610F4302DE5E00C8406
:10057000031610F4302DE4E00984031610F4302D36
:10058000E3E00E80031610F4302DE2E00B8003163A
:1005900010F4302DE1E00880031610F4302DE0E077
:1005A000F850A0F6307F431708F484CF3E2FEE0FAB
:1005B000E30FCE0FD11DF881E9810A80FF70008220
:1005C000FF27F88307C03C2D0C2C000C0C0CC00D31
:1005D000D11DC3945B2F5F70542B2A83A98358834A
:1005E000C0920C0150E2359FE001112400900D01F2
:1005F000D00DF701E0FF0DC0EE7F58E001900992A9
:100600000190099201900992019009925A95B1F7CF
:1006100040C00590099205900992059009920590B5
:10062000099205900992059009920590099205900A
:1006300009920590099205900992059009920590FA
:1006400009920590099205900992059009920590EA
:1006500009920590099205900992059009920590DA
:1006600009920590099205900992059009920590CA
:1006700009920590099205900992059009920590BA
:1006800009920590099205900992059009920590AA
:100690000992E0ECFFE0E30FF11D1083A097306CAE
:1006A0003C937EF458E0103E20F0E0E0F9EF006269
:1006B00003C0E0E0F2E90F7D159FE00DF11D11246C
:1006C0007F0168940895CF928F939F9377FB16F0E4
:1006D000E70EF11C26F0072E000C000CC00D02FFE7
:1006E00007C0ACEFBFEF845E9F4F5EF4572F05C08D
:1006F000A4E0B0E036F4572F5195550F550F850FF4
:100700009B1F48E0C42E16F0C71A0EF4C70E695F8F
:1007100046EB53E000FD615F460F511D0A0101FBEE
:1007200004FD11C0112705C0CA94D9F08A0F9B1F80
:10073000CC5F44275527BA01F0010994CA9489F087
:100740008A0F9B1FCC5F44275527BA01F70105FD8F
:1007500004C015917F01F001099411917F01F0010E
:1007600009949F918F91CF9011240895A8C01CC027
:1007700022C02AC032C03CC046C051C05CC067C065
:1007800070C079C080C087C016C38BC0A8C0BFC06E
:10079000DBC009C133C164C1ABC1FAC140C271C27F
:1007A0009BC2C9C2E5C2FAC2FC01339616F045915C
:1007B0009AC0419198C0FC0132961EF04591559126
:1007C000ACC041915191A9C0FC0132961EF04591F7
:1007D0005591C0C041915191BDC0FC01319626F0A8
:1007E000459155916591E7C0419151916191E3C067
:1007F000FC01319626F045915591659107C14191D3
:100800005191619103C1FC012EF045915591659183
:10081000759130C141915191619171912BC1FC0150
:100820002EF045915591659175916CC14191519111
:100830006191719167C1FC012EF0459155916591CF
:100840007591B0C14191519161917191ABC1FC0120
:1008500026F0559165917591EBC15191619171911E
:10086000E7C1FC0126F055916591759113C2519134
:10087000619171910FC2FC011EF06591759133C2B7
:100880006191719130C2FC011EF0659175915AC25F
:100890006191719157C2FC0116F075916EC2719110
:1008A0006CC217FDC2C2FC0116F4E08101C0E491E4
:1008B000E295EF70F9E7EB0D4491429592C217FD76
:1008C000B4C2FC01339616F4E08101C0E491EF70EC
:1008D000F9E7EB0D4491429584C2419103C0FC01BC
:1008E000EEF345914295F9E7E42FE295EF70EB0DB9
:1008F00034913295E42FEF70EB0D4491432B17FDAB
:100900004F7016FD407F6DC25191419104C0FC01B2
:10091000E6F35591459142955295F9E7E42FEF7032
:10092000EB0D44914295E52FE295EF70EB0D34917C
:10093000432BE52FEF70EB0D54915295107E41F54E
:1009400050C25191419104C0FC01E6F3559145918B
:1009500042955295F9E7E42FE295EF70EB0D349153
:100960003295E42FEF70EB0D4491432BE52FE29588
:10097000EF70EB0D34913295E52FEF70EB0D549144
:10098000532B107F19F42DC213FD6F7014FD507F8F
:1009900017FD4F7016FD407F15FD5F7022C26191FB
:1009A0005191419105C0FC01DEF36591559145914E
:1009B000429552956295F9E7E42FEF70EB0D449163
:1009C0004295E52FE295EF70EB0D3491432BE52F27
:1009D000EF70EB0D54915295E62FE295EF70EB0D11
:1009E0003491532BE62FEF70EB0D64916295187FD5
:1009F00059F6F7C161915191419105C0FC01DEF3B7
:100A0000659155914591429552956295F9E7E42F8C
:100A1000E295EF70EB0D34913295E42FEF70EB0D12
:100A20004491432BE52FE295EF70EB0D3491329515
:100A3000E52FEF70EB0D5491532BE62FE295EF70FD
:100A4000EB0D34913295E62FEF70EB0D6491632B33
:100A50001C7FE1F5C6C1719161915191419106C030
:100A6000FC01D6F37591659155914591429552954A
:100A700062957295F9E7E42FEF70EB0D4491429582
:100A8000E52FE295EF70EB0D3491432BE52FEF70DE
:100A9000EB0D54915295E62FE295EF70EB0D3491EA
:100AA000532BE62FEF70EB0D64916295E72FE295E3
:100AB000EF70EB0D3491632BE72FEF70EB0D74911A
:100AC00072951E7F09F48DC111FD7F7017FD4F7067
:100AD00016FD407F15FD5F7014FD507F13FD6F7094
:100AE00012FD607F7EC1719161915191419106C06B
:100AF000FC01D6F3759165915591459142955295BA
:100B000062957295F9E7E42FE295EF70EB0D349161
:100B10003295E42FEF70EB0D4491432BE52FE295D6
:100B2000EF70EB0D34913295E52FEF70EB0D549192
:100B3000532BE62FE295EF70EB0D34913295E62FB3
:100B4000EF70EB0D6491632BE72FE295EF70EB0DE7
:100B500034913295E72FEF70EB0D7491732B1F7F5B
:100B600009F43FC117FD4F7016FD407F15FD5F7002
:100B700014FD507F13FD6F7012FD607F11FD7F70BB
:100B800010FD707F2EC1719161915191419106C00C
:100B9000FC01D6F375916591559145914295529519
:100BA00062957295F9E7E72FE295EF70EB0D74917E
:100BB000E62FEF70EB0D34913295732BE62FE29513
:100BC000EF70EB0D6491E52FEF70EB0D34913295E2
:100BD000632BE52FE295EF70EB0D5491E42FEF704E
:100BE000EB0D34913295532BE42FE295EF70EB0D22
:100BF00044911F7709F4F5C016FD407F15FD5F7025
:100C000014FD507F13FD6F7012FD607F11FD7F702A
:100C100010FD707FE6C071916191519106C0FC0199
:100C20003196D6F37591659155915295629572956D
:100C3000F9E7E52FE295EF70EB0D34913295E52F52
:100C4000EF70EB0D5491532BE62FE295EF70EB0D07
:100C500034913295E62FEF70EB0D6491632BE72F03
:100C6000E295EF70EB0D34913295E72FEF70EB0DBD
:100C70007491732B1F7311F6BDC0719161915191E5
:100C800006C0FC013196D6F3759165915591529548
:100C900062957295F9E7E72FE295EF70EB0D74918D
:100CA000E62FEF70EB0D34913295732BE62FE29522
:100CB000EF70EB0D6491E52FEF70EB0D34913295F1
:100CC000632BE52FE295EF70EB0D54911F7129F521
:100CD00091C071916191A9CFFC013296DEF37591BB
:100CE000659162957295F9E7E62FE295EF70EB0D4D
:100CF00034913295E62FEF70EB0D6491632BE72F63
:100D0000E295EF70EB0D34913295E72FEF70EB0D1C
:100D10007491732B1F7019F476C014FD507F13FD6E
:100D20006F7012FD607F11FD7F7010FD707F62C0DB
:100D30007191619105C0FC013296DEF37591659168
:100D400062957295F9E7E72FE295EF70EB0D7491DC
:100D5000E62FEF70EB0D34913295732BE62FE29571
:100D6000EF70EB0D64911770E1F64DC0719104C006
:100D7000FC013396E6F375917295F9E7E72FE2955A
:100D8000EF70EB0D34913295E72FEF70EB0D74910E
:100D9000732B11FD7F7010FD707F3EC010FD45C0AC
:100DA000FC01339616F4E08101C0E491EF70F9E79D
:100DB000EB0D749131C010FD38C0FC0116F4E081D8
:100DC00001C0E491E295EF70F9E7EB0D749124C056
:100DD000513090F46130C8F4713000F504FFA4CCB8
:100DE000ADCC4130A8F325F1403118F42881207FA3
:100DF000422B4883513070F315F1503118F429819A
:100E0000207F522B5983613038F305F1603118F49B
:100E10002A81207F622B6A83713000F3F5F07031F4
:100E200018F42B81207F722B7B8304FF7DCC86CC32
:100E300028812F70422B4883513060F2F5F62981CA
:100E40002F70522B5983613038F205F72A812F70A9
:100E5000622B6A83713010F215F72B812F70722B81
:100E60007B8304FF61CC6ACC99E1969FF001112449
:100E7000E80FF11DE854F44F40830895AB2DC49161
:100E800088B812C0FA2DC49158B8E70F0490EF91BA
:100E900068B8E70F14903730000078B879F7CF9131
:100EA000B880C29588B8A881982F1C012C013C01FC
:100EB00098B807FC2B2C06FC3B2C05FC4B2C28B8C7
:100EC00004FC5B2C03FC6B2C02FC7B2C38B8C4911B
:100ED0004C0117FC8A2E48B816FC9A2EEF91E70FAA
:100EE0001C0158B804902C0115FC2A2E68B814FC7B
:100EF0003A2E13FC4A2E12FC5A2E78B8EF91E70FC7
:100F0000149088B8C491C49198B8373099F5CF91AE
:100F1000B88028B8C295A8813C0107FC6B2C38B872
:100F20004C011C0106FC7B2C05FC8B2C48B8C491A1
:100F3000C49158B800C028512C0104FC9B2C68B8FF
:100F400003FC2B2C02FC3B2C17FC4A2E78B83C01EE
:100F5000FC0116FC5A2E15FC6A2E88B814FC7A2E59
:100F600013FCEA2F12FCFA2F98B84F0190E208F414
:100F700080C05AC0C49128B8AB2DCECFF50FED0D6F
:100F800048B8C191A191288058B84C90C295A295BB
:100F9000388068B85C90C191A19178B804905FC026
:100FA000EF700E2E48B8E295E029CE2FAE2F2880A4
:100FB00058B838804880588068B800C000C0EDCF6D
:100FC00038B8F001F3FDDACFFC0D3AC049F3363002
:100FD00018F0000048B856CF48B80000E70FFA2DC7
:100FE000982F1C010C0158B8343011F0A08101C0B9
:100FF000A49168B82C012850A7FD2B2CA6FD3B2CF2
:1010000078B8A5FD4B2CA4FD5B2C3C0190E288B880
:10101000A3FD6B2CA2FD7B2CA1FD0B2C98B8A0FD91
:101020001B2C400130F100C028B8EF91E90240F2DA
:10103000313038B858F6F0010A2CF3FD0B2CF00DC6
:1010400048B8ED0DC591288058B8C2953880A59153
:1010500068B84C90A295C59178B85C90A59128503D
:1010600088B868808C90C295A29598B878809C903A
:10107000D8F68FEF28B89EE08DBF9EBF239549F12B
:10108000000038B80490239521F1000048B804907E
:101090002395F9F0000058B804902395D1F0000092
:1010A00068B804902395A9F0000078B804902395BF
:1010B00081F0000088B80490239559F0000098B89A
:1010C0000490222706C088E242D2685028F0FBCF65
:1010D000E5C128B96850B8F7609111016017C1F3F4
:1010E000CC2790900001E0910701F09108019191C7
:1010F0009017A1F411914191E0930701F093080139
:10110000E0910101F0910201812F869586958695E7
:10111000E80FFC1F91FE0FC0E0810EC032974081A6
:101120000000EECFE055F04F00C06191A190B1906A
:10113000C19051910BC0E491FF27E7FDF3CFE05040
:10114000F8486591A590B590C5905591E09103013F
:10115000F0910401880FE80FFC1F92FE04C0A191DA
:10116000B191000002C0A591B59194FE14C0E12F89
:10117000FEE08080899289928992899289928992EF
:101180008992899289928992899289928992899287
:101190008992899202C089E1DAD111972D01362F07
:1011A000762F37706871707E289820EC4770E2E0E7
:1011B0000E94950B0000603031F432FD0FC031FF0A
:1011C0000AC000C0A9C0C62F86E2C1D12051C850B4
:1011D000A1F30000F9CFB12FB77005C0B12FB770E0
:1011E000AB0ECB2DB880C295BB0FBB0FDB2E90E2B0
:1011F000BD2F222403951395403029F188814DBEDF
:101200005EBEEF91E90250F1313068F5F0010A2C31
:10121000F3FD0B2CF00DED0DC591A5914C90C295F1
:10122000A29538805C90C591A59168808C90C295FC
:10123000A29578809C90241B473019F53324210116
:1012400031018824F2CE89E182D188814DBE5EBE13
:1012500033242101310141012850E7CEF001F3FD93
:1012600032C0FC0DD8CF000009F03AC0EF700E2E4E
:10127000E295E029CE2FAE2F388048805880049028
:101280002DC0463029F43324210131010490DACFF6
:10129000453029F433242101662400C0F7CF4430BF
:1012A00021F4332421010490F8CF433021F4332476
:1012B000442400C0F8CF423019F433240490F9CF0D
:1012C000049000C0FBCFF50FED0DC191A1914C90A2
:1012D000C295A29538805C90C191A1910490A5CF50
:1012E000E70FFA2D382E482E582E320142013430A5
:1012F00011F0008001C0049006FC3B2C05FC4B2C37
:1013000004FC5B2C03FC6B2C02FC7B2C01FC8B2C67
:1013100000FC9B2C00C08FCF8EE419D1812F8770E9
:1013200009F0873011F0000002C076FF0FC0CA2D0F
:10133000288016D128B88CE215D18A95E9F700C02B
:101340006AC0CA2D2880519613D10FC08030C9F7CA
:101350001196CA2DC07FC2952224FD01EC0FF21D0B
:1013600075FF02C0208001C0249028B8FD0175FFE0
:1013700012C0019011902190319041905190619054
:10138000719081909190A190B190C190D190419134
:101390005191E6D010C0059015902590359045905C
:1013A00055906590759085909590A590B590C59055
:1013B000D59045915591CC27802DB8D0C395812DDE
:1013C000B5D0C395822DB2D0C395832DAFD0C39530
:1013D000842DACD0C395852DA9D0C395862DA6D0DC
:1013E000C395872DA3D0C395882DA0D0C395892DF3
:1013F0009DD0C3958A2D9AD0C3958B2D97D0C39538
:101400008C2D94D0C3958D2D91D0C395842F8ED0E3
:10141000C395852F8BD082E1A5D08A95E9F700C0CE
:1014200000C003951395205929F081E690D02051F2
:10143000E1F700C04ECE3091000137FF59C08DB7A3
:101440009EB78093090190930A018FEF9EE08DBFB4
:101450009EBF8FE57CD0DFE0E0EBFBE000C0CC2757
:1014600033FF02C0819101C0859160D0C3958BE1AB
:101470006ED033FF02C0819101C0859157D0C395D2
:1014800079F70027E0E0F0E100C011913196E09398
:101490000701F093080180E15AD01ECE84E157D0B5
:1014A00080E455D000900E01001A00920E0132D156
:1014B000E0910F0142E0E427E160E0930F01E6E0F4
:1014C000E09336008091050190910601182E192AAB
:1014D00039F48091090190910A018DBF9EBF089552
:1014E0006FE97FE06DBF7EBF11248F939F931895A6
:1014F00083E538D08A95E9F734D00027709111013F
:10150000701741F0039506D182E62CD08A95E9F751
:101510002CD0F4CFFFD0E0910F0142E0E427E1604E
:10152000E0930F01E6E0E0933600089589938993F4
:1015300089938993899389938993899389938993CB
:10154000899389938993899389938883089586954C
:1015500000F0869500F000F08A950000E9F7089504
:10156000000000000000000000000000000000007B
:101570000895992788270895EABDE0918400E2FD47
:1015800004C0E1FD02C0000000C0E0FF00C0F09B0D
:10159000E491289AEAB5F4991895F09B09C0F39B59
:1015A00011C0E0E7EEBBE3E0E0938B00E7E006C0AC
:1015B000E1E7EEBBE0E0E0938B00E7E4E0938A0034
:1015C000EAB51895E2EFEEBBEAB51895EABDE091F1
:1015D0008400E2FD04C0E1FD02C0000000C0E0FFA5
:1015E00000C0F29987C0EFB7EBBDFF9328980F9228
:1015F0001F929BD0B49AF19B6CC0E0910E01EA95CA
:10160000E0930E01F9F0F0911001EF1B41F080F52D
:101610001F900F90FF91EBB5EFBFEAB51895F8E07A
:10162000FA95F1F70000E2E0FF2701900F92EE310A
:10163000E1F70E941B0AEEE1FF27EA950F90008276
:10164000E1F711C0EDEFE0930E01E9EFEEBBE091A1
:101650001201E195E450E0931001E0911301E09351
:1016600011011F900F90FF91EBB5EFBFEAB51895F0
:10167000E131A0F0129A09F412981F900F90FF9197
:10168000EBB5EFBFEAB5F79B1895E7E0E09389006B
:10169000EBE1E0938800F798EAB51895139800906D
:1016A00016011090170100998894179407940092DE
:1016B000160110921701E13021F4009214011092EA
:1016C00015011F900F90FF91EBB5EFBFEAB5139A8C
:1016D0001895F29A1F900F90FF91EBB5EFBFEAB506
:1016E000F79B1895E3E0E0938900EDE8E09388002C
:1016F000EAB51895F69906C0EAB52898F59907C095
:10170000F49818952898EAB5F698F2981895F598EF
:10171000F29818952898E2E000C00E94950BE0919D
:101720000E01EA95E0930E0108950F931F932F93F6
:1017300020911801239509F42A95209318011091FE
:101740001C01E0911D01F0911E0100911A01100F82
:1017500000911B01E01F0491E0931D0110931C01F7
:1017600000901901029E112D219500901F01029EEB
:10177000110D0103000810912301E0912401F09163
:10178000250100912101100F00912201E01FF09925
:10179000289A0491E093240110932301F001009012
:1017A0002601029E112D219500902001029E110D0F
:1017B000010300081F0E0E1E10912A01E0912B015B
:1017C000F0912C0100912801100F00912901E01FD8
:1017D0000491E0932B0110932A01F001009027015E
:1017E000029E112D219500902D01029E110D0103E5
:1017F00000081F0E0E1E10913101E0913201F09190
:101800003301F199289A00912F01100F00913001B6
:10181000E01F0491E093320110933101F001009038
:101820003401029E112D219500902E01029E110D72
:10183000010300081F0E0E1E10913801E0913901BE
:10184000F0913A0100913601100F00913701E01F2D
:101850000491E093390110933801F00100903501B3
:10186000029E112D219500903B01029E110D010356
:101870000008F10DE01D2F911F910F91F058EF4FCF
:101880001AF4F0E0000003C0E03009F0FFEFF0933D
:10189000B30008959FEF9093400190934101089504
:1018A000AA27B3E01D92A030E9F7F4CF969587956B
:1018B0009695879576956795769567950090FF1034
:1018C0000694609D1124F00191E0869508F0990F2F
:1018D000869510F0990F990F869508F09295E80F6C
:1018E000F3E00080092A0082D5CF969587959695DA
:1018F000879576956795769567950090FF10069485
:10190000609D1124F00191E0869508F0990F86956D
:1019100010F0990F990F869508F092959095E80F21
:10192000F3E0008009220082B5CF8093B40B90933E
:10193000B50B6093FF104093B30BB2CF282F2370E9
:1019400060FD246061FD286009D08295F82FFF704A
:10195000807FE22FE80FFC56849108959695879535
:1019600096958795769567957695679599273091A1
:101970004001381739F470914101761719F48091BC
:10198000420108958093400160934101382F762FE2
:10199000869586957695E091B40BF091B50B5091B4
:1019A000FF10851770F50090B30B701560F5759FEB
:1019B000E00DF11DE80FF91F0490432F437060FD07
:1019C0004460E8E00E9EF001E40FF05684915695D5
:1019D000569F1124F00141E0369508F0440F3695EA
:1019E00010F0440F440F369508F04295E30FF3E0F2
:1019F0000080042219F0E82FF9EA849180934201D3
:101A0000089583E0FBCF80E0F9CFDC018091B30B38
:101A10004D93893348F4893118F45770770F07C014
:101A20005F707295707F05C05F737295707F770FDE
:101A3000770F572B5D936D930895DC018091B30B65
:101A4000FA014D9141934D91542F893378F48931A6
:101A500030F44770473009F44FEF56950DC04F7082
:101A60004F3009F44FEF52955F7008C04F734F33FA
:101A700009F44FEF52955F70569556954193FB01CF
:101A80004D914193519308956091B30B4D915D91A8
:101A9000752F693378F4693130F45770573009F491
:101AA0005FEF76950DC05F705F3009F45FEF729560
:101AB0007F70E4CF5F735F3309F45FEF72957F70DF
:101AC000769576956D910895A82FB62F9695879562
:101AD000969587959695879576956795769567956A
:101AE000769567950E949E0CE82FF8EA8491B2FDE6
:101AF00002C0869586958370813019F490E081E06C
:101B0000089518F490E080E00895B370A695A3704E
:101B100080FD02C0A195AD5FAB1780F7F3CFF2EC6B
:101B2000E82F8491FF5F94910895DB011496F9E703
:101B3000E82FE7FBE6F9E0686491762F6F70660F97
:101B40006D93707F769576957D9308950F93022F10
:101B5000242F462FDC018D919D916D917D9102D0B6
:101B60000F910895DC01FB015091A5023091A6026E
:101B7000851B930B5091A7023091A802505830401A
:101B8000587F651B730B382F305E392F3F4F303035
:101B900009F00895362F305E372F3F4F303009F06F
:101BA00008950F93003209F59F938F937F936F935E
:101BB0004F932F93CD01BF01969587959695879565
:101BC00096958795769567957695679576956795B9
:101BD0000E949E0CE82FF8EA849187FD00E32F9184
:101BE0004F916F917F918F919F91342FAB01BC01E9
:101BF000832F0E948F0D0E94CC1A0F910895EDEA59
:101C0000F2E0A9EFB0E18191919180549F4F8D93C3
:101C10009D938191919180549F4F8D939D93ABE5BE
:101C2000B1E099278CE09C9319968A95E1F7A7EC8F
:101C3000B1E09FEF80E29D938A95E9F708952F9296
:101C40003F924F925F922090F9103090FA1040909E
:101C5000FB105090FC10FA0160682CE030E047E087
:101C600050E01124782F01C07395959197FF65C0BE
:101C7000892F8077480F511D405450409F70929596
:101C8000290F311D20583040D101A21BB30BA058A1
:101C9000B14050F7C201841B950B8058914020F74A
:101CA000A05C1894BE4F21F4805C18949E4FE1F222
:101CB00090E8A72FA69508F49695A69510F496950A
:101CC0009695A69508F49295BB27A953BE4F8C9183
:101CD000982351F28DE0A4E5B1E017968A9539F08A
:101CE0000D909D919713F9CF07FEF7CFBDCF8CE0F4
:101CF00090E0ABE5B1E00C9007FE0DC006FE982F1A
:101D000019968A95C1F7903021F166FF22C0892D7E
:101D1000989FA019B1096D937D937F936F930A01EA
:101D2000CD01B9010E94050DA0016F917F91112491
:101D30001D921D921D921D9297CF9F3799F0592F9A
:101D400035912591422F407F47602F7022952C605E
:101D50009BCF7395959197FDFCCF9F3719F0959187
:101D60009591F7CF9927872F5F904F903F902F90B5
:101D700008958C3048F499E0899FD001A55ABE4F50
:101D800011249D9197FD03C081E090E008959F7715
:101D90008D919C01CD01FB013296AF0134960F016C
:101DA0000E941D0DF00111247D9171937D9171931D
:101DB000339631937D9171937D917193219388270F
:101DC0009927089590E8A82FA69508F49695A695CA
:101DD00010F496959695A69508F49295BB27A9536D
:101DE000BE4F0C90909509220C92A3E5B1E09DE0C6
:101DF00011249A9539F019960C900812FACF119780
:101E00001D92F7CF08958C3048F499E0899FD00156
:101E1000A55ABE4F11249C9197FD01C00895FB0166
:101E200012962191319141915191CD01B9010A014F
:101E30000E94050DA0011124329671917D9371913C
:101E40007D933396919171917D9371917D93819161
:101E500019979068E091F910F091FA10E21BF30BDA
:101E6000E058F14060F4E091FB10F091FC10E41BAD
:101E7000F50BE058F14018F49D938D9308951C9252
:101E80000895EDEAF2E0A9EFB0E1219131912054FB
:101E90003F4F2D933D934191519140545F4F4D934E
:101EA0005D93ABE5B1E09CE0092E1124FA018C9121
:101EB00087FF13C012960E94440D621B730B60587B
:101EC0007E4F48F04E1B5F0B40585E4F20F014963B
:101ED0000A9469F7089515971C9219960A9439F790
:101EE0000895DAE2E3EBECF4F5FDFEBEB6756D6C39
:101EF00040E09091A7029770BEE0A92FA05DFEE19F
:101F0000E2EE9EE0989FE00DF11D8DE0407EC1F471
:101F10001590012C15900D920D920D920D921D921F
:101F20000D921D920D921D920D921D920D921D9279
:101F30001D928A9571F71D921D921D92112408958C
:101F4000562F677C5873649FB001549F512D419563
:101F50002591322F277C3873249F060E171E212DC2
:101F6000277C349F150E312D3873230F922F259126
:101F7000322F277C3873249F060E171E212D277CB5
:101F8000349F150E312D3873230F9D939D939D9390
:101F90009D932D939D932D939D932D939D932D9381
:101FA0009D932D932D938A9509F72D932D932D9322
:101FB0001124089540E0BBE0A1EB407E49F46DEAB6
:101FC00080FF60E06D936BE080FF6FEF6D9308958D
:101FD000962F677C9873649FB001949F912D4195D3
:101FE00025E880FF20E0249F060E171E212D277C68
:101FF00038E280FF30E0349F190E312D3873230F03
:102000002D9323E080FF27EC249F600D711D777CCA
:1020100038E080FF38E3349F910D9873970F9D93BC
:102020001124089560E0BBE0A1EAF8E7E1EE2FE0BB
:10203000607E29F405900D922A95E1F70895782F96
:10204000877C7873869FC001769F712D619545913D
:10205000542F477C469F080E191E412D477C58730C
:10206000569F170E512D5873450F4D932A9579F7AA
:10207000112408958091B60B9091B70B880F991F8A
:1020800065E27FE7861F971F6BED86278093B60B6F
:102090009093B70B089500000000000000000000BE
:1020A00000303233000000000000000030313233D5
:1020B000000000000000303132330000000000005A
:1020C0000000000000000000000000000000000010
:1020D000000000003032330000000000000000006B
:1020E00000000000000000000000000000000000F0
:1020F000003031323300000000000000000000001A
:102100003434353435353435353434353435343587
:102110000303040304040304040303040304030487
:102120000C0C0D0C0D0D0C0D0D0C0C0D0C0D0C0DE7
:10213000880F991F880F991F0F931F930091FD100F
:102140001091FE100F5F1F4F0093FD101093FE10B3
:10215000E3E01E9F102D0E9F002D110D080F191F7B
:1021600060517040A8EBBBE052E030E077FD2CC03E
:10217000E8E02E9F061A170A18F011F0112457C034
:10218000F9E0F01942FF04C0F99FE02DF89F03C069
:10219000F19FE02DF09F1E0E000C111C000C111C75
:1021A000000C111C012C4ED041FF03C040FD06C0A5
:1021B00008C040FD03C0E060F1E231C0E061F1E23F
:1021C0002EC0E062F1E22BC046FD08C0F7E0F61B2E
:1021D000FF0FF09FE12DF19F0E0E0DC0F9E0F61BF1
:1021E000F99FE02DF89F1E0E000C111C000C111C15
:1021F000000C111C012C26D0F62FF295F07345FF30
:1022000003C044FD08C0DDCF44FD05C0E06AEF0F08
:10221000F0E2F01D04C0E06CEF0FF0E2F01D04905E
:102220000D92EF5F0DF0E0511A94C9F75997599646
:102230006F5F7F4F5D5F3395383109F097CF1F9106
:102240000F910895E7E01E2E1020E52FFF27E85F8D
:10225000FF4E1082E32FFF27E056F04F1082E9E196
:102260001E2E069406940694E62FE00DEF700024CF
:1022700008950000000000000000000000000000C1
:10228000DC01ED91FD912D913D910D909D911124D9
:10229000A8EBB2E084E0080E9C5FE00DF11D8827FA
:1022A00004C0159683958C30D1F04D914030C9F320
:1022B0004F33B8F712960E94440DE617F70790F3D4
:1022C000600D711D600D711DE617F70758F7241793
:1022D000350740F3490F511D2417350718F7992783
:1022E0000895000001010102020203030304040433
:1022F0000505404041424343434445464748484919
:102300004949494A4B4C4D4E4F50505152535455E8
:1023100055565656565758595A5B5C5D5D5E5F5F21
:102320006061FF27E82F805128F4882745D0EE50C0
:10233000FD4D0BC0E82F805128F488273DD0E85090
:10234000FD4D03C035D0E250FD4DE491ED937A95FB
:102350007617D1F07130E9F0FF27E82F805128F48B
:1023600088272AD0EC5FFC4DF0CFE82F805128F46D
:10237000882722D0E65FFC4DE8CF1AD0E05FFC4D05
:10238000E4CFE3E6ED937A957130D9F7E2E6ED9389
:102390000895FF27E82F805128F488270DD0EA5EA2
:1023A000FC4D03C005D0E45EFC4DE491ED9308952F
:1023B000E82FEF3008F0EFE0EE51FD4DE491FF27FC
:1023C0000895A9EAB2E02D913D914D915D91A0E172
:1023D000BEE088E08D938AE08D9314968BE08D9318
:1023E00014968CE08D93149680E28D9315968D93C0
:1023F0008DE08D93179689E08D9374E0652F63705F
:1024000061956D5F822F8695A2E1BEE08ADF74E060
:10241000652F6073629561956D5F842F8695A7E146
:10242000BEE07FDF74E0652F6C7066956695619500
:102430006D5F832F8695ACE1BEE073DF77E060E0EF
:1024400080912A02A8E2BEE06CDF609128027091C0
:10245000290240E3A1E2BEE00C943D14E7E09E9F18
:10246000F02D8E9FF10D1E2EE02D90E8F695E7954C
:1024700008F49695F695E79510F496959695F69549
:10248000E79508F49295E050FF420590E491882783
:10249000F02DF923F195881F969511F490E80E2EF2
:1024A0001A94B1F799270895DC01FB0162E08D9140
:1024B0009927869597958695979581938D91782FF5
:1024C00082958F7096959695982B91938D91982FD4
:1024D000990F771F990F771F7F7371938F73819374
:1024E0006A9529F78D918F7381938D918F73819365
:1024F0000895DC01FB0162E08D919D91990F990F88
:10250000990F881F990F881F81938D91880F880FCD
:102510008295782F7F70972B91939D91807C9F73EC
:10252000892B81936A9541F78D918F7381938D915A
:102530008F73819308958A3140F0843340F08E3355
:1025400040F08F3340F080E608958F5F0895895FF3
:102550000895845C08958DE60895DC01FB016AE02E
:102560008D91E9DF81936A95D9F70895DC011B9677
:102570009CE08C918E3621F0803629F48EE68C9387
:1025800011979A95B1F79C3009F40895119680E659
:102590008C9308958F93609305017093060182E2F6
:1025A00064EC0E94A01760E87BE0609301017093E7
:1025B000020188E380930B01A0E0B0E18FEF91E589
:1025C0008D939A95E9F78F918130C0F091F18AE36C
:1025D00064E90E94A01760E87BE050E0A0E0B0E171
:1025E00090E080EA8D939D93E0E58CEFED938D93E1
:1025F0009D93E4E5ED939D939D9344C050E1A0E04D
:10260000B0E190E089EF8D939D9382E08D9380EF10
:102610008D939D938AE08D938FEF8D939D938BE0A7
:102620008D9380E38D939D93E0E8F8E780EA98E747
:102630002DC050E1A0E0B0E190E089EF8D939D9333
:1026400082E08D9380EE8D939D93EAE080EFED9391
:102650008D939D93E85FE232D1F780E6ED938D9301
:102660009D93E2EA80EFED938D939D93E85FEA3BC3
:10267000D1F7ED9388EE8D939D9382EC8D9389EF46
:102680008D939D93E0E2F8E780E498E750931F0272
:102690008093030190930401DB0190E285918D9377
:1026A0009A95E1F78AE980930001FFCFA8EBBBE0A0
:1026B0007FE7813050F0A1F080E89CE00CD0A8EBDF
:1026C000BCE088EF9DE070E606C080E19EE003D0AC
:1026D00080E39EE070E27D93A817B907E1F70895C3
:1026E00088E19EE070E6F7DFA8EBBDE088ED9DE0B5
:1026F00071E4F1DF88EF9DE076E4EDDF70E4709344
:10270000B80D72E47093D70D75E47093D80D77E42B
:102710007093F70DA8EBBBE088EB9DE073E470933A
:10272000F80D07D0A7EDBBE087ED9DE074E4709352
:10273000170E7D935F96A817B907D9F70895809172
:102740001B02839580931B0270911D0290911E02C3
:1027500090FF0BC068E095FD60E1760F80F47FEF9D
:1027600094FF0DC09F7E9E7F0AC068E095FD60E1EA
:10277000761B28F470E094FF02C09F7E91609093D6
:102780001E0270931D020C94C91560911C024091A9
:102790001D0290911E0292FF40E080911F028F70F7
:1027A0000E94790F60911C0240911D0290911E02BF
:1027B00093FF40E080911F0282958F700E94DB0F93
:1027C00080911C0260911D0290911E0291FF60E0B9
:1027D0000E94131080911D0290911E02809597FF18
:1027E0008FEF0E942B1A08958FEF80932002809321
:1027F0002102089580E00E947817A0E2B2E06C9177
:102800008D937C919D93609570956823792388279B
:102810009927672B09F081E00895A0EABFE090E2D4
:102820008D939A95E9F708958FEF80931D02ADCFB0
:102830006091280270912902680F791F10F46FEFE0
:102840007FEF609328027093290208956091280217
:1028500070912902681B790B10F460E070E06093BE
:10286000280270932902089590912A02980F08F483
:102870009FEF90932A020895DC014A95542F5395B7
:1028800060517742E0F7605F784D5D93542F539528
:10289000685E7340E0F768517C4F5D93542F539509
:1028A00064567040E0F76C597F4F5D93542F5395F9
:1028B0006A50E8F7665F5D934395640F6D930895E2
:1028C000A8EFBFE08EEF8D938D938D938D93089538
:1028D000CF93DF930F93C0ECDAE780911B028695CC
:1028E00086958370D80F08E50BD0DC5F09D0D450F3
:1028F000C05E06D0DC5F04D00F91DF91CF910895C8
:10290000CE01602F0E9466170F5F0895DC012D91A4
:102910003D914D915D91DB016D917D918D919D91E9
:10292000621B730B841B950BDB01A058B040BF3FAB
:10293000D9F5FC01E058F040FF3FB1F5A05730F069
:10294000A05220F4E05710F0E05288F19595879559
:102950009595879575956795759567954C505040F9
:102960002F923F924F925F926F927F928F929F929F
:102970001F9319012A013B014C0113E0260C371C5F
:10298000480C591CC101B2010E94640D803011F045
:102990001A95A1F71F919F908F907F906F905F90F5
:1029A0004F903F902F90089588279927089581E0B0
:1029B00099270895DC01462F8D919D916D917D9110
:1029C000552747FD5FEF840F951F47FF4195641B17
:1029D0007F4F0C94640D022E1124DA019C01AB018F
:1029E0006D917D918D919D91621B730B841B950B55
:1029F0000114A9F107269AF10726AFEF77FD04C06D
:102A000067FF71116FE705C067FD7A1360E80194F5
:102A1000619597FD04C087FF91118FE703C087FD83
:102A20009A1380E8332733956019EAF7982F97FDBA
:102A300081955FEF5395831BEAF797FD31953150F0
:102A4000311D35953595531B051610F457FF502D44
:102A500097FD5195852F992787FD9FEF0895992719
:102A60008FE70895841B950B885F9F4F805190409E
:102A700050F4621B730B605F7F4F6052704018F41C
:102A800081E090E0089580E090E0089500251E1C0C
:102A90003E14331E3F3FB00403372D21001D1D3768
:102AA0002B3FB603092E1B1A2D221A273F3FF40194
:102AB0006F937F938F939F9390EF8DEA0E945018AE
:102AC00080309F918F917F916F9149F0ECE8FAE20D
:102AD00064E2DC0175917D936A95E1F70895DB016D
:102AE000FC01129653E00E9456126D9161936D9114
:102AF00061935A95C1F70895509100015F9355274E
:102B000050930001DC01FB0190EF8DEA81939193DA
:102B100053E00E947B126D9161936D9161935A9580
:102B2000C1F7B097CF010E94DE175F91509300016B
:102B3000089520E0ECE2F2E011243FEF41E0308321
:102B40004183128213821482658376831782719681
:102B500023952330A1F7089560935F02709360027C
:102B6000E8DF0C94A71860915F0270916002680F13
:102B7000791FDFDFECE2F2E088276FEF80830C94AF
:102B80001B1AE82FEE0FFF27E151F742859195912F
:102B9000EACFDF92EF92FF920F931F93CF93DF93D1
:102BA00000E0CCE2D2E01881143048F599819A9582
:102BB000998329F593E0199FC00DD11DED81FE8108
:102BC000C019D109D5909FE07F01ED2DE295E92351
:102BD000D922FF27E45EF94E09951F3F41F093E0AB
:102BE000199FC00DD11DED83FE83C019D109188135
:102BF0001F3F29F0D114F1F2DD0CDD0CD982802FBA
:102C00000E94231A6B81860F10F067FD80E010F49C
:102C100067FF8FEF682F802F0E941B1A6196039524
:102C2000033009F0C0CFDF91CF911F910F91FF903A
:102C3000EF90DF900C94F5180FC013C030C033C074
:102C400039C040C044C045C054C062C06BC06EC0F3
:102C500071C070C06FC06EC01A9518831FEFF70166
:102C60000895F70185916591759191E1899FD00152
:102C7000A45DBD4F11241D9213941D921396409193
:102C80005F0250916002460F571F4D935D931124D0
:102C90001D928013089511271883FA010895F701F2
:102CA00065916A830895F7016591802F7F010E94E5
:102CB0001B1AD5CFF70145916C81460F6A812FEF22
:102CC0007F0101C020E0802F0E94061AC8CFD29455
:102CD000C6CFF70195918591C00DD11D7F817150AF
:102CE00008F4792F7F8311F0E81BF109C019D1098D
:102CF0000895133068F4F701E590F590C00DD11DEB
:102D0000ED83FE831A86C019D1091395188303C079
:102D1000F701E590F590E0915F02F0916002EE0D11
:102D2000FF1D0895F70165916B830895F701659183
:102D30006C83089594CFA8EBBBE099E178E159E169
:102D40004427282F27FD2195921B09F008F40895A8
:102D5000362F37FD3195731B09F008F408959A3129
:102D6000E8F787FB603011F02AF460C08030B1F3DF
:102D70000AF45CC0FD01072E030E0A94059E090E9D
:102D8000141E16F0020E141EA00DB11D072E0A947B
:102D9000059E090E141E16F4020E141EE00DF11D00
:102DA000591B872FBE01EF01990FECE0F7E1E91BFA
:102DB000F40B38C01A901E921A901E921A901E920E
:102DC0001A901E921A901E921A901E921A901E929B
:102DD0001A901E921A901E921A901E921A901E928B
:102DE0001A901E921A901E921A901E921A901E927B
:102DF0001A901E921A901E921A901E921A901E926B
:102E00001A901E921A901E921A901E921A901E925A
:102E10001A901E921A901E92A51BB40BC51BD40BC0
:102E20008A9509F00994EB0111240895FD0116F02B
:102E3000A20FB41F359F16F4020E141EE00DF11DF3
:102E4000591B872FBE01EF01990FECE5F7E1E91B54
:102E5000F40B38C019901D9219901D9219901D9273
:102E600019901D9219901D9219901D9219901D9202
:102E700019901D9219901D9219901D9219901D92F2
:102E800019901D9219901D9219901D9219901D92E2
:102E900019901D9219901D9219901D9219901D92D2
:102EA00019901D9219901D9219901D9219901D92C2
:102EB00019901D9219901D92A50FB41FC50FD41F14
:102EC0008A9509F00994EB0111240895FC01A0E210
:102ED0006A9FD001112468E005900D9205900D9233
:102EE00005900D9205900D926A95B1F70895FFCF68
:102EF00080911401909115018F3009F008950C9480
:102F00008117E0E6F0E0808183FD089588E198E094
:102F1000F894808390837894FFCFF999FECF92BD87
:102F200081BD60BDF894FA9AF99A78940895F99958
:102F3000FECF92BD81BDF894F89A80B5789408953B
:102F400060931301809312010895CF93DF93C0E043
:102F5000D0E0FE01EA51FF4F6491CE010E948D172F
:102F60002196C032D105A9F7C0E2D0E06FEFCE01C3
:102F70000E948D176FEFCE0101960E948D17A096CB
:102F8000C11588E0D80791F7DF91CF910895CF93CD
:102F900080E090E00E949717C82F81E090E00E94A7
:102FA0009717282F30E0322F22272C0F311D81E078
:102FB0002A35354509F080E0CF910895DF92EF92F0
:102FC000FF920F931F93CF93DF93EC010E94C717DB
:102FD000811109C084E0DF91CF911F910F91FF9083
:102FE000EF90DF900895888199818F3F2FEF9207AE
:102FF00009F444C08A35954509F440C000E210E068
:10300000D12CFF24F39406C0F394005E1F4F20E4FC
:10301000F216E9F1C8010E949717E82EC80101963F
:103020000E949717282F30E0322F22272E0D311DB6
:10303000888199818217930739F02F3F3F4F21F7FD
:10304000D110E2CFDF2CE0CFD11023C07E0120E2EF
:10305000E20EF11C0C1B1D0BCE01800F911F69911C
:103060000E948D17CE15DF05B9F780E0DF91CF9173
:103070001F910F91FF90EF90DF90089581E0DF9115
:10308000CF911F910F91FF90EF90DF900895DD2079
:1030900029F080E2D89E80011124D8CF82E09BCF16
:1030A000DF92EF92FF920F931F93CF93DF938C01E8
:1030B000EB010E94C717811109C084E0DF91CF9115
:1030C0001F910F91FF90EF90DF9008950F3F8FEFCA
:1030D0001807D9F1E12CF12C07C080E2E80EF11CB1
:1030E000E11484E0F80641F1C7010E949717D82E39
:1030F000C70101960E949717282F30E0322F222710
:103100002D0D311D2017310741F78E01005E1F4F35
:10311000EC1AFD0ACE018E0D9F1D0E949717899310
:10312000C017D107B9F780E0DF91CF911F910F91C0
:10313000FF90EF90DF90089583E0DF91CF911F9192
:103140000F91FF90EF90DF90089581E0B7CF9093BB
:10315000A3028093A2028FE68093A4020E94B91872
:10316000E1E6F2E08FEF8583828B878F84A781AFC2
:1031700008951124E9E1F1E0ACE3B1E004D0E1E627
:10318000F2E0A2EAB2E01192EA17FB07E1F7089534
:10319000E62FEE0FFF27E45AFB4CA591B591E7E02F
:1031A000E89FF001E75EFE4FA183B28311240895EA
:1031B000E7E0E89FF001E75EFE4FADECA60FA583C8
:1031C00011240895E7E0E89FF001E75EFE4F608379
:1031D00011240895E9E1F1E095E080818683379636
:1031E0009A95D9F79093180108950F931F930E9411
:1031F000EA1801E612E0D80188272D9126FD26C0A5
:103200005C9151505D9309F008F5ED91FD91F0301E
:1032100011F4E030D9F045914F3088F465919591E3
:1032200013979D93ED93FD93D80155274C58564E17
:10323000FA010995903051F4D8011296E6CFF0E0EA
:103240001297FD93FD93D8012F752C93662725FFC8
:1032500028C0D80115966D911D904D91439509F0A8
:10326000149E27FD6FEF639509F0169E6091A402EE
:10327000639509F0169E612D5D91FD91ED911D9074
:10328000112079F0F35374917058739509F0179EDB
:103290001094639509F0169E612D7D91E70F1397A9
:1032A000EC930E94E21825FF0BC0D80117964A95AF
:1032B000450F10F057FD40E010F457FF4FEF4C93CF
:1032C000D8011D968D018395853009F096CFECE3EA
:1032D000F1E082E09081939509F49A9591938A9513
:1032E000C9F71F910F9108950EC010C010C011C0F2
:1032F00016C01CC01EC020C022C027C029C02BC0C1
:103300002BC02BC02DC018966C93089508950C9473
:10331000D81814960C90600D6C930C94C8181496E1
:103320000C90061A602D6C930C94C8182F752C9372
:10333000089520642C93089517966C930895277F21
:103340002C9314966C930C94C8181B966C93089548
:103350001C966C930895089508951A966C93089599
:1033600019966C930895ADE0A89FD001AF59BD4F59
:103370003C913062377B3D93E091A202F091A30231
:1033800092E0699FE00DF11D9591F491E92F70E0B5
:10339000F03011F4E03009F075917D93ED93FD93D9
:1033A000FD0111242283148215821782642F37FDB8
:1033B000089540830C94C818262F682F84E01124A8
:1033C000A5E9B2E0ECE3F1E0403041F09281691709
:1033D00099F08A959381691779F083959C9197FF6D
:1033E0000BC08A951D979C9197FF06C070819181B3
:1033F000791710F083951D967C9170687C938430CA
:1034000009F03196108262830C94B319EDE0E89FC5
:10341000F001EF59FD4F908197FD0895203049F458
:1034200096FD04C07085703009F09F759F7B908376
:1034300008950C94B319EDE0E89FF001EF59FD4FAA
:10344000658311240895EDE0E89FF001EF59FD4FE9
:103450008581112408958093A402089522002400F8
:10346000260028002B002D003000330036003900E4
:103470003D004000440048004C00510056005B00F5
:10348000600066006C007300790081008800900085
:103490009900A200AC00B600C100CC00D800E50045
:1034A000F3000101100121013201440157016C01B7
:1034B00081019801B001CA01E50102022102410225
:1034C00064028802AE02D70203033003610394034F
:1034D000CB03050442048304C70410055D05AF0552
:1034E00005066106C206290796070908830805092B
:1034F0008E09200ABA0A5D0B0A0CC10C840D510E0C
:103500002B0F121007110A121D1340147415BA164E
:1035100014188319071BA31C571E24200E221424E1
:1035200039267F28E82A752D293006330F3645398C
:10353000AD3C49401B442848734CFE50CF55EA5AD5
:1035400051600C661D6C8B725A799280378850904E
:10355000E598FDA19FABD3B5A3C0089510920001DB
:10356000109206011092050180E280930B010C94E9
:103570000B018FE98DBF8FE08EBF8FEF0E942B1A5A
:103580006CE177ED8CE097ED0E94AC1580E00E9435
:10359000903380E090E008952F923F924F925F9297
:1035A0006F927F928F929F92AF92BF92CF92DF9253
:1035B000EF92FF920F931F93CF93DF93EC01D62EE0
:1035C000F42EC02E822F817D982EE22FE170EE2EF8
:1035D0002071122F106430E1632E40E1742E760EBC
:1035E00058E0A52EA60EBB24B394BF0C68EF862E20
:1035F00021C0F9014490FE0133963490249652FC88
:103600002AC0EE2019F0F82DF4194F2E6A2D640D02
:103610004B2D430D802F90E0982F8827252D207E5D
:10362000822BCC2009F47DC00C2D292D0E946B012A
:1036300051FC49C0FE0154909E012E5F3F4F3196D0
:10364000049150FCD6CF07FD51C0E02FE068C52D96
:10365000D0E0DE2BEFCF252C22948FE02822602FA4
:1036600062956F70402F4F704F0DEE2009F44BC0E4
:10367000872D861B682F212F822D0E940F01401657
:1036800069F0842D82958F70442D4F70662D681BD4
:103690004F0D6D0D212F822D0E940F01341441F228
:1036A000632D62956F70E32DEF70EE2019F0F62D0B
:1036B000F61B6F2F4E2F4F0D6D0D212F822D0E9467
:1036C0000F0151FEB7CFDF91CF911F910F91FF9066
:1036D000EF90DF90CF90BF90AF909F908F907F90B2
:1036E0006F905F904F903F902F900895A52DB0E080
:1036F000B02BFD015490319604913196449031964F
:103700003490E9017CCF6D0D212F822D0E940F0195
:10371000401609F4C3CF642D62956F70442D4F702D
:10372000B7CF292D0E94680183CF30E8639FF00155
:103730001124E05CF109F0934501E093440130E489
:10374000439FF0011124F0934701E0934601209339
:10375000430110924E010E94950C809143018068B4
:103760008093430108950E94D51B80914801909158
:1037700049019093A6028093A50280914A019091FD
:103780004B019093A8028093A70210924C011092D3
:103790004D01809143018068809343010895809199
:1037A0004301806880934301089560587F4F8115DD
:1037B0002FEF9207A0F01092490110924801611575
:1037C0008FEF7807D8F480914601909147016817F0
:1037D0007907F0F470934B0160934A0108952091AA
:1037E0004401309145018217930768F030934901F5
:1037F0002093480161158FEF780728F310924B0151
:1038000010924A0108959093490180934801D7CFBF
:1038100090934B0180934A01089580934E0108953F
:103820004F925F926F927F928F929F92AF92BF92D0
:10383000CF92DF92EF92FF920F931F93CF93DF937C
:103840001F92CDB7DEB7E090A502F090A6020091DE
:10385000A7021091A80280914801909149018E1908
:103860009F0930914C0197FDCBC08138910508F03C
:1038700047C1815F82958F70282F3F5F38170CF406
:10388000CCC020934C0160914E016111CEC0C701A4
:10389000820F911D27FD9A959093A6028093A50211
:1038A0008115AFEF9A0708F46FC11092A60210922B
:1038B000A502980180914A0190914B01821B930BC4
:1038C00050914D0197FDDCC08138910508F01BC176
:1038D000815F82958F70482F5F5F58170CF4DDC0B1
:1038E00040934D016111DFC0C901840F911D47FD57
:1038F0009A959093A8028093A7025C01B694A7942E
:10390000B694A794B694A794877093E1981B2091DE
:10391000A5023091A6026901D694C794D694C794A3
:10392000D694C79427708BE0809308108091A702EB
:103930008770805D8093091020930A102093A00F58
:1039400061EA7FE0EDE0F0E188E3AF014250510928
:10395000DA019C934F5F5F4FDA018C932083DB0188
:103960002D93BD01885F985F3396803F71F78091FA
:10397000430187FD17C1C701969587959695879551
:10398000969587951695079516950795169507951B
:103990008C159D0508F4EEC0FF24F3948C159D054D
:1039A00009F49EC10A151B0508F0B2C077247A9469
:1039B0006FEF8F2D0E949B16F11069C1EFEF7E16FD
:1039C00009F4D3C071101BC12091B30B4091430186
:1039D000B5018091A5029091A6020F90DF91CF9141
:1039E0001F910F91FF90EF90DF90CF90BF90AF901D
:1039F0009F908F907F906F905F904F900C94981055
:103A000080382FEF920708F43FC182958F70806F46
:103A1000282F315083170CF034CF232F20934C01E3
:103A200060914E01662309F432CF29830E943A1037
:103A300060914E012981653008F009C1877094E0DA
:103A4000820F891B87FD09C1893008F088E090E06A
:103A50002091A5023091A602820F931F9093A60297
:103A60008093A50281154FEF940708F413C11092BB
:103A7000A6021092A5022091A7023091A8021ACFA7
:103A80008038BFEF9B0708F4FCC082958F70806F71
:103A9000482F515085170CF023CF452F40934D01EF
:103AA000662309F421CF49830E943A1050914E01B8
:103AB0004981553008F0D8C0877094E0840F891B85
:103AC00087FDD8C0893008F088E090E02091A702F7
:103AD0003091A802820F931F9093A8028093A702AF
:103AE0008115EFEF9E0708F4E5C01092A80210922E
:103AF000A70293E1A12CB12C515050934E0107CF56
:103B000088E028E0BACE88E048E0E6CEFF24FA94C8
:103B1000772473940A151B0509F4E4C0672D8F2DD3
:103B20000E949B162FEFF21247CF08E110E025010B
:103B300040E1441A51087801EC0CFD1C0854144F64
:103B4000450188E0880E911CB201C7010E949E0CBD
:103B5000D8018C93BFEF4B1A5B0A075E1F4F4814C6
:103B6000590491F7EFEF7E122DCF8FE392E027E11A
:103B700030E049C00A151B0548F66FEF8FEF0E9431
:103B80009B1677247A94D1CF20914401309145013E
:103B90008217930708F459C03093A6022093A50218
:103BA000980188CE8F7780934301850100511109D8
:103BB00048EB642E4BE0742EF601E854F44F6F018D
:103BC0007301E9E1EE0EF11C460186189708F8EB47
:103BD0008F1AFBE09F0AB801C401860D971D0E9451
:103BE0009E0CD3018D933D01AE15BF05A1F70F5F6C
:103BF0001F4FB0E16B16BEE07B0611F7E5CE80E00B
:103C000090E020E030E0850100511109020F131F00
:103C10004C01F8E48F1AF4EF9F0A7C012FE2E21ABC
:103C200024EFF20A9601285B3B406901C81AD90AC1
:103C3000B801C601880D991D0E949E0CD4018D9378
:103C40004D01AE15BF05A1F7BFCE980133CE8F70E1
:103C500098E0820F891B87FFF7CE883F08F44FC09A
:103C6000082E000C990BF4CE8F7098E0840F891BFE
:103C700087FF28CF883F08F445C0082E000C990B19
:103C800025CF88EF48EF05CF88EF28EFC2CE00E0C0
:103C900010E04DCF209144013091450182179307E8
:103CA00020F03093A6022093A5022091A702309124
:103CB000A80200CE20914601309147018217930758
:103CC00098F03093A8022093A7025901B694A794C4
:103CD000B694A794B694A794277093E1921B0CCF47
:103CE000F12C60CE712C1ACF5C01B694A794B694D7
:103CF000A794B694A794877093E1981BFDCE88EFA4
:103D00009FEFA6CE88EF9FEFE1CE80914F018F5FAE
:103D1000833018F010924F01089580934F01089559
:103D200090914F0183E0891B833009F0089580E072
:103D300008958F929F92AF92BF92CF92DF92EF92AF
:103D4000FF920F931F93CF93DF931F92CDB7DEB7F0
:103D50007C016B01042F6F5F7F4F29830E94640DEC
:103D6000882E2981011118C0982C81100FC082E083
:103D70000F90DF91CF911F910F91FF90EF90DF9007
:103D8000CF90BF90AF909F908F9008959920D9F0D9
:103D9000882329F180E0ECCF269581E090E05C015A
:103DA000A21AB108AC0CBD1C10E0B501C701801B04
:103DB000910B0E94640D982EB501C8018E0D9F1DB8
:103DC0000E94640DD2CF882391F2B601635F7F4FCA
:103DD000C7010E94640D882351F282E1C9CFB60168
:103DE000635F7F4FC7010E94640D882309F4BFCF32
:103DF00082E2BECF2F923F924F925F926F927F925C
:103E00008F929F92AF92BF92CF92DF92EF92FF92EA
:103E10000F931F93CF93DF93CDB7DEB72F970FB6D6
:103E2000F894DEBF0FBECDBF9B838A83FC01C080A8
:103E3000D180E280F38084809580B68017810285EE
:103E4000F1E0F91508F099C1292C292D482DB70169
:103E5000C6010E94991E81115DC1802F8D70582F5F
:103E60005E7F8A7029F480914F01882309F492C102
:103E7000822D8695282F30E03C872B8719821D865E
:103E8000612C1C82712C312CC101809590959887F2
:103E90008F83E82DF0E0FE83ED83E095F095FA87BF
:103EA000E9874D805E80FFEF4F1A5F0ABF865E870D
:103EB0003F85311141C03DC0292D482DB701C601B4
:103EC0000E94991E811198C00E850D7F2FEFE21A76
:103ED000F20A11503E8536FD96C03C813F5F3C831F
:103EE000302F3F7B3E873F8513160CF04EC05201AA
:103EF000AC0CBD1CB70162197309C5010E94640DA9
:103F0000882381F0911092C001FF7FC056019FEF7E
:103F1000A91AB90AB70161507109C5010E94640D5F
:103F20008111D2C03E8530683E8739813160398346
:103F30001F86112309F494C011160CF4BDCF0E8511
:103F4000112371F20D7FAF80B884AE0CBF1CB50198
:103F5000C601ED81FE818E1B9F0B0E94640D88239C
:103F600009F478C081106DC0F1E0EF1AF1081F5F0D
:103F70003E8536FD48C03C8131503C83302F3F7B2D
:103F80003E873F8513160CF4B2CF3F85332389F269
:103F9000A984BA84AC0CBD1CB70162197309C501B0
:103FA0000E94640D882309F4BDCF9110CFC001FF9A
:103FB000A0C0560191E0A91AB108B701615071097A
:103FC000C5010E94640D882309F4ACCFB7016F5F6F
:103FD0007F4FC5010E94640DB701882309F4DFC03B
:103FE0006E5F7F4FC5010E94640D882309F4F0C005
:103FF0000D7B0E87650189C03981326039830E855A
:10400000026810E06DCF02606BCF56018FEFA81AE7
:10401000B80AB701C5010E94640D882309F482CF54
:1040200065013F8531503F87739442CFB7018B853F
:104030009C85681B790BC5010E94640D811164CFBA
:1040400071CFB5018D819E818C0D9D1D0E94640DE7
:1040500081118ACF006839813260398310E040CF06
:104060005E85152F1D7B292D482DB701C6010E94A5
:10407000991E812BEA81FB811086118687FD71C014
:10408000760CEA81FB8176823C813783D182C082C3
:10409000F382E28282872F960FB6F894DEBF0FBEBE
:1040A000CDBFDF91CF911F910F91FF90EF90DF90E7
:1040B000CF90BF90AF909F908F907F906F905F90C8
:1040C0004F903F902F900895B7016F5F7F4FC501CC
:1040D0000E94640DB701882309F16E5F7F4FC5010F
:1040E0000E94640D882309F44BC00D7B0E87650187
:1040F00098CF560181E0A81AB108B701C5010E9406
:10410000640D882309F40ECF65013F853F5F3F872B
:104110007A94CECE802F8F708260A1CEC5010E948E
:10412000640D81117DCF11503E8530643E873D8501
:10413000311176CF3F8531503F8702FD63943F8533
:1041400031114CC0650131E03D87F3CEB7018B855D
:104150009C85681B790BC5010E94640D811127CFD6
:10416000E1CE398130FD12C0398131FF89CFEA813A
:10417000FB8197819195918783CF82E0282E65CE30
:104180003E8530643E871F5F65014BCF96819195D8
:104190009087EACF10320CF06BCE1F5F69CEC5015D
:1041A0000E94640D8111B0CF11503E8530643E876E
:1041B0003D853111A9CF3F853F5F3F8702FD6A945E
:1041C0003F85332309F4BECF650131E03D879DCFA4
:1041D0003E8530643E871F5F650197CF650131E002
:1041E0003D871FCF0F931F93CF93DF93C82F9091DD
:1041F00059019F5F937090935901809155018823D5
:1042000009F431C18150809355010C2F04701C2F8B
:104210001270D0E090915101002309F422C1946002
:10422000112309F41AC19260909351012C2F20712F
:10423000C4FD0AC19F7B909351018091500186304B
:1042400011F010925A018091B302182F17FD1195A9
:104250003091B70231FFD1C0C5FFC77F222339F0AB
:1042600096FD05C080915001853009F4DFC2C6FD7E
:104270003DC1C7FDA5C2C4FF52C196FD50C1112367
:1042800009F4EBC28091500126E0A0E090FDD195A9
:10429000853009F435C1833009F432C14091B3024D
:1042A00047FD57C24D170CF052C2442309F432C3E4
:1042B000D42F40915401442309F442C24150409309
:1042C00054014DEF420F423008F423C12111A5C023
:1042D00021E0823009F4A1C020E093FFA0C020912A
:1042E0005301482F50E04830510508F46DC1977FC5
:1042F0009093510110E0C0E080935001AA2361F037
:1043000090915901911108C09091B3029D170CF042
:1043100050C29F5F9093B302307309F037C1909100
:10432000B302CC2309F439C124E02093B702910FE2
:104330009093B3026DEA72E080680E94950D8091BF
:10434000510185FF03C080E18093B2028DEA92E0C3
:104350000E94FA1E8091B302811B8093B302CC238A
:1043600009F41FC19091B40297FD1BC11092500136
:1043700020915101922F9F7D90935101811106C090
:104380008091B70220FFFCC084FDFCC08091AC028C
:10439000982F9295907F9F632091AA022917B8F4D5
:1043A00031E0320F3093AA02391788F430911B02A2
:1043B000432F4F7109F4E0C097FF04C0432F4F70A3
:1043C00009F4DAC0903C18F0377009F4D5C0209198
:1043D000AB02422F50E0807390E0880F991F880F46
:1043E000991F8F634817590718F42F5F2093AB026A
:1043F000DF91CF911F910F910895C6FF6EC090FF7E
:104400009BC0C7FDF5C181E0C5FD07C2A0E0D0E0BB
:104410008111D1958091500127E093FD60CF28173D
:1044200009F45DCF263009F4CEC1109252011092EA
:104430005301986090935101422F50E0483051054C
:1044400008F48BC1822F53CF80915A01883008F035
:10445000FACE8F5F80935A01F6CE9D7F90935101E3
:10446000E5CE9B7FDDCEC0FFD0CE8091AB02883100
:1044700008F4CBCE88518093AB0287E0809355013E
:10448000D091B3022091B4028091510180FFB3C159
:10449000D5500C2F0470C2FD24501C2F1270C1FD8A
:1044A0002E5F809158016091AF027091B002680F49
:1044B000711D87FD7A95309157018091AD029091E1
:1044C000AE024D2F830F911D37FD9A950E947928DA
:1044D00060E481E00E948D339DCE892F8170C7FDFD
:1044E00041C0C5FF93CFA1E0D4E092CF90FD2AC098
:1044F0008091500124E0A2E0D0E0853009F0CBCEDD
:10450000409154014111DACE4DEF420F423008F094
:10451000DDCE4FEF480F423008F07FCFD9CEC3FF3A
:1045200019C08091AA02803108F467C180915001BE
:1045300025E0A1E0D4E0AACE8091500127E0A1E0DF
:10454000DFEF6BCFC7FF97CE80915001D0E024E022
:10455000A2E09ECEC5FF57C18091500123E0A1E0AB
:10456000D1E094CE811144C1C5FF68C18091500152
:1045700027E0A1E0D4E051CF2E5F2093AA0227CFFD
:1045800085FF04CF90629093510100CF909151012B
:1045900090FF18C09EEFC111C7CE26E02093B7024E
:1045A000C6CE3091500120915101922F9F7D909362
:1045B00051014AEF430F423008F4E8CE343009F09D
:1045C000DDCEE4CE92E0ADCEFA01E85CFF4F0C9474
:1045D0006F398091AA02882319F081508093AA0232
:1045E000822F40E2149F800D112480935301821783
:1045F00040F4809152018F5F863008F411C110920F
:104600005201977F9093510110E085E0C0E074CE95
:104610008091AA02882319F081508093AA02809188
:10462000B302811106C090FFFEC01D1614F481E094
:104630009827977F9093510110E087E0C0E05CCE0F
:10464000822F40E4149F800D112480935301821720
:1046500030F4809152018F5F837080935201977F75
:104660009093510110E083E0C0E046CE90E1920FBC
:10467000222309F48CC0203409F4FCC0203809F44A
:10468000E0C0203C09F407C190935301992371F0D5
:1046900031CE9EE1920F90935301921708F02ACEEB
:1046A000909152019F5F91709093520190915101AE
:1046B0001ECE90E4920F8091AA02811139C090938E
:1046C00053019217C8F5809152018330A8F58F5F8E
:1046D00080935201833081F580915A0190E0AC01C2
:1046E0004D5F5F4F812F90E0039696958795969545
:1046F0008795840F951F96958795482F41954093F0
:10470000B4022091AA02203108F0EAC04F3F0CF415
:10471000F8C01092AA0280915101123008F4E7C04B
:10472000877F80648093510110E086E0C1E0E4CD92
:1047300081508093AA02C3CF10E086E0C0E0DCCDB8
:104740008823A9F1813009F0BCCD22E066CE411169
:10475000B0CDD4170CF4ACCDACCDFA01E05CFF4F7A
:104760000C946F398FEF809354018EE18093530145
:10477000822FC0CD20E08091AA0281112ECF812FFF
:104780008295880F807E809353013BCF90E11092F9
:10479000520110E09093530184E0C0E0ADCD812F31
:1047A0008295880F880F807C8093530158CF21E039
:1047B00034CED9170CF0B0CD91509093B302ACCD5C
:1047C00090FF59CDC1CE853009F02FCE81E0809386
:1047D000520198609093510190E420E08091AA02E8
:1047E0008111A6CF9093530110E086E0C0E084CD04
:1047F000D1E0A1E00FCEDB5F4CCE8091500125E0EF
:10480000A1E0D3E043CD133098F491FF3CC08091F8
:10481000500122E0A1E0D0E039CDA1E0D4E0F9CD13
:1048200080935201EECED7FF04CF01CFC8621FCDD7
:104830008091500125E0A1E0D0E028CDA0E0D0E0BB
:10484000E9CD82E0809352018091510180FF3DC00B
:1048500013E0A0CF90E420E0C1CF0E94901E909181
:1048600051018230A1F18091500120E0A0E030910F
:10487000B7020CCD81E0809352018091510180FFFD
:1048800017C012E087CF1123A9F08091500123E0D7
:10489000A1E0D0E0FBCC83E0809352012091510154
:1048A00020FF1CC012E081E082278093510172CF6B
:1048B0001EEF70CF209150018FEF820F8230E8F011
:1048C000822F20E0A1E0D0E0E1CC1DEF63CF80910A
:1048D000500126E0A0E03091B702D8CC1EEFE3CF24
:1048E000203208F416CF20522093AA0214CF80FF62
:1048F0000DC09EEF9093B30213CF822FA1E0D0E0C2
:10490000C5CC91E0981B9093B40203CF92E09093B2
:10491000B30206CFD0E0CDCCCF93DF93E09150012E
:1049200060915201660F20915101322F347022FFA5
:1049300012C0C8EC21FDC0E2E330A1F0E53009F47B
:104940004CC08E2F90E08830910538F04091B30232
:1049500060E0D0EE0DC0C8EEEDCFFC01E85BFF4F8C
:104960000C946F394091B302442309F43AC0D0EE5D
:1049700025FD6EE331116160862F90E0880F991F4D
:10498000FC01FC5334913093570131968491819509
:104990008093580120FD48C014160CF089C04130A6
:1049A00009F4CFC0423009F486C0433009F4C6C0D0
:1049B000D8E741ED809156018823A9F0815080937A
:1049C000560120E48DEA92E00E94A60D80915101EB
:1049D00084FD12C0DF91CF9108954091B30241113F
:1049E00037C068E0C4CF20E18DEA92E00E94A60DB6
:1049F0008091510184FFEECF6091AF027091B002BF
:104A00006C5571096C0F711DC7FD7A958091AD02CF
:104A10009091AE02805691098D0F911DD7FD9A9508
:104A2000DF91CF910C94D51BE32FE195E0935701D3
:104A300047FD02C040EDBECF4F3F09F472C04E3F6C
:104A400009F472C04D3F09F472C0D8E840EDB2CF0E
:104A5000645ED0EE8DCF665D4091B302D0EE88CF1C
:104A6000645F4091B302D0EE83CF4091B302542FE4
:104A700057FD51956091B402E62FFF27E1950CF4A4
:104A8000F095CF01E330F105CCF4F7FD1AC0655E77
:104A9000660FD0EE6DCF6C5E4091B302D0E068CF70
:104AA000605F4091B302D0EE63CF4091B3025FCF1D
:104AB000D19541ED7FCFD0E541ED7CCF60E3D0EEE5
:104AC00057CF652F70E06D5F7F4FFB01F695E7953F
:104AD000F695E7955E2F550FE50FF0E0F195E1951E
:104AE000F109E817F9078CF076956795562F550F61
:104AF000650F772761950CF470956817790744F472
:104B0000C7FD0DC06AE3D0EE33CF68E3D0EE30CFFF
:104B10006CE3C8310CF02BCFC8E1D0EE29CFC0E058
:104B2000F1CFD0EC40ED46CFD0EB40ED43CFDCE908
:104B300040ED40CF4091B302685F19CFD4E641ED1C
:104B400039CFD0E441ED36CF8091550181110AC0B3
:104B500090915601911105C081E0909150019530DE
:104B600008F4089580E00895811106C080915101F4
:104B70008F7E8093510108958091510180618093CF
:104B80005101089583FF1EC09091AC02292F23701C
:104B900087FD0FC1382F307486FDAAC0633008F03E
:104BA00015C1362F3295330F330F307C3F63262FDC
:104BB0009C7F922B9093AC029091A902391710F42C
:104BC0003093A90284FF22C09091AC02292F269530
:104BD0002695237087FDF6C0382F307431119AC0A6
:104BE000633008F0FDC0362F330F330F262F229588
:104BF000220F220F207C2F63937F932B9093AC0284
:104C00009091AA02291710F42093AA0285FF21C0CF
:104C10009091AC02292F2295237087FDC6C0382FB2
:104C200030743111A5C0633008F0E3C0362F3295DF
:104C3000307F262F2295220F220F207C2F639F7C0E
:104C4000932B9093AC029091AB02291710F4209310
:104C5000AB0280FF19C02091A9029091AC0287FDA0
:104C6000ACC09295990F990F907C9F63382F307448
:104C7000311164C0691708F4962F921718F424E0D4
:104C8000209356019093A90281FF10C02091AA029F
:104C90009091AC0287FD84C09295907F9F6386FDC2
:104CA0005AC0691708F4962F9093AA0282FF19C080
:104CB0002091AB029091AC0287FD6DC0990F990FC6
:104CC0009F6386FF0FC0492F50E0421B5109E62F1A
:104CD000F0E0E417F50714F4962F920F9093AB02CF
:104CE000089508956917D0F7962F9093AB02089511
:104CF00043E050E0421B5109E62FF0E0E417F507CE
:104D00000CF064C0260F322F3295330F330F307CF6
:104D10003F634ECF43E050E0421B5109E62FF0E0E5
:104D2000E417F5070CF05CC0260F322F330F330F5A
:104D30002295220F220F207C2F635ECF492F50E057
:104D4000421B5109E62FF0E0E417F5070CF095CF70
:104D5000922F960F92CF492F50E0421B5109E62F18
:104D6000F0E0E417F5070CF09FCF962F920F9CCF41
:104D700043E050E0421B5109E62FF0E0E417F5074D
:104D8000C4F5260F322F3295307F2295220F220F45
:104D9000207C2F6354CF6217C8F5922F961B9ECFAD
:104DA0006217C8F5922F961B7FCF6217C8F5261B96
:104DB000E9CF621790F5261BA6CF6217A0F5922FB8
:104DC000961B5BCF621720F5261BAFCF93609093A5
:104DD000AC0284FF1BCF292F269526952370FECE8B
:104DE0009C609093AC0285FF34CF292F22952370CD
:104DF00018CF90639093AC0280FF46CF2091A90218
:104E00009295990F990F907C9F6332CF90E066CF77
:104E10002FE330E0F1CE90E047CF3FE320E0C8CE73
:104E20002FE330E00CCF90E028CF9093AE02809338
:104E3000AD027093B0026093AF021092B302109271
:104E4000B4021092B7022FEF20935401109259012F
:104E5000109250011092510110925601411101C05F
:104E6000089520E1209351016C55710980569109F4
:104E70000C94B31B0E94FF0D0E9470280C943B2AD7
:104E8000FF920F931F93CF93DF93CDB7DEB72F978A
:104E90000FB6F894DEBF0FBECDBF0E94B8280E94A7
:104EA000722A0E94410F10E086E0F82E03C01F5FB7
:104EB0001C3039F1BE016F5F7F4F812F0E94B90E08
:104EC0008111F5CF0C850F73BE016F5F7F4F802F6F
:104ED0000E94950DFB86CE0101960E94FA1E802F3E
:104EE00090E08D309105C8F0602FCE0101960E94B0
:104EF0001333811117C08F850E94E20E1F5F1C3093
:104F0000C9F62F960FB6F894DEBF0FBECDBFDF9166
:104F1000CF911F910F91FF900895FC01E05BFF4F2F
:104F20000C946F39BE016F5F7F4F812F0E94030F7A
:104F3000BECFCE0101960E94B62EDBCFCE010196E8
:104F40000E94A82FD6CFCE0101960E943832D1CF31
:104F5000CE0101960E945C31CCCFCE0101960E9419
:104F6000B230C7CFCE0101960E94762DC2CFCE01BE
:104F700001960E946833BDCF1F93CF93DF93CDB7C7
:104F8000DEB72F970FB6F894DEBF0FBECDBF0E94DD
:104F9000A72C10E007C0CE0101960E9463331F5F6B
:104FA0001C30D9F0BE016F5F7F4F812F0E94B90E78
:104FB0008111F5CF6C856F73862F90E08D30910550
:104FC00050F7FC01E35AFF4F0C946F39CE01019664
:104FD0000E947E2F1F5F1C3029F70E94A3292F9665
:104FE0000FB6F894DEBF0FBECDBFDF91CF911F91FA
:104FF0000895CE0101960E949B30D1CFCE0101963B
:105000000E94D532CCCFCE0101960E940F32C7CF7D
:10501000CE0101960E941B31C2CFCE0101960E94A3
:10502000832EBDCFCE0101960E948833B8CFCF9397
:10503000DF93EC01FC01389624913197449131972C
:105040006491329784913196349190E0932B0E9431
:10505000951BFE013296649131969491FE018491E4
:105060003196E49170E0792B90E041E09E2B0E9414
:105070001527FE013996649181E40E94C225FE0144
:105080003A96E491E0932A022B96D093E801C093DC
:10509000E701DF91CF910C943A27FF920F931F9372
:1050A000CF93DF930091E7011091E80180E0F12CAC
:1050B000F801C4913196E491D0E0DE2B0E5F1F4FD2
:1050C000AE01506C6D2F60746F290E941F0EF39417
:1050D000D7FFEECFDF91CF911F910F91FF900895F1
:1050E000E8EBF2E01082369683E0E030F807D1F783
:1050F0000895CF93DF93EC01A8EBB2E0E0E0F0E09D
:105100009C91992341F031961696EC30F105C1F748
:10511000DF91CF910895CF01880F991FE80FF91FF4
:10512000EE0FFF1FDF01A854BD4F8FE38C93119644
:105130004C93119712962C93AB01BE01CF0185546D
:105140009D4FDF91CF910C94050D90E0FC01EE0F87
:10515000FF1FE80FF91FEE0FFF1FE854FD4F80817E
:10516000681720F4861B806C808308951082089550
:105170007F928F929F92AF92BF92CF92DF92EF92E7
:10518000FF920F931F93CF93DF93CDB7DEB72B978B
:105190000FB6F894DEBF0FBECDBF8091E9018F5FDF
:1051A0008093E90108EB12E069EBE62E62E0F62E4F
:1051B0007AEBC72E72E0D72E74C090831D821E82B8
:1051C000F70180818F83F60181915F0188871B86BB
:1051D000AE014D5F5F4FBE016F5F7F4FCF010E94F9
:1051E0001D0DCE0101960E94FA1E4B815C816981E2
:1051F0007A81C5010E94050D898587FD7BC08823C2
:1052000009F483C0859585958F832A8527FD67C01E
:10521000222309F47CC02595259528879091E901E2
:10522000392F3F7029F03B8531FF07C0937029F477
:1052300018160CF06EC081508F83F7018083F60141
:105240002083A980BA80B694A794B694A794B69404
:10525000A7948B809C809694879496948794969438
:105260008794B401C5010E949E0C782EB4016F5F33
:105270007F4FC5010E949E0C90EB970D923000F17C
:1052800080558230E8F00A5F1F4FF6E0EF0EF11C08
:1052900086E0C80ED11CE2E0CE16E3E0DE0609F49B
:1052A0003EC0F8018081982F9F7369F39FEF980F9C
:1052B000292F207C09F481CF8154F80180837ECF8F
:1052C000B401C5010E94560C0E94CF1B8AE090E0F9
:1052D0000E94181460E481E00E948D33D4CF3327FC
:1052E00021950CF430953595279535952795219581
:1052F000288794CF992781950CF49095959587955B
:105300009595879581958F8380CF8F817ECF2885D6
:1053100085CF882309F491CF8F5F8F838ECF2B9613
:105320000FB6F894DEBF0FBECDBFDF91CF911F91B6
:105330000F91FF90EF90DF90CF90BF90AF909F9034
:105340008F907F9008950F931F93CF93DF93CDB7E6
:10535000DEB72D970FB6F894DEBF0FBECDBF0BEBB7
:1053600012E007C00A5F1F4F83E00330180709F4FB
:1053700045C0F80133972081322F3F7399F331965E
:1053800080818F83319680818887AE014D5F5F4F2A
:10539000BE016F5F7F4FC8012C873D870E941D0DA6
:1053A0008F812C853D8587FD38C040E5888587FD48
:1053B00030C09F81E92F092E000CFF0B682F082EAB
:1053C000000C770BDB011296AE17BF0714F16F5F6D
:1053D0007F4F6E177F072CF53F3150F568EF26950C
:1053E0002170622B20E5CE0101960E94A60D0A5F76
:1053F0001F4F83E00330180709F0BBCF2D960FB67F
:10540000F894DEBF0FBECDBFDF91CF911F910F91FA
:1054100008953F3118F366EFE2CF81958F8341E520
:10542000C5CF8595891734F43F3168F06EEFD7CF3B
:105430006AEFD5CF3F3148F0622F647070E0769507
:105440006795606FCCCF6CEFCACF64EFC8CF0F9376
:10545000403178F0242F247030E036952795206F66
:1054600046954170422B00E520E50E94B20D0F9158
:10547000089524EFF5CFEAEEF1E01082369682E04F
:10548000EA31F807D1F708950F93CF93DF93EC013A
:10549000AAEEB1E0E0E0F0E09C91992349F031966A
:1054A0001696E830F105C1F7DF91CF910F9108957D
:1054B000CF01880F991FE80FF91FCF01880F991F9F
:1054C000DC01A651BE4F0C9311964C931197129686
:1054D0002C93AB01BE0183519E4FDF91CF910F9171
:1054E0000C94050D3F924F925F926F927F928F9234
:1054F0009F92AF92BF92CF92DF92EF92FF920F9363
:105500001F93CF93DF93CDB7DEB72C970FB6F894E8
:10551000DEBF0FBECDBFA090B1028090B2028091DD
:105520001A028F5F80931A020AEE11E08BEEC82EEA
:1055300081E0D82E9CEEE92E91E0F92EB12C912C31
:105540000EC00A5F1F4FF6E0CF0ED11C86E0E80EBA
:10555000F11CECE1EE16E2E0FE0609F468C0F80189
:105560005080552071F31D821E82F60180818F8349
:10557000F701808188871B86AE014D5F5F4FBE01BA
:105580006F5F7F4F3801F3E06F0E711CC3010E9403
:105590001D0DCE0101960E94FA1E4B815C8169812E
:1055A0007A81C3010E94050D29813A818091AD0263
:1055B0009091AE02A501420F531F4817590790F072
:1055C0008A0D9B1D8217930768F02B813C81809187
:1055D000AF029091B002A401420F531F4817590720
:1055E00008F0CCC050E09F81392F4090B302491A97
:1055F0008885482F6090B402681A342C331C3324F9
:10560000331C732C71947424730C67FC83C0761460
:1056100008F4762C252D207C203849F1203C39F1E6
:105620002034E9F0F6019083F70180838ACF2C962D
:105630000FB6F894DEBF0FBECDBFDF91CF911F91A3
:105640000F91FF90EF90DF90CF90BF90AF909F9021
:105650008F907F906F905F904F903F900895511181
:105660001EC12B8521FF90C0F8011082DBCF5111A4
:1056700058C0F52DF0735F2E80911A02582F5F707D
:1056800009F4FBC05B8551FDF4C0998597FDAFC05F
:10569000592F5695350F3F833A8537FDB0C0532FAC
:1056A0005695450F48879111AFC0311105C18370E0
:1056B00009F4BCC08A8587FDB9C05F81952FF801C8
:1056C0008081282F277097FDCBC0992309F4FBC058
:1056D00030911A02913009F4FFC0337009F42F5F42
:1056E0002770887F822BF8018083552009F457C0EA
:1056F0008051F80180839111CFC08885811108C045
:105700009B8591FF05C090911A02937009F4EEC039
:10571000952F46C0262D2195721608F07BCF722E4C
:1057200079CF852D8073582E09F0A6CFE1E0E715DB
:1057300008F0A2CF2C870E943A102C85682F203CBD
:1057400009F4F1C063707694670D81E82C870E949C
:10575000C225F8018081806380832C855F813110B0
:10576000EBC014140CF45F5F67FCE1C0662009F421
:10577000EAC048854F5F952F352F7ECF51E08217C5
:10578000930708F030CF2ECF20911A022F7009F026
:1057900049CF19160CF0C2C0915044CF9F81888523
:1057A00049815A812091AD023091AE02BA01605414
:1057B0007F4F6217730708F457CF20543F4F2417C9
:1057C000350708F451CF4B815C812091AF023091B5
:1057D000B002BA0160547F4F6217730708F444CFD8
:1057E00020543F4F2417350708F01CCF3DCF892F99
:1057F00081958695381B3F833A8537FF72C0832F8A
:1058000081958695481B4887203C09F45AC081E061
:105810009E5F953018F43E5F353008F0880F0E9487
:105820000D1C80911A02837009F044CF8B8581FF93
:1058300044CF6B817C816F5F7F4F89819A81029613
:105840000E94640D882309F45BC05F8191E0950F8D
:10585000592F9F83F8018081282F277097FF35CF1C
:1058600030911A029F3F71F4377009F039CF2150FF
:1058700037CF582F537009F008CF19163CF53FEF7A
:10588000390F03CF337009F421502770887F822BA2
:10589000F801808351102CCF952F888581CF0E94ED
:1058A0003A10817062E0680F81E80E94C225F80119
:1058B00010829F818885B6CE203C09F0A8CF82E077
:1058C000AACF82E0A5CF511013CF17CF992309F4A7
:1058D000DCCE31E0390FD9CE377009F001CF2F5F20
:1058E000FFCE832F8695480F48878ECF0E943A10AF
:1058F00087709927892B09F051CF9F818885B4CE75
:105900006B817C816F5F7F4F89819A8102970E94B2
:10591000640D5F81811112C0952FD1CE992309F4B6
:1059200081CE9F5F7FCE6770770C670D0ECF488565
:105930004150952F352FA0CE515016CF9FEF950F88
:10594000592F9F83BCCE952F352F488595CEEF924A
:10595000FF920F931F93CF93DF93CDB7DEB72B97B3
:105960000FB6F894DEBF0FBECDBF0DEE11E0EE24F2
:10597000E39406C00A5F1F4F82E00D31180761F102
:10598000F8013397F080FF20A9F3319680818F834F
:10599000319680818887AE014D5F5F4FBE016F5F9A
:1059A0007F4FC8010E941D0D8F8187FD3EC040E9D9
:1059B0008F2D807C803401F18038D9F46F2D677091
:1059C000605220E6CE0101960E94A60D0A5F1F4F8D
:1059D00082E00D311807A1F62B960FB6F894DEBFC2
:1059E0000FBECDBFDF91CF911F910F91FF90EF9030
:1059F000089520E260E8E6CF4E25888587FD19C02E
:105A0000882391F12F81922F9595981754F5082EA0
:105A1000000C990B622F660F770B8617970754F1CE
:105A200021112EC020E268E8CDCF81958F8341E916
:105A3000BFCF992781950CF490955F81252F2595EF
:105A4000022E000C330B281739078CF4252F220F58
:105A5000330B821793078CF020E2552359F261E84B
:105A6000B1CF20E265E8AECF20E264E8ABCF20E220
:105A700063E8A8CF20E266E8A5CF20E262E8A2CFE3
:105A800020E267E89FCF1F93CF93DF93EC01142FA1
:105A90008E8118165CF441E520E2CE010E94A60D2D
:105AA00017FD16C0DF91CF911F910895811109C094
:105AB0002091AD023091AE028881998182179307BF
:105AC00050F340E520E2CE010E94A60D17FFEACF79
:105AD000412F40954F716A817B816850710988819F
