:100000000C94E8000C942C010C942C010C942C0101
:100010000C942C010C942C010C942C010C942C01AC
:100020000C942C010C942C010C942C010C942C019C
:100030000C942C010C941B0B0C94F10A0C942C01C5
:100040000C942C010C942C010C942C010C942C017C
:100050000C942C010C942C010C942C010C942C016C
:100060000C942C010C942C010C942C010C942C015C
:10007000092409240924E323F923AE231E24CD23D4
:10008000842484248424992463248E24FB24CD2373
:100090005026E62506260B2601265C25E125EB25C4
:1000A0007D28782873286E2869282A282A282A2853
:1000B0002A282A282A2864285F285A2855282A28E6
:1000C0004F284F284F284F284F284F28E728E2284D
:1000D000DD28D828D3289128912891289128912883
:1000E0009128CE28C928C428BF289128AC28AC283C
:1000F000AC28AC28AC28AC28143AD539DE39CF3935
:10010000D539BA39D5395A550120010100380800CE
:1001100000000000000000000000000000000000DF
:100120000000000000008100450027FF2AD22B7D3F
:10013000210C22FB850084008907881B8B008A47DD
:1001400081096F06444247004501B083B300B10105
:1001500024B9255754545455545454565652535256
:1001600052FA52565653525252FB57565652525208
:100170005352585654545454545455560807076E05
:10018000076D6D080708086D086D6D076E07086D2F
:10019000070708080003030403040403040403031B
:1001A0000304030403030403030304040300040916
:1001B0000A0A0A0A0A0A0A0A0A0A0A0A0A0A0A0A9F
:1001C0000A0A0A0A0B04032B1A2028273F3F3F3F45
:1001D00011241FBECFEFD0E1DEBFCDBF23E0A0E0F2
:1001E000B1E001C01D92A030B207E1F714BE0FB616
:1001F000F894A895809160008861809360001092C7
:1002000060000FBE0E94E518811102C00E94C31851
:10021000F8940E94D71910920F0181E080930E018B
:1002200080EE8093130184E1809312010E94CC1B25
:1002300086E291E0FC0125913491F901FF2730839A
:10024000029621E084359207A9F778940E94CB1B8F
:100250000E94D71B0C94713D0C940000E1E5F0E185
:10026000B0910C01B03059F01B2EB191BF70A1912B
:10027000019009F00C921A94C1F710920C010895A4
:10028000112410920C0108959C2DDF92EF92FF92A1
:100290000F931F93CF93DF931124022FD0900B0164
:1002A000C0900C01742F372F3695369536953A95B8
:1002B000E0EAFFE0E30FF11D0080600D262F269598
:1002C000269526952A9577706770293168F538311B
:1002D00058F5402F407C21F046FD405D47FF4056D9
:1002E000B3D016F504FF12C0E70EF11CF70105FFAD
:1002F00002C0108101C0149162FD129561FB16F4D9
:10030000110F110F60FD110F17FD0EC0770F770F42
:1003100030EF8F70669510F032958295760FC70F8B
:1003200008800322082A0882DF91CF911F910F9144
:10033000FF90EF90DF90C92E08950F93002701C022
:100340000F93BF924F925F926F927F928F929F9284
:10035000CF92DF92EF92FF921F93CF93DF93B02E55
:10036000022F1124D0900B01C0900C01E9E1F8E1BB
:100370004F01742F572E56945694569477706F935E
:100380007F9378505914C8F4783FB9F0E0EAFFE061
:10039000E50DF11D0080600D462E4694469446946E
:1003A00067703B016850683F19F0481408F431D079
:1003B0004A94B301481408F42CD07F916F915A9459
:1003C0005914B8F4E0EAFFE0E50DF11D0080600D7E
:1003D000462E46944694469467703B016850683FA9
:1003E00019F0481408F415D04A94B301481408F4DD
:1003F00010D0DF91CF911F91FF90EF90DF90CF90C1
:100400009F908F907F906F905F904F90BF900F91D3
:1004100008954FE067FF461B67FD460F77FF471BB8
:1004200077FD470F04FD4150502F52955695567059
:10043000450F465047FD44274295920105D00EF4E2
:1004400077D103FB04F90895C1E5D0E104FB03F97A
:10045000C11019C0E0910101F09102011091000159
:1004600011FF02C0108101C01491FF27E12F17FF77
:1004700004C0EC54F04F108103C0EC5FF4481491B9
:10048000185010930D0159E1359FD0011124A85443
:10049000B44FA20FB11D2C91203C88F12F732C1565
:1004A00068F5CEF4E0ECFFE0E20FF11D10811E3F95
:1004B00038F458E0103E38F0E0E0F9EF006206C092
:1004C00071F50F7E08C0E0E0F5E90F7D159FE00DA6
:1004D000F11D11247F01022E000C020EC00DD11D52
:1004E0003881340F08F4306F388350E2259FE001E3
:1004F000112400900D01D00D68940895206CE091B6
:100500000101F091020110910001E30FF11D11FFB3
:1005100008C0108107C0EF54F04F308110C0E8943C
:1005200008951491FF27E22FE295E695E695E37092
:10053000E10FF11D17FDEFCFEF5FF448349150E26A
:100540002502310D203C50F00394E02CF32EE22FD5
:10055000EF73FF27E054F04F10810DC0E02CF32E15
:1005600058E0E59E112DF59EF0011124E10FF11DDB
:10057000E85AF743149111242EF41E3F18F079F62F
:100580000F7EE894CD1054C0FD2D3FEFEF2FF150BA
:10059000F87FCF0FD11DCF0FD11DCF0FD11DE77029
:1005A00061F0E23068F139F1E43000F1D1F0E63089
:1005B00098F069F007C06897E85F0D88031610F49B
:1005C000302DE7E00A88031610F4302DE6E00F84A2
:1005D000031610F4302DE5E00C84031610F4302DD2
:1005E000E4E00984031610F4302DE3E00E800316D6
:1005F00010F4302DE2E00B80031610F4302DE1E012
:100600000880031610F4302DE0E0F850A0F6307F9B
:10061000431708F484CF3E2FEE0FE30FCE0FD11D0A
:10062000F881E9810A80FF700082FF27F88307C004
:100630003C2D0C2C000C0C0CC00DD11DC3945B2F59
:100640005F70542B2A83A9835883C0920C0150E217
:10065000359FE001112400900D01D00DF701E0FF5E
:100660000DC0EE7F58E0019009920190099201902F
:100670000992019009925A95B1F740C005900992EC
:1006800005900992059009920590099205900992AA
:10069000059009920590099205900992059009929A
:1006A000059009920590099205900992059009928A
:1006B000059009920590099205900992059009927A
:1006C000059009920590099205900992059009926A
:1006D000059009920590099205900992059009925A
:1006E000059009920590099205900992059009924A
:1006F000059009920590099205900992E0ECFFE0BF
:10070000E30FF11D1083A097306C3C937EF458E00A
:10071000103E20F0E0E0F9EF006203C0E0E0F5E910
:100720000F7D159FE00DF11D11247F016894089540
:10073000CF928F939F9377FB16F0E70EF11C26F074
:10074000072E000C000CC00D02FF07C0ACEFBFEF7E
:10075000845E9F4F5EF4572F05C0A4E0B0E036F4EE
:10076000572F5195550F550F850F9B1F48E0C42EED
:1007700016F0C71A0EF4C70E695F4BEE53E000FD8A
:10078000615F460F511D0A0101FB04FD11C01127D5
:1007900005C0CA94D9F08A0F9B1FCC5F4427552708
:1007A000BA01F0010994CA9489F08A0F9B1FCC5FAB
:1007B00044275527BA01F70105FD04C015917F01B3
:1007C000F001099411917F01F00109949F918F919B
:1007D000CF9011240895A8C01CC022C02AC032C0E6
:1007E0003CC046C051C05CC067C070C079C080C00A
:1007F00087C016C38BC0A8C0BFC0DBC009C133C14E
:1008000064C1ABC1FAC140C271C29BC2C9C2E5C2D8
:10081000FAC2FC01339616F045919AC0419198C0F6
:10082000FC0132961EF045915591ACC04191519119
:10083000A9C0FC0132961EF045915591C0C041916E
:100840005191BDC0FC01319626F0459155916591BD
:10085000E7C0419151916191E3C0FC01319626F0CE
:1008600045915591659107C141915191619103C1A4
:10087000FC012EF0459155916591759130C14191E2
:100880005191619171912BC1FC012EF045915591CF
:10089000659175916CC1419151916191719167C15F
:1008A000FC012EF04591559165917591B0C1419132
:1008B000519161917191ABC1FC0126F05591659107
:1008C0007591EBC1519161917191E7C1FC0126F0E5
:1008D00055916591759113C25191619171910FC2BA
:1008E000FC011EF06591759133C26191719130C226
:1008F000FC011EF0659175915AC26191719157C2C8
:10090000FC0116F075916EC271916CC217FDC2C2E6
:10091000FC0116F4E08101C0E491E295EF70FCE780
:10092000EB0D4491429592C217FDB4C2FC0133967F
:1009300016F4E08101C0E491EF70FCE7EB0D449107
:10094000429584C2419103C0FC01EEF3459142956A
:10095000FCE7E42FE295EF70EB0D34913295E42F34
:10096000EF70EB0D4491432B17FD4F7016FD407F48
:100970006DC25191419104C0FC01E6F3559145913E
:1009800042955295FCE7E42FEF70EB0D44914295B0
:10099000E52FE295EF70EB0D3491432BE52FEF70CF
:1009A000EB0D54915295107E41F550C251914191F9
:1009B00004C0FC01E6F35591459142955295FCE740
:1009C000E42FE295EF70EB0D34913295E42FEF7048
:1009D000EB0D4491432BE52FE295EF70EB0D349135
:1009E0003295E52FEF70EB0D5491532B107F19F4D6
:1009F0002DC213FD6F7014FD507F17FD4F7016FD53
:100A0000407F15FD5F7022C261915191419105C0F7
:100A1000FC01DEF3659155914591429552956295A1
:100A2000FCE7E42FEF70EB0D44914295E52FE29542
:100A3000EF70EB0D3491432BE52FEF70EB0D5491DC
:100A40005295E62FE295EF70EB0D3491532BE62F84
:100A5000EF70EB0D64916295187F59F6F7C16191C3
:100A60005191419105C0FC01DEF36591559145918D
:100A7000429552956295FCE7E42FE295EF70EB0DFD
:100A800034913295E42FEF70EB0D4491432BE52F19
:100A9000E295EF70EB0D34913295E52FEF70EB0D91
:100AA0005491532BE62FE295EF70EB0D3491329574
:100AB000E62FEF70EB0D6491632B1C7FE1F5C6C14F
:100AC000719161915191419106C0FC01D6F37591EC
:100AD0006591559145914295529562957295FCE7C5
:100AE000E42FEF70EB0D44914295E52FE295EF7006
:100AF000EB0D3491432BE52FEF70EB0D5491529594
:100B0000E62FE295EF70EB0D3491532BE62FEF704B
:100B1000EB0D64916295E72FE295EF70EB0D349148
:100B2000632BE72FEF70EB0D749172951E7F09F424
:100B30008DC111FD7F7017FD4F7016FD407F15FDB3
:100B40005F7014FD507F13FD6F7012FD607F7EC1DA
:100B5000719161915191419106C0FC01D6F375915B
:100B60006591559145914295529562957295FCE734
:100B7000E42FE295EF70EB0D34913295E42FEF7096
:100B8000EB0D4491432BE52FE295EF70EB0D349183
:100B90003295E52FEF70EB0D5491532BE62FE29534
:100BA000EF70EB0D34913295E62FEF70EB0D649101
:100BB000632BE72FE295EF70EB0D34913295E72F21
:100BC000EF70EB0D7491732B1F7F09F43FC117FD7C
:100BD0004F7016FD407F15FD5F7014FD507F13FDB3
:100BE0006F7012FD607F11FD7F7010FD707F2EC150
:100BF000719161915191419106C0FC01D6F37591BB
:100C00006591559145914295529562957295FCE793
:100C1000E72FE295EF70EB0D7491E62FEF70EB0D7F
:100C200034913295732BE62FE295EF70EB0D6491C2
:100C3000E52FEF70EB0D34913295632BE52FE295A4
:100C4000EF70EB0D5491E42FEF70EB0D3491329572
:100C5000532BE42FE295EF70EB0D44911F7709F4CD
:100C6000F5C016FD407F15FD5F7014FD507F13FD2C
:100C70006F7012FD607F11FD7F7010FD707FE6C008
:100C800071916191519106C0FC013196D6F3759135
:100C900065915591529562957295FCE7E52FE29525
:100CA000EF70EB0D34913295E52FEF70EB0D549111
:100CB000532BE62FE295EF70EB0D34913295E62F32
:100CC000EF70EB0D6491632BE72FE295EF70EB0D66
:100CD00034913295E72FEF70EB0D7491732B1F73E6
:100CE00011F6BDC071916191519106C0FC01319620
:100CF000D6F3759165915591529562957295FCE781
:100D0000E72FE295EF70EB0D7491E62FEF70EB0D8E
:100D100034913295732BE62FE295EF70EB0D6491D1
:100D2000E52FEF70EB0D34913295632BE52FE295B3
:100D3000EF70EB0D54911F7129F591C07191619184
:100D4000A9CFFC013296DEF375916591629572959B
:100D5000FCE7E62FE295EF70EB0D34913295E62F2C
:100D6000EF70EB0D6491632BE72FE295EF70EB0DC5
:100D700034913295E72FEF70EB0D7491732B1F7048
:100D800019F476C014FD507F13FD6F7012FD607F63
:100D900011FD7F7010FD707F62C07191619105C07F
:100DA000FC013296DEF37591659162957295FCE7D0
:100DB000E72FE295EF70EB0D7491E62FEF70EB0DDE
:100DC00034913295732BE62FE295EF70EB0D649121
:100DD0001770E1F64DC0719104C0FC013396E6F343
:100DE00075917295FCE7E72FE295EF70EB0D34916A
:100DF0003295E72FEF70EB0D7491732B11FD7F701F
:100E000010FD707F3EC010FD45C0FC01339616F406
:100E1000E08101C0E491EF70FCE7EB0D749131C00B
:100E200010FD38C0FC0116F4E08101C0E491E295A8
:100E3000EF70FCE7EB0D749124C0513090F46130F9
:100E4000C8F4713000F504FFA4CCADCC4130A8F358
:100E500025F1403118F42881207F422B48835130FE
:100E600070F315F1503118F42981207F522B5983EA
:100E7000613038F305F1603118F42A81207F622B4C
:100E80006A83713000F3F5F0703118F42B81207F04
:100E9000722B7B8304FF7DCC86CC28812F70422B64
:100EA0004883513060F2F5F629812F70522B598317
:100EB000613038F205F72A812F70622B6A83713016
:100EC00010F215F72B812F70722B7B8304FF61CCFE
:100ED0006ACC99E1969FF0011124E80FF11DE854C6
:100EE000F44F40830895AB2DC49188B812C0FA2DF9
:100EF000C49158B8E70F0490EF9168B8E70F1490C9
:100F00003730000078B879F7CF91B880C29588B8AB
:100F1000A881982F1C012C013C0198B807FC2B2CB0
:100F200006FC3B2C05FC4B2C28B804FC5B2C03FC7A
:100F30006B2C02FC7B2C38B8C4914C0117FC8A2E18
:100F400048B816FC9A2EEF91E70F1C0158B8049090
:100F50002C0115FC2A2E68B814FC3A2E13FC4A2EDC
:100F600012FC5A2E78B8EF91E70F149088B8C4910C
:100F7000C49198B8373099F5CF91B88028B8C29508
:100F8000A8813C0107FC6B2C38B84C011C0106FC05
:100F90007B2C05FC8B2C48B8C491C49158B800C078
:100FA00028512C0104FC9B2C68B803FC2B2C02FC60
:100FB0003B2C17FC4A2E78B83C01FC0116FC5A2E3B
:100FC00015FC6A2E88B814FC7A2E13FCEA2F12FC4A
:100FD000FA2F98B84F0190E208F480C05AC0C4912B
:100FE00028B8AB2DCECFF50FED0D48B8C191A1912A
:100FF000288058B84C90C295A295388068B85C900B
:10100000C191A19178B804905FC0EF700E2E48B8DE
:10101000E295E029CE2FAE2F288058B8388048803E
:10102000588068B800C000C0EDCF38B8F001F3FDBB
:10103000DACFFC0D3AC049F3363018F0000048B85A
:1010400056CF48B80000E70FFA2D982F1C010C016D
:1010500058B8343011F0A08101C0A49168B82C01B7
:101060002850A7FD2B2CA6FD3B2C78B8A5FD4B2CBA
:10107000A4FD5B2C3C0190E288B8A3FD6B2CA2FD83
:101080007B2CA1FD0B2C98B8A0FD1B2C400130F14E
:1010900000C028B8EF91E90240F2313038B858F674
:1010A000F0010A2CF3FD0B2CF00D48B8ED0DC591A5
:1010B000288058B8C2953880A59168B84C90A29500
:1010C000C59178B85C90A591285088B868808C90BC
:1010D000C295A29598B878809C90D8F68FEF28B8E2
:1010E0009EE08DBF9EBF239549F1000038B8049063
:1010F000239521F1000048B804902395F9F00000F1
:1011000058B804902395D1F0000068B80490239556
:10111000A9F0000078B80490239581F0000088B809
:101120000490239559F0000098B80490222706C037
:1011300088E242D2685028F0FBCFE5C128B9685058
:10114000B8F7609111016017C1F3CC2790900001AE
:10115000E0910701F091080191919017A1F411918C
:101160004191E0930701F0930801E0910101F091B2
:101170000201812F869586958695E80FFC1F91FECA
:101180000FC0E0810EC0329740810000EECFE055E5
:10119000F04F00C06191A190B190C19051910BC0EE
:1011A000E491FF27E7FDF3CFE050F5486591A59066
:1011B000B590C5905591E0910301F0910401880F1D
:1011C000E80FFC1F92FE04C0A191B191000002C083
:1011D000A591B59194FE14C0E12FFEE08080899224
:1011E0008992899289928992899289928992899227
:1011F000899289928992899289928992899202C070
:1012000089E1DAD111972D01362F762F3770687169
:10121000707E289820EC4770E2E00E94CE0B000020
:10122000603031F432FD0FC031FF0AC000C0A9C0E8
:10123000C62F86E2C1D12051C850A1F30000F9CFDA
:10124000B12FB77005C0B12FB770AB0ECB2DB880E2
:10125000C295BB0FBB0FDB2E90E2BD2F222403955E
:101260001395403029F188814DBE5EBEEF91E902B1
:1012700050F1313068F5F0010A2CF3FD0B2CF00D24
:10128000ED0DC591A5914C90C295A29538805C90CA
:10129000C591A59168808C90C295A29578809C900C
:1012A000241B473019F53324210131018824F2CE63
:1012B00089E182D188814DBE5EBE33242101310196
:1012C00041012850E7CEF001F3FD32C0FC0DD8CF2C
:1012D000000009F03AC0EF700E2EE295E029CE2F03
:1012E000AE2F38804880588004902DC0463029F4B5
:1012F0003324210131010490DACF453029F433241D
:101300002101662400C0F7CF443021F433242101A9
:101310000490F8CF433021F43324442400C0F8CFA4
:10132000423019F433240490F9CF049000C0FBCF6D
:10133000F50FED0DC191A1914C90C295A295388009
:101340005C90C191A1910490A5CFE70FFA2D382EA2
:10135000482E582E32014201343011F0008001C075
:10136000049006FC3B2C05FC4B2C04FC5B2C03FC82
:101370006B2C02FC7B2C01FC8B2C00FC9B2C00C0FA
:101380008FCF8EE419D1812F877009F0873011F04B
:10139000000002C076FF0FC0CA2D288016D128B8E1
:1013A0008CE215D18A95E9F700C06AC0CA2D288061
:1013B000519613D10FC08030C9F71196CA2DC07F46
:1013C000C2952224FD01EC0FF21D75FF02C02080A2
:1013D00001C0249028B8FD0175FF12C00190119042
:1013E00021903190419051906190719081909190B5
:1013F000A190B190C190D19041915191E6D010C08F
:101400000590159025903590459055906590759074
:1014100085909590A590B590C590D59045915591A2
:10142000CC27802DB8D0C395812DB5D0C395822D02
:10143000B2D0C395832DAFD0C395842DACD0C395C6
:10144000852DA9D0C395862DA6D0C395872DA3D071
:10145000C395882DA0D0C395892D9DD0C3958A2D85
:101460009AD0C3958B2D97D0C3958C2D94D0C395CE
:101470008D2D91D0C395842F8ED0C395852F8BD081
:1014800082E1A5D08A95E9F700C000C003951395C5
:10149000205929F081E690D02051E1F700C04ECECE
:1014A0003091000137FF59C08DB79EB78093090175
:1014B00090930A018FEF9EE08DBF9EBF8FE57CD099
:1014C000DFE0E0EBFBE000C0CC2733FF02C08191FE
:1014D00001C0859160D0C3958BE16ED033FF02C00F
:1014E000819101C0859157D0C39579F70027E0E03D
:1014F000F0E100C011913196E0930701F0930801EB
:1015000080E15AD01ECE84E157D080E455D00090BF
:101510000E01001A00920E0136D1E0910F0142E057
:10152000E427E160E0930F01E6E0E093360080916C
:10153000050190910601182E192A39F480910901AC
:1015400090910A018DBF9EBF08956FE97FE06DBF46
:101550007EBF11248F939F93189583E538D08A9589
:10156000E9F734D0002770911101701741F003950D
:101570000AD182E62CD08A95E9F72CD0F4CF03D19A
:10158000E0910F0142E0E427E160E0930F01E6E023
:10159000E093360008958993899389938993899379
:1015A000899389938993899389938993899389935B
:1015B0008993899388830895869500F0869500F035
:1015C00000F08A950000E9F708950000000000008F
:1015D00000000000000000000000089599278827FF
:1015E0000895EABDE0918400E2FD04C0E1FD02C07F
:1015F000000000C0E0FF00C0F09BE491289AEAB52B
:10160000F4991895F09B09C0F39B11C0E0E7EEBB7D
:10161000E3E0E0938B00E7E006C0E1E7EEBBE0E04B
:10162000E0938B00E7E4E0938A00EAB51895E2EFD7
:10163000EEBBEAB51895EABDE0918400E2FD04C076
:10164000E1FD02C0000000C0E0FF00C0F2998BC0C5
:10165000EFB7EBBDFF9328980F921F929FD0B49ADB
:10166000F19B70C0E0910E01EA95E0930E01F9F054
:10167000F0911001EF1B41F080F51F900F90FF914A
:10168000EBB5EFBFEAB51895F8E0FA95F1F7000071
:10169000E2E0FF2701900F92EE31E1F70E94500A3D
:1016A000EEE1FF27EA950F900082E1F711C0EDEF20
:1016B000E0930E01E9EFEEBBE0911201E195E450F9
:1016C000E0931001E0911301E09311011F900F903E
:1016D000FF91EBB5EFBFEAB51895F091B00BF7FDB0
:1016E00005C0E131A0F0129A09F412981F900F90F2
:1016F000FF91EBB5EFBFEAB5F79B1895E7E0E093F4
:101700008900EBE1E0938800F798EAB51895139803
:10171000009016011090170100998894179407946F
:101720000092160110921701E13021F40092140189
:10173000109215011F900F90FF91EBB5EFBFEAB526
:10174000139A1895F29A1F900F90FF91EBB5EFBF87
:10175000EAB5F79B1895E3E0E0938900EDE8E093A4
:101760008800EAB51895F69906C0EAB52898F59963
:1017700007C0F49818952898EAB5F698F298189545
:10178000F598F29818952898E2E000C00E94CE0BD8
:10179000E0910E01EA95E0930E0108950F931F93D7
:1017A0002F9320911801239509F42A95209318016D
:1017B00010911C01E0911D01F0911E0100911A0190
:1017C000100F00911B01E01F0491E0931D01109385
:1017D0001C0100901901029E112D219500901F01FE
:1017E000029E110D0103000810912301E0912401D4
:1017F000F091250100912101100F00912201E01FBD
:10180000F099289A0491E093240110932301F001A8
:1018100000902601029E112D219500902001029E2C
:10182000110D010300081F0E0E1E10912A01E091F8
:101830002B01F0912C0100912801100F009129013A
:10184000E01F0491E0932B0110932A01F001009016
:101850002701029E112D219500902D01029E110D50
:10186000010300081F0E0E1E10913101E09132019C
:10187000F0913301F199289A00912F01100F0091F6
:101880003001E01F0491E093320110933101F00127
:1018900000903401029E112D219500902E01029E90
:1018A000110D010300081F0E0E1E10913801E0916A
:1018B0003901F0913A0100913601100F0091370182
:1018C000E01F0491E093390110933801F00100907A
:1018D0003501029E112D219500903B01029E110DB4
:1018E00001030008F10DE01D2F911F910F91F05899
:1018F000EF4F1AF4F0E0000003C0E03009F0FFEF12
:10190000F093B30008959FEF9093400190934101AD
:101910000895AA27B3E01D92A030E9F7F4CF969579
:1019200087959695879576956795769567950090B6
:10193000FF100694609D1124F00191E0869508F057
:10194000990F869510F0990F990F869508F092954A
:10195000E80FF3E00080092A0082D5CF969587959D
:101960009695879576956795769567950090FF1083
:101970000694609D1124F00191E0869508F0990F7E
:10198000869510F0990F990F869508F0929590958D
:10199000E80FF3E0008009220082B5CF8093B40BFA
:1019A0009093B50B6093FF104093B30BB2CF282FE9
:1019B000237060FD246061FD286009D08295F82FB6
:1019C000FF70807FE22FE80FFA5684910895969574
:1019D0008795969591F4879576956795769579F4A0
:1019E0006795992730914001381759F4709141015A
:1019F000761739F480914201089583E0089580E0DC
:101A000008958093400160934101382F762F869589
:101A100086957695E091B40BF091B50B5091FF103F
:101A2000851770F50090B30B701560F5759FE00D8C
:101A3000F11DE80FF91F0490432F437060FD4460CF
:101A4000E8E00E9EF001E40FFE5584915695569FF6
:101A50001124F00141E0369508F0440F369510F05E
:101A6000440F440F369508F04295E30FF3E00080F1
:101A7000042219F0E82FFBEA849180934201089533
:101A800083E0FBCF80E0F9CFDC014D935770770FF7
:101A9000770F770F572B5D936D930895DC01FA0153
:101AA0004D9141934D91542F4770473009F44FEFBA
:101AB0005695569556954193FB014D9141935193FF
:101AC00008954D915D91752F5770573009F45FEF70
:101AD0007695769576956D910895A82FB62F969563
:101AE000879596958795969587957695679576953A
:101AF0006795769567950E94D70CE82FFAEA84914E
:101B0000B2FD02C0869586958370813019F490E00D
:101B100081E0089518F490E080E00895B370A695F0
:101B2000A37080FD02C0A195AD5FAB1780F7F3CF26
:101B3000F4ECE82F8491FF5F94910895DB011496F3
:101B4000FCE7E82FE7FBE6F9E0686491762F6F7019
:101B5000660F6D93707F769576957D9308950F93BC
:101B6000022F242F462FDC018D919D916D917D9147
:101B700002D00F910895DC01FB015091A502309134
:101B8000A602851B930B5091A7023091A8025058D2
:101B90003040587F651B730B382F305E392F3F4F15
:101BA000303009F00895362F305E372F3F4F3030F8
:101BB00009F008950F93003209F59F938F937F9357
:101BC0006F934F932F93CD01BF019695879596956F
:101BD0008795969587957695679576956795769589
:101BE00067950E94D70CE82FFAEA849187FD00E3FD
:101BF0002F914F916F917F918F919F91342FAB01D6
:101C0000BC01832F0E94980D0E94EC1B0F91089538
:101C1000EDEAF2E0A9EFB0E18191919180549F4FFC
:101C20008D939D938191919180549F4F8D939D931E
:101C3000ABE5B1E099278CE09C9319968A95E1F782
:101C4000A7ECB1E09FEF80E29D938A95E9F70895B4
:101C50002F923F924F925F922090F9103090FA109D
:101C60004090FB105090FC10FA0160682CE030E0CE
:101C700047E050E01124782F01C07395959197FFAC
:101C800064C0892F8077480F511D405450409F7089
:101C90009295290F311D20583040D101A21BB30B62
:101CA000A058B14050F7C201841B950B8058914059
:101CB00020F7A05C1894BE4F21F4805C18949E4FCE
:101CC000E1F290E8A72FA69508F49695A69510F452
:101CD00096959695A69508F49295BB27A953BE4F65
:101CE0008C91982351F28DE0A4E5B1E017968A9586
:101CF00031F00D909D9107FC9713F8CFBECF8CE08B
:101D000090E0ABE5B1E00C9007FE0DC0199606FE21
:101D1000982F8A95C1F7903031F166FF24C089E091
:101D2000989FA019B1096D937D937F936F930A01DA
:101D3000CD01B9010E94440DA0016F917F91112442
:101D40001D921D921D921D9298CF9F3791F0592F91
:101D500035912591422F407F47602F7022952C604E
:101D60009CCF959195917395959197FDFCCF9F3759
:101D7000C1F79927872F5F904F903F902F9008953C
:101D80008C3048F499E0899FD001A55ABE4F1124A8
:101D90009D9197FD03C081E090E008959F778D911C
:101DA0009C01CD01FB013296AF0134960F010E94D8
:101DB0004E0DF00111247D9171937D9171933396B5
:101DC00031937D9171937D91719321938827992708
:101DD000089590E8A82FA69508F49695A69510F476
:101DE00096959695A69508F49295BB27A953BE4F54
:101DF0000C90909509220C92A3E5B1E09DE011248E
:101E00009A9539F019960C900812FACF11971D92F5
:101E1000F7CF08958C3048F499E0899FD001A55AF6
:101E2000BE4F11249C9197FD01C00895FB011296AD
:101E30002191319141915191CD01B9010A010E9445
:101E4000440DA0011124329671917D9371917D937F
:101E50003396919171917D9371917D9381911997B1
:101E60009068E091F910F091FA10E21BF30BE05842
:101E7000F14060F4E091FB10F091FC10E41BF50BD5
:101E8000E058F14018F49D938D9308951C920895A5
:101E9000EDEAF2E0A9EFB0E12191319120543F4FFA
:101EA0002D933D934191519140545F4F4D935D93DC
:101EB000ABE5B1E09CE0092E1124FA018C9187FF7B
:101EC00013C012960E94610D621B730B60587E4F07
:101ED00048F04E1B5F0B40585E4F20F014960A945A
:101EE00069F7089515971C9219960A9439F7089581
:101EF000DAE2E3EBECF4F5FDFEBEB6756D6C93949F
:101F00009C9DA5A6AEAFB7AEA45B520940E09091F0
:101F1000A7029770BEE0A92FA05DFEE1E0EF9EE072
:101F2000989FE00DF11D8DE0407EC1F41590012CCD
:101F300015900D920D920D920D921D920D921D9283
:101F40000D921D920D921D920D921D921D928A95D9
:101F500071F71D921D921D9211240895562F677CD2
:101F60005873649FB001549F512D41952591322F94
:101F7000277C3873249F060E171E212D277C349F43
:101F8000150E312D3873230F922F2591322F277C78
:101F90003873249F060E171E212D277C349F150EA3
:101FA000312D3873230F9D939D939D939D932D9376
:101FB0009D932D939D932D939D932D939D932D9361
:101FC0002D938A9509F72D932D932D931124089520
:101FD00040E0BBE0A1EB407E49F46DEA80FF60E0A9
:101FE0006D936BE080FF6FEF6D930895962F677C84
:101FF0009873649FB001949F912D419525E880FFCF
:1020000020E0249F060E171E212D277C38E280FF3A
:1020100030E0349F190E312D3873230F2D9323E0B8
:1020200080FF27EC249F600D711D777C38E080FFD6
:1020300038E3349F910D9873970F9D931124089561
:1020400060E0BBE0A1EAFBE7E1EE2FE0607E29F46F
:1020500005900D922A95E1F70895782F877C787383
:10206000869FC001769F712D61954591542F477CC5
:10207000469F080E191E412D477C5873569F170E18
:10208000512D5873450F4D932A9579F711240895D2
:102090008091B60B9091B70B880F991F65E27FE78F
:1020A000861F971F6BED86278093B60B9093B70B17
:1020B0000895000000000000000000000000000083
:1020C00000303233000000000000000030313233B5
:1020D000000000000000303132330000000000003A
:1020E00000000000000000000000000000000000F0
:1020F000000000003032330000000000000000004B
:1021000000000000000000000000000000000000CF
:1021100000303132330000000000000000000000F9
:102120003434353435353435353434353435343567
:102130005D5D5E5D5E5E5D5E5E5D5D5E5D5E5D5EC7
:102140000303040304040304040303040304030457
:102150000C0C0D0C0D0D0C0D0D0C0C0D0C0D0C0DB7
:10216000880F991F880F991F0F931F930091FD10DF
:102170001091FE100F5F1F4F0093FD101093FE1083
:10218000E3E01E9F102D0E9F002D110D080F191F4B
:1021900060517040A8EBBBE052E030E077FD2FC00B
:1021A000E8E02E9F061A170A18F011F011245DC0FE
:1021B000F9E0F01942FF04C0F99FE02DF89F03C039
:1021C000F19FE02DF09F1E0E000C111C000C111C45
:1021D000000C111C012C54D041FF03C040FD06C06F
:1021E0000BC040FD06C0E062F1E237C0E063F1E2FF
:1021F00034C0E064F1E231C0E065F1E22EC046FD9A
:1022000008C0F7E0F61BFF0FF09FE12DF19F0E0EC7
:102210000DC0F9E0F61BF99FE02DF89F1E0E000C93
:10222000111C000C111C000C111C012C29D0F62FC4
:10223000F295F07345FF03C044FD08C0DDCF44FDB7
:1022400008C0E06CEF0FF0E2F01D07C0E06EF0E2B6
:1022500004C0E06EEF0FF0E2F01D04900D92EF5F0E
:102260000DF0E0511A94C9F7599759966F5F7F4F57
:102270005D5F3395383109F091CF1F910F9108952B
:10228000E7E01E2E1020E52FFF27E85FFF4E1082AB
:10229000E32FFF27E056F04F1082E9E11E2E06944F
:1022A00006940694E62FE00DEF70002408950000D8
:1022B000DC01ED91FD912D913D910D909D911124A9
:1022C000A8EBB2E084E0080E9C5FE00DF11D8827CA
:1022D00004C0159683958C30D1F04D914030C9F3F0
:1022E0004034B8F712960E94610DE617F70790F395
:1022F000600D711D600D711DE617F70758F7241763
:10230000350740F3490F511D2417350718F7992752
:102310000895000001010102020203030304040402
:1023200005054040414243434344454647484849E8
:102330004949494A4B4C4D4E4F50505152535455B8
:1023400055565656565758595A5B5C5D5D5E5F5FF1
:102350006061FF27E82F805128F4882745D0EE5D83
:10236000FC4D0BC0E82F805128F488273DD0E85D54
:10237000FC4D03C035D0E25DFC4DE491ED937A95C0
:102380007617D1F07130E9F0FF27E82F805128F45B
:1023900088272AD0EC5CFC4DF0CFE82F805128F440
:1023A000882722D0E65CFC4DE8CF1AD0E05CFC4DDB
:1023B000E4CFE3E6ED937A957130D9F7E2E6ED9359
:1023C0000895FF27E82F805128F488270DD0EA5B75
:1023D000FC4D03C005D0E45BFC4DE491ED93089502
:1023E000E82FEF3008F0EFE0EE5EFC4DE491FF27C0
:1023F0000895A9EAB2E02D913D914D915D91A0E142
:10240000BEE088E08D938AE08D9314968BE08D93E7
:1024100014968CE08D93149680E28D9315968D938F
:102420008DE08D93179689E08D9374E0652F63702E
:1024300061956D5F822F8695A2E1BEE08ADF74E030
:10244000652F6073629561956D5F842F8695A7E116
:10245000BEE07FDF74E0652F6C70669566956195D0
:102460006D5F832F8695ACE1BEE073DF77E060E0BF
:1024700080912A02A8E2BEE06CDF60912802709190
:10248000290240E3A1E2BEE00C94D114E7E09E9F54
:10249000F02D8E9FF10D1E2EE02D90E8F695E7951C
:1024A00008F49695F695E79510F496959695F69519
:1024B000E79508F49295E058FE420590E49188274C
:1024C000F02DF923F195881F969511F490E80E2EC2
:1024D0001A94B1F799270895DC01FB0162E08D9110
:1024E0009927869597958695979581938D91782FC5
:1024F00082958F7096959695982B91938D91982FA4
:10250000990F771F990F771F7F7371938F73819343
:102510006A9529F78D918F7381938D918F73819334
:102520000895DC01FB0162E08D919D91990F990F57
:10253000990F881F990F881F81938D91880F880F9D
:102540008295782F7F70972B91939D91807C9F73BC
:10255000892B81936A9541F78D918F7381938D912A
:102560008F73819308958A3140F0843340F08E3325
:1025700040F08F3340F080E608958F5F0895895FC3
:102580000895845C08958DE60895DC01FB016AE0FE
:102590008D91E9DF81936A95D9F70895DC011B9647
:1025A0009CE08C918E3621F0803629F48EE68C9357
:1025B00011979A95B1F79C3009F40895119680E629
:1025C0008C930895A8E9BCE0E8E1FEE070E67D9315
:1025D000AE17BF07E1F70895F5DFA9E9BCE070E2A7
:1025E000679FA00DB11DBC015EE1CB014FDF6F5FA6
:1025F0007F4F8F3329F0503019F08D935A95F5CFD6
:10260000503021F080E68D935A95E9F712964A955D
:1026100059F7CB01089541E0E0CF8F936093050116
:102620007093060182E264EC0E94BE1860E87BE0D1
:10263000609301017093020188E380930B01A0E095
:10264000B0E18FEF91E58D939A95E9F78F91813005
:10265000C0F091F18AE364E90E94BE1860E87BE073
:1026600050E0A0E0B0E190E088E98D939D93E0E533
:102670008CEFED938D939D93E4E5ED939D939D9366
:1026800044C050E1A0E0B0E190E089EF8D939D93CC
:1026900082E08D9380EF8D939D938AE08D938FEFF1
:1026A0008D939D938BE08D9380E38D939D93E0E8D4
:1026B000FBE780EA9BE72DC050E1A0E0B0E190E0AD
:1026C00089EF8D939D9382E08D9380EE8D939D9302
:1026D000EAE080EFED938D939D93E85FE232D1F7CE
:1026E00080E6ED938D939D93E2EA80EFED938D93D9
:1026F0009D93E85FEA3BD1F7ED9388EE8D939D9330
:1027000082EC8D9389EF8D939D93E0E2FBE780E46B
:102710009BE740911F024F70452B40931F0280930F
:10272000030190930401DB0190E285918D939A95CA
:10273000E1F78AE980930001FFCFA8EBBBE07FE7D8
:10274000813050F0A1F080E89CE00CD0A8E9BCE01A
:1027500088EF9DE070E606C080E19EE003D080E354
:102760009EE070E27D93A817B907E1F7089588E12C
:102770009EE070E6F7DFA8EBBDE088ED9DE071E438
:10278000F1DF88EF9DE076E4EDDF70E47093B80D43
:1027900072E47093D70D75E47093D80D77E470935D
:1027A000F70DA8EBBBE088EB9DE073E47093F80DA8
:1027B00007D0A7EDBBE087ED9DE074E47093170EA2
:1027C0007D935F96A817B907D9F7089580911B02EA
:1027D000839580931B0270911D0290911E0290FFC1
:1027E0000BC068E095FD60E1760F80F47FEF94FF09
:1027F0000DC09F7E9E7F0AC068E095FD60E1761B5C
:1028000028F470E094FF02C09F7E916090931E02B6
:1028100070931D020C94E71660911C0240911D02FA
:1028200090911E0292FF40E080911F028F700E94E3
:10283000870F60911C0240911D0290911E0293FF30
:1028400040E080911F0282958F700E94E90F809175
:102850001C0260911D0290911E0291FF60E00E9497
:10286000211080911D0290911E02809597FF8FEF9D
:102870000E94491B08958FEF8093200280932102CC
:10288000089580E00E949618A0E2B2E06C918D93CA
:102890007C919D936095709568237923882799276B
:1028A000672B09F081E00895A0EABFE090E28D93E4
:1028B0009A95E9F708958FEF80931D02ADCF40916F
:1028C000B00B403009F440E847FF0895A0E0B0E0C5
:1028D0009D0170E1129A34D0129832D0139830D002
:1028E0008894009B089437952795009B0894B7958A
:1028F000A79526D0139A7A9581F7209314013093E7
:102900001501E89446FD06C0BC7039F0439540645B
:10291000689403C0BC7009F44F7B8E7090E0E8E4CB
:10292000F9E2E80FF91F7591842F8F71871B10F062
:10293000459180E08195992787F94093B00B0895E0
:1029400060E26A95F1F708950101010201030201B5
:10295000030203040403000160912802709129021C
:10296000680F791F10F46FEF7FEF60932802709368
:10297000290208956091280270912902681B790B41
:1029800010F460E070E060932802709329020895CB
:1029900090912A02980F08F49FEF90932A020895CD
:1029A000DC014A95542F539560517742E0F7605F00
:1029B000784D5D93542F5395685E7340E0F76851EE
:1029C0007C4F5D93542F539564567040E0F76C59DB
:1029D0007F4F5D93542F53956A50E8F7665F5D9380
:1029E0004395640F6D930895A8EFBFE08EEF8D932C
:1029F0008D938D938D930895CF93DF930F93C0ECB8
:102A0000DDE780911B02869586958370D80F08E5D7
:102A10000BD0DC5F09D0D450C05E06D0DC5F04D0A0
:102A20000F91DF91CF910895CE01602F0E948418FD
:102A30000F5F0895DC012D913D914D915D91DB017A
:102A40006D917D918D919D91621B730B841B950BF4
:102A5000DB01A058B040BF3FD9F5FC01E058F04081
:102A6000FF3FB1F5A05730F0A05220F4E05710F02E
:102A7000E05288F195958795959587957595679519
:102A8000759567954C5050402F923F924F925F92B0
:102A90006F927F928F929F921F9319012A013B019F
:102AA0004C0113E0260C371C480C591CC101B20123
:102AB0000E946D0D803011F01A95A1F71F919F9023
:102AC0008F907F906F905F904F903F902F900895E0
:102AD00088279927089581E099270895DC01462FDA
:102AE0008D919D916D917D91552747FD5FEF840FED
:102AF000951F47FF4195641B7F4F0C946D0DFC01A2
:102B0000768170301AF059F064E001C06CEFEF93F9
:102B1000FF93E4DFFF91EF9170E0871376830895D0
:102B2000022E1124DA019C01AB016D917D918D91F2
:102B30009D91621B730B841B950B0114A9F1072651
:102B40009AF10726AFEF77FD04C067FF71116FE7B9
:102B500005C067FD7A1360E80194619597FD04C094
:102B600087FF91118FE703C087FD9A1380E8332711
:102B700033956019EAF7982F97FD81955FEF53958C
:102B8000831BEAF797FD31953150311D3595359509
:102B9000531B051610F457FF502D97FD5195852FA7
:102BA000992787FD9FEF089599278FE70895509102
:102BB000B1024091B202EDEAF2E021913191A1918E
:102BC000B191821B930B0024850F901D550F001CA3
:102BD0008517900560F46A1B7B0B0024640F701D41
:102BE000440F001C6417700510F481E0089580E024
:102BF00008954F9340E5FC017681703011F05AF052
:102C000041607091AD02508175177091AE02518193
:102C1000750708F0416020E2EF93FF930E94AF0D2B
:102C2000FF91EF914F9147FF0895819191916191AB
:102C300071916850704040954F710C94FC2A66FB6E
:102C40006F7B639566F9E62FEF7109F46F779F93B9
:102C50008F93DF93CF931F930F93FF92EF9279019E
:102C6000EA018B010E9458118C3069F060E20E94E9
:102C70007A291D0F08F41FEF1F3F19F48C2F0E94B3
:102C8000BA140F290E21602F412FEF90FF900F9162
:102C90001F91CF91DF918F919F91FC0164874587B0
:102CA0004F3F880B8170089500251E1C3E14331E73
:102CB0003F3F701703372D21001D1D372B3FA00FFD
:102CC000092E1B1A2D221A273F3FD0076F937F939F
:102CD0008F939F9390EF8DEA0E946E1980309F91A1
:102CE0008F917F916F9149F0E8EAFCE264E2DC01A8
:102CF00075917D936A95E1F70895DB01FC011296C9
:102D000053E00E946E126D9161936D9161935A959B
:102D1000C1F70895509100015F935527509300012A
:102D2000DC01FB0190EF8DEA8193919353E00E94C7
:102D300093126D9161936D9161935A95C1F7B0971C
:102D4000CF010E94FC185F915093000108958F936A
:102D50009F939BEA8CE00E946E1980309F918F9127
:102D600011F080E00895DC0112968C91089520E026
:102D7000ECE2F2E011243FEF41E030834183128224
:102D8000138214826583768317827196239523308C
:102D9000A1F7089560935F0270936002E8DF0C94DE
:102DA000C51960915F0270916002680F791FDFDFC3
:102DB000ECE2F2E088276FEF80830C94391BE82F58
:102DC000EE0FFF27EA52F04185919591EACFDF920D
:102DD000EF92FF920F931F93CF93DF9300E0CCE22B
:102DE000D2E01881143048F599819A95998329F594
:102DF00093E0199FC00DD11DED81FE81C019D1094D
:102E0000D5909FE07F01ED2DE295E923D922FF27A0
:102E1000E65CF84E09951F3F41F093E0199FC00D05
:102E2000D11DED83FE83C019D10918811F3F29F000
:102E3000D114F1F2DD0CDD0CD982802F0E94411BF0
:102E40006B81860F10F067FD80E010F467FF8FEF55
:102E5000682F802F0E94391B61960395033009F07B
:102E6000C0CFDF91CF911F910F91FF90EF90DF9036
:102E70000C94131A0FC013C030C033C039C040C007
:102E800044C045C054C062C06BC06EC071C070C049
:102E90006FC06EC01A9518831FEFF7010895F701F0
:102EA00085916591759191E1899FD001A45DBD4F98
:102EB00011241D9213941D92139640915F0250911C
:102EC0006002460F571F4D935D9311241D9280138E
:102ED000089511271883FA010895F70165916A830F
:102EE0000895F7016591802F7F010E94391BD5CF8E
:102EF000F70145916C81460F6A812FEF7F0101C078
:102F000020E0802F0E94241BC8CFD294C6CFF701A7
:102F100095918591C00DD11D7F81715008F4792F55
:102F20007F8311F0E81BF109C019D109089513300E
:102F300068F4F701E590F590C00DD11DED83FE8397
:102F40001A86C019D1091395188303C0F701E590BB
:102F5000F590E0915F02F0916002EE0DFF1D089583
:102F6000F70165916B830895F70165916C8308956E
:102F700094CFA8EBBBE099E178E159E14427282FF1
:102F800027FD2195921B09F008F40895362F37FD8F
:102F90003195731B09F008F408959A31E8F787FB1F
:102FA000603011F02AF460C08030B1F30AF45CC0E4
:102FB000FD01072E030E0A94059E090E141E16F03D
:102FC000020E141EA00DB11D072E0A94059E090EB7
:102FD000141E16F4020E141EE00DF11D591B872F4E
:102FE000BE01EF01990FEAE2F8E1E91BF40B38C0EA
:102FF0001A901E921A901E921A901E921A901E9269
:103000001A901E921A901E921A901E921A901E9258
:103010001A901E921A901E921A901E921A901E9248
:103020001A901E921A901E921A901E921A901E9238
:103030001A901E921A901E921A901E921A901E9228
:103040001A901E921A901E921A901E921A901E9218
:103050001A901E92A51BB40BC51BD40B8A9509F0C0
:103060000994EB0111240895FD0116F0A20FB41F7D
:10307000359F16F4020E141EE00DF11D591B872F0B
:10308000BE01EF01990FEAE7F8E1E91BF40B38C044
:1030900019901D9219901D9219901D9219901D92D0
:1030A00019901D9219901D9219901D9219901D92C0
:1030B00019901D9219901D9219901D9219901D92B0
:1030C00019901D9219901D9219901D9219901D92A0
:1030D00019901D9219901D9219901D9219901D9290
:1030E00019901D9219901D9219901D9219901D9280
:1030F00019901D92A50FB41FC50FD41F8A9509F012
:103100000994EB0111240895FC01A0E26A9FD0010B
:10311000112468E005900D9205900D9205900D9296
:1031200005900D926A95B1F70895FFCF8091140133
:10313000909115018F3009F008950C949F18E0E6E6
:10314000F0E0808183FD089588E198E0F894808321
:1031500090837894FFCFF999FECF92BD81BD60BD79
:10316000F894FA9AF99A78940895F999FECF92BD55
:1031700081BDF894F89A80B578940895609313010E
:10318000809312010895CF93DF93C0E0D0E0FE0159
:10319000EA5FFE4F6491CE010E94AB182196C032C7
:1031A000D105A9F7C0E2D0E06FEFCE010E94AB18C5
:1031B0006FEFCE0101960E94AB18A096C11588E072
:1031C000D80791F7DF91CF910895CF9380E090E0F9
:1031D0000E94B518C82F81E090E00E94B518282FF2
:1031E00030E0322F22272C0F311D81E02A35354562
:1031F00009F080E0CF910895DF92EF92FF920F9354
:103200001F93CF93DF93EC010E94E518811109C051
:1032100084E0DF91CF911F910F91FF90EF90DF90AD
:103220000895888199818F3F2FEF920709F444C058
:103230008A35954509F440C000E210E0D12CFF2406
:10324000F39406C0F394005E1F4F20E4F216E9F1F8
:10325000C8010E94B518E82EC80101960E94B51851
:10326000282F30E0322F22272E0D311D88819981A1
:103270008217930739F02F3F3F4F21F7D110E2CF4C
:10328000DF2CE0CFD11023C07E0120E2E20EF11C42
:103290000C1B1D0BCE01800F911F69910E94AB1872
:1032A000CE15DF05B9F780E0DF91CF911F910F9127
:1032B000FF90EF90DF90089581E0DF91CF911F9113
:1032C0000F91FF90EF90DF900895DD2029F080E2CC
:1032D000D89E80011124D8CF82E09BCFDF92EF925D
:1032E000FF920F931F93CF93DF938C01EB010E940A
:1032F000E518811109C084E0DF91CF911F910F91F2
:10330000FF90EF90DF9008950F3F8FEF1807D9F1EE
:10331000E12CF12C07C080E2E80EF11CE11484E0FE
:10332000F80641F1C7010E94B518D82EC7010196D1
:103330000E94B518282F30E0322F22272D0D311D85
:103340002017310741F78E01005E1F4FEC1AFD0A6E
:10335000CE018E0D9F1D0E94B5188993C017D1070D
:10336000B9F780E0DF91CF911F910F91FF90EF901F
:10337000DF90089583E0DF91CF911F910F91FF902F
:10338000EF90DF90089581E0B7CF9093A3028093F0
:10339000A2028FE68093A4020E94D719E1E6F2E030
:1033A0008FEF8583828B878F84A781AF0895112447
:1033B000E9E1F1E0ACE3B1E004D0E1E6F2E0A2EA59
:1033C000B2E01192EA17FB07E1F70895E62FEE0F3E
:1033D000FF27E856F94CA591B591E7E0E89FF00189
:1033E000E75EFE4FA183B28311240895E7E0E89FD2
:1033F000F001E75EFE4FADECA60FA5831124089502
:10340000E7E0E89FF001E75EFE4F60831124089536
:10341000E9E1F1E095E08081868337969A95D9F7C6
:103420009093180108950F931F930E94081A01E6C4
:1034300012E0D80188272D9126FD26C05C915150BD
:103440005D9309F008F5ED91FD91F03011F4E03055
:10345000D9F045914F3088F46591959113979D93DC
:10346000ED93FD93D80155274E56554EFA01099517
:10347000903051F4D8011296E6CFF0E01297FD9308
:10348000FD93D8012F752C93662725FF28C0D801FE
:1034900015966D911D904D91439509F0149E27FD51
:1034A0006FEF639509F0169E6091A402639509F091
:1034B000169E612D5D91FD91ED911D90112079F089
:1034C000F35374917058739509F0179E1094639597
:1034D00009F0169E612D7D91E70F1397EC930E94E2
:1034E000001A25FF0BC0D80117964A95450F10F01A
:1034F00057FD40E010F457FF4FEF4C93D8011D9655
:103500008D018395853009F096CFECE3F1E082E000
:103510009081939509F49A9591938A95C9F71F9193
:103520000F9108950EC010C010C011C016C01CC06D
:103530001EC020C022C027C029C02BC02BC02BC05A
:103540002DC018966C93089508950C94F61914964E
:103550000C90600D6C930C94E61914960C90061A5E
:10356000602D6C930C94E6192F752C9308952064AC
:103570002C93089517966C930895277F2C93149697
:103580006C930C94E6191B966C9308951C966C939F
:103590000895089508951A966C93089519966C935A
:1035A0000895ADE0A89FD001AF59BD4F3C91306266
:1035B000377B3D93E091A202F091A30292E0699FD4
:1035C000E00DF11D9591F491E92F70E0F03011F4C8
:1035D000E03009F075917D93ED93FD93FD01112489
:1035E0002283148215821782642F37FD0895408349
:1035F0000C94E619262F682F84E01124A5E9B2E087
:10360000ECE3F1E0403041F09281691799F08A953E
:103610009381691779F083959C9197FF0BC08A95E8
:103620001D979C9197FF06C070819181791710F0CA
:1036300083951D967C9170687C93843009F0319657
:10364000108262830C94D11AEDE0E89FF001EF59EB
:10365000FD4F908197FD0895203049F496FD04C0F8
:103660007085703009F09F759F7B908308950C944E
:10367000D11AEDE0E89FF001EF59FD4F6583112469
:103680000895EDE0E89FF001EF59FD4F8581112489
:1036900008958093A40208952200240026002800A3
:1036A0002B002D0030003300360039003D00400073
:1036B000440048004C00510056005B00600066006A
:1036C0006C00730079008100880090009900A200CE
:1036D000AC00B600C100CC00D800E500F300010149
:1036E000100121013201440157016C01810198014F
:1036F000B001CA01E501020221024102640288020E
:10370000AE02D7020303300361039403CB03050425
:1037100042048304C70410055D05AF050506610674
:10372000C206290796070908830805098E09200A99
:10373000BA0A5D0B0A0CC10C840D510E2B0F12102E
:1037400007110A121D1340147415BA1614188319A0
:10375000071BA31C571E24200E22142439267F2861
:10376000E82A752D293006330F364539AD3C4940DE
:103770001B442848734CFE50CF55EA5A51600C66E2
:103780001D6C8B725A79928037885090E598FDA114
:103790009FABD3B5A3C0089510920001109206010B
:1037A0001092050180E280930B010C9440018FE997
:1037B0008DBF8FE08EBF8FEF0E94491B68E47DEEC6
:1037C00088E39DEE0E94CA161092B00B80E00E9422
:1037D000F83580E090E00895AF92BF92CF92DF92EB
:1037E000EF92FF920F931F93CF93DF93EC01D02EB4
:1037F000322F317DC32E122F117098E0E92EE60E84
:10380000FF24F394F40E28EFA22E1FC0FC01649154
:10381000FE01339644912496B2FC15C0112319F091
:10382000FA2DF61B6F2F6E0D4F0DB0E0BA2FAA27A1
:103830008B2D807E9D01282BC901DD2011F10D2DDE
:103840002C2D0E94A001B1FC21C0FE01B490CE013C
:1038500002963196A491B0FCD9CFA7FD05C0A0680F
:10386000CB2DD0E0DA2BF1CFCB2DD0E0DA2BFE013F
:10387000B4903196A4913196649131964491EC01C3
:10388000CBCF2C2D0E949D01B1FEDFCFDF91CF91D8
:103890001F910F91FF90EF90DF90CF90BF90AF906E
:1038A000089530E8639FF0011124E05CF109F09382
:1038B0004501E093440130E4439FF0011124F0936B
:1038C0004701E0934601322F377730934301221F9F
:1038D0002227221F30911F02307F232B20931F02AB
:1038E00010924E010E94CE0C80914301806880931B
:1038F000430108950E949C1C8091480190914901C8
:103900009093A6028093A50280914A0190914B0169
:103910009093A8028093A70210924C0110924D013F
:103920008091430180688093430108958091430111
:10393000806880934301089560587F4F81152FEF71
:103940009207A0F0109249011092480161158FEF83
:103950007807D8F48091460190914701681779075C
:10396000F0F470934B0160934A0108952091440153
:10397000309145018217930768F0309349012093F5
:10398000480161158FEF780728F310924B011092D0
:103990004A0108959093490180934801D7CF9093AD
:1039A0004B0180934A01089580934E0108957F92C0
:1039B0008F929F92AF92BF92CF92DF92EF92FF923F
:1039C0000F931F93CF93DF938C014091A5025091E9
:1039D000A6026A01D694C794D694C794D694C79485
:1039E0008091A7029091A8025C01B694A794B69426
:1039F000A794B694A794877023E1281B47708BE0A7
:103A0000809308108091A7028770805D80930910D1
:103A100040930A104093A00FA1EABFE0EDE0F0E16F
:103A200098E3EF01229728832196988340834D9352
:103A3000985F285F3396903FA1F78091430187FDFF
:103A40007CC0E801D695C795D695C795D695C795FC
:103A5000769567957695679576956795CC15DD058E
:103A600078F111E0CC15DD0509F4B1C06A157B05CC
:103A700008F051C077247A946FEF812F0E94B91714
:103A8000111158C0FFEF7F1609F43FC071107DC0BF
:103A90002091B30B40914301B5018091A502909113
:103AA000A602DF91CF911F910F91FF90EF90DF90D1
:103AB000CF90BF90AF909F908F907F900C94B0105C
:103AC0006A157B0538F56FEF8FEF0E94B9177724E1
:103AD0007A9408E110E0E50160977801EC0CFD1C98
:103AE0000854144F450128E0820E911CBE01C70105
:103AF0000E94D70CF80180832196075E1F4FC815DE
:103B0000D905A1F7FFEF7F12C1CF8FE392E027E144
:103B100030E03FC01FEF772473946A157B0509F4EA
:103B200058C0672D812F0E94B9171F3F91F21123B2
:103B300009F4A8CF00E010E0CECF8F778093430147
:103B4000850100511109C8EBDBE0C6018854944F90
:103B50006C017E01E9E1EE0EF11C46018C1A9D0A12
:103B6000F8EB8F1AFBE09F0AB801C4018C0F9D1F70
:103B70000E94D70C8993CE15DF05B1F70F5F1F4F59
:103B8000C0319EE0D90729F783CF80E090E020E0A4
:103B900030E0850100511109020F131FEC01C854D8
:103BA000D44F7C012FE2E21A24EFF20A9601285B3F
:103BB0003B406901C81AD90AB801C6018C0F9D1F84
:103BC0000E94D70C8993CE15DF05B1F761CF10E0C5
:103BD0004DCF712CA6CF6091A7027091A802809161
:103BE000A5029091A6020C94D71CEF92FF921F930E
:103BF000CF93DF9300D0CDB7DEB7E090A502F09071
:103C0000A6026091A7027091A8022091480130910C
:103C100049012E193F0980914C0137FD51C02138CF
:103C2000310508F0CCC0215F22952F70122F8F5FD5
:103C300082170CF452C010934C0150914E01511157
:103C400054C0C701810F911D17FD9A959093A6024C
:103C50008093A50281152FEF920708F4B6C0109249
:103C6000A6021092A502CB0120914A0130914B018E
:103C7000281B390B40914D0137FD64C021383105B7
:103C800008F0A0C0215F22952F70122F4F5F4217BE
:103C90000CF465C010934D01511167C0810F911D47
:103CA00017FD9A959093A8028093A702C7010F90E1
:103CB0000F90DF91CF911F91FF90EF900C94D71C44
:103CC00020389FEF390708F495C022952F70206F98
:103CD000122F815028170CF0AECF182F10934C01E3
:103CE00050914E01552309F4ACCF69837A830E9429
:103CF000481050914E0169817A81553008F077C0A3
:103D0000877094E0810F891B87FD96C0893008F089
:103D100088E090E02091A5023091A602820F931FC7
:103D20009093A6028093A5028115EFEF9E0708F4F9
:103D300067C01092A6021092A5028091A7029091EE
:103D4000A80292CF2038EFEF3E0708F456C0229524
:103D50002F70206F122F415024170CF09BCF142F7F
:103D600010934D01552309F499CF69837A830E94FA
:103D7000481040914E0169817A814530A8F58770DD
:103D800094E0810F891B87FD5CC0893008F088E0D2
:103D900090E02091A7023091A802820F931F909388
:103DA000A8028093A70281152FEF9207C8F1109205
:103DB000A8021092A702415040934E0177CF28E00D
:103DC00018E035CF28E018E061CF20914401309110
:103DD00045018217930730F03093A6022093A50285
:103DE000CB0142CFCB0140CF8F7098E0CACF8F700C
:103DF00098E088CF28EF18EF6CCF28EF18EFABCF03
:103E000020914401309145018217930720F03093AF
:103E1000A6022093A5028091A7029091A80224CF28
:103E200020914601309147018217930720F2309389
:103E3000A8022093A702BFCF883F60F488EF9FEFCE
:103E400069CF883F18F488EF9FEFA3CF082E000CAE
:103E5000990B9FCF082E000C990B5CCF80914F01DE
:103E60008F5F833018F010924F01089580934F01B7
:103E70000895AF92BF92CF92DF92EF92FF920F938D
:103E80001F93CF93DF931F92CDB7DEB78C017B01D9
:103E9000D42E5B018FEFA81AB80AB501C801298397
:103EA0000E946D0D298181110DC082E00F90DF917C
:103EB000CF911F910F91FF90EF90DF90CF90BF9027
:103EC000AF900895D11002C080E0F0CF2695A21ADD
:103ED000B108B501C8018D1991090E946D0DC82E58
:103EE000DA94B501C8018D0D911D0E946D0DCC2095
:103EF00061F08111E9CFB701635F7F4FC8010E9474
:103F00006D0D882391F282E2D1CF882371F2B7013F
:103F1000635F7F4FC8010E946D0D882331F282E1FB
:103F2000C5CF2F923F924F925F926F927F928F9266
:103F30009F92AF92BF92CF92DF92EF92FF920F9338
:103F40001F93CF93DF93CDB7DEB72F970FB6F894BB
:103F5000DEBF0FBECDBF9B838A83FC01C080D180B2
:103F6000E280F38084809580A68017810285F1E04D
:103F7000F91508F09AC1B92C292D482DB701C601B1
:103F80000E94391F502F81115EC15D70852F8A708C
:103F900029F480914F01882309F494C18B2D8695D3
:103FA000282F30E03A87298719821B86612C1C82D2
:103FB000712C81E08B0DE82FF0E0FE83ED83282C3F
:103FC000312C8FEF880D282F30E03D872C8781E042
:103FD000880DE82FF0E0F887EF834B2C512CAF864B
:103FE0005E873F85311141C03DC0292D482DB70165
:103FF000C6010E94391F811198C00E850D7FFFEF09
:10400000EF1AFF0A11503E8536FD96C03C813F5F96
:104010003C83302F3F7B3E873F8513160CF04DC00D
:104020005601A20CB31CB70164197509C5010E94A1
:104030006D0D882381F0911092C001FF7FC0560161
:104040009FEFA91AB90AB70161507109C5010E9411
:104050006D0D8111D2C03E8530683E873981316057
:1040600039831F86112309F494C011160CF4BDCFB7
:104070000E85112371F20D7F57018D819E81A81A43
:10408000B90AB501C601821993090E946D0D8823F2
:1040900009F479C081106EC091E0E91AF1081F5F40
:1040A0003E8536FD49C03C8131503C83302F3F7BFB
:1040B0003E873F8513160CF4B3CF3F85332391F22F
:1040C00056018F819885A81AB90AB7016419750934
:1040D000C5010E946D0D882309F4BDCF9110CEC09B
:1040E00001FFA0C05601F1E0AF1AB108B70161505D
:1040F0007109C5010E946D0D882309F4ACCFB70189
:104100006F5F7F4FC5010E946D0DB701882309F4D1
:10411000E2C06E5F7F4FC5010E946D0D882309F4D8
:10412000F3C00D7B0E87650189C039813260398308
:104130000E85026810E06DCF02606BCF56018FEFE5
:10414000A81AB80AB701C5010E946D0D882309F4A9
:1041500082CF65013F8531503F87739442CFB701CD
:1041600089859A85681B790BC5010E946D0D8111A7
:1041700064CF71CFB5018C859D858C0D9D1D0E94EE
:104180006D0D811189CF006839813260398310E06B
:1041900040CF5E85152F1D7B292D482DB701C60107
:1041A0000E94391F812BEA81FB811086118687FDD1
:1041B00070C0760CEA81FB8176823C813783D182A4
:1041C000C082F382E28282872F960FB6F894DEBF18
:1041D0000FBECDBFDF91CF911F910F91FF90EF9058
:1041E000DF90CF90BF90AF909F908F907F906F9017
:1041F0005F904F903F902F900895B7016F5F7F4F72
:10420000C5010E946D0DB701882301F16E5F7F4FDC
:10421000C5010E946D0D882309F44AC00D7B0E87ED
:10422000650198CF560181E0A81AB108B701C50110
:104230000E946D0D882309F40ECF65013F853F5F15
:104240003F877A94CECE5F705260A0CEC5010E94A7
:104250006D0D81117ECF11503E8530643E873B85C8
:10426000311135C03F8531503F8702FD63943F8552
:1042700031112DC0650131E03B87F4CEB701E985EE
:10428000FA856E1B7F0BC5010E946D0D811128CF31
:10429000E2CE398130FD12C0398131FF8ACFEA8107
:1042A000FB8197819195918784CF82E0B82E64CE6F
:1042B0003E8530643E871F5F65014CCF96819195A6
:1042C0009087EACF10320CF069CE1F5F67CE650190
:1042D00031E03B873FCFC5010E946D0D8111ADCF0D
:1042E00011503E8530643E873B85311109C03F85C2
:1042F0003F5F3F8702FD6A943F85332309F4BACFBD
:10430000650131E03B879ACF3E8530643E871F5F71
:10431000650194CF0F931F93CF93DF93C82F909194
:1043200059019F5F937090935901809155018823A3
:1043300009F454C18150809355010C2F04701C2F37
:104340001270D0E090915101002309F445C19460AE
:10435000112309F43DC19260909351012C2F2071DB
:10436000C4FD2BC19F7B90935101809150018630F9
:1043700011F010925A013091B302B32FB7FDB195ED
:104380000091B70201FFF4C0C5FFC77F222329F0C7
:1043900096FD03C0853009F41CC3C6FF65C190FFBC
:1043A00079C1C7FD68C141E0C4FF69C196FD67C11D
:1043B00026E0A0E04111D195853009F471C1833028
:1043C00009F46EC137FD97C23D170CF092C233233A
:1043D00009F456C3D32F40915401442309F482C2F7
:1043E0004150409354014DEF420F423008F461C1F7
:1043F0002111CCC021E0823009F4C8C020E093FF35
:10440000C7C020915301482F50E04830510508F4AF
:10441000A0C1977F9093510110E0C0E080935001BC
:10442000AA2361F090915901911108C09091B302B3
:104430009D170CF087C29F5F9093B302902F9073EB
:1044400009F069C19091B302CC2309F46BC124E057
:104450002093B702910F9093B3026DEA72E08068E7
:104460000E949E0D8091510185FF03C080E18093E1
:10447000B2028DEA92E00E94911F8091B302811BEB
:104480008093B302CC2309F451C19091B40297FDFB
:104490004DC11092500120915101922F9F7D909318
:1044A0005101811106C08091B70220FF2EC184FD09
:1044B0002EC18091AC02982F9295907F9F6320919E
:1044C000AA022917B8F431E0320F3093AA02391743
:1044D00088F430911B02432F4F7109F412C197FFEA
:1044E00004C0432F4F7009F40CC1903C18F0377092
:1044F00009F407C1982F990F990F9F632091AB0280
:104500002917B8F431E0320F3093AB02391788F431
:1045100030911B02432F4F7109F4EFC097FF04C085
:10452000432F4F7009F4E9C0903C18F0377009F43C
:10453000E4C08295880F880F807C8F639091A902D8
:10454000981788F420911B02322F3F7749F087FF9C
:1045500003C0322F3F7321F0803C28F02F7119F4F3
:104560009F5F9093A902DF91CF911F910F910895C2
:10457000C6FF71C090FFA3C0C7FD00C221E0C5FD0A
:104580001EC2A0E0D0E02111D19527E093FD39CFE4
:10459000281709F436CF263009F4DBC110925201F6
:1045A00010925301986090935101422F50E048308F
:1045B000510508F4A4C1822F2CCF80915A01883074
:1045C00008F046C08F5F80935A0180915001D3CE8E
:1045D0009D7F90935101C2CE9B7FBACEC0FFADCEDE
:1045E0008091AB02883108F4A8CE88518093AB0249
:1045F00087E080935501D091B3022091B40280915D
:10460000510180FFD2C1D5500C2F0470C2FD24503F
:104610001C2F1270C1FD2E5F809158016091AF0276
:104620007091B002680F711D87FD7A953091570126
:104630008091AD029091AE024D2F830F911D37FDF9
:104640009A950E944E2960E481E00E94F5357ACE69
:104650008091500190CE292F2170C7FD46C0C5FF23
:1046600090CFA1E0D4E08FCF492F4170C7FF9CCEFF
:10467000442309F499CED0E024E0A2E09DCEC3FF0C
:1046800022C02091AA02203108F095C125E0A1E0C6
:10469000D3E090CE24E0A2E0D0E0853009F08FCEC8
:1046A0004091540141119CCE4DEF420F423008F031
:1046B0009FCE4FEF480F423008F068CF9BCE27E0E7
:1046C000A1E0DFEF63CFC5FD72C1B33008F083C155
:1046D00091FD9DC1B111AEC12FEF280F223008F41A
:1046E000BEC120E0A1E0D0E065CE211147C127E0A6
:1046F000C5FF75C1A1E0D4E049CF2E5F2093AB0286
:1047000018CF2E5F2093AA02F5CE85FFD2CE9062FD
:1047100090935101CECE9091510190FF18C09EEF21
:10472000C11195CE26E02093B70294CE309150016E
:1047300020915101922F9F7D909351014AEF430F99
:10474000423008F4B6CE343009F0ABCEB2CE92E0AF
:104750007BCEFA01E85CFF4F0C946B3D8091AA027E
:10476000882319F081508093AA02822F30E2B39FF0
:10477000800D112480935301821740F480915201DF
:104780008F5F863008F41FC110925201977F90937B
:10479000510110E085E0C0E041CE8091AA0288235B
:1047A00019F081508093AA02311106C090FF0EC10A
:1047B0001D1614F481E09827977F9093510110E023
:1047C00087E0C0E02BCE822F30E4B39F800D112410
:1047D00080935301821730F4809152018F5F837070
:1047E00080935201977F9093510110E083E0C0E0E5
:1047F00015CE90E1920F8091AA0281116BC0211118
:10480000C0C01092520110E09093530184E0C0E0C8
:1048100005CE9EE1920F90935301921708F07BC052
:10482000909152019F5F917090935201909151012C
:10483000977F9093510110E0C0E0F0CD90E4920F8B
:104840008091AA0281113BC090935301921708F006
:1048500045C080915201833008F040C08F5F809343
:1048600052018330D9F580915A0190E09C012D5F6F
:104870003F4F8B2F90E00396969587959695879559
:10488000820F931F96958795382F31953093B402F8
:104890002091AA02203108F0D5C03F3F0CF4E3C0BC
:1048A0001092AA0280915101B23008F4D2C0877FE1
:1048B00080648093510110E086E0C1E0AFCD81506B
:1048C0008093AA02C1CF90E120E08091AA028823C0
:1048D00009F497CF81508093AA0291CF10E086E02F
:1048E000C0E09CCD882361F1813009F07CCD22E0CD
:1048F0004DCE311170CDD3170CF46CCD6CCDFA01C7
:10490000E05CFF4F0C946B3D8FEF809354018EE180
:1049100080935301822F10E0C0E080CD20E0809191
:10492000AA0281111FCFB295BB0FB07EB093530185
:104930002DCFB295BB0FBB0FB07CB093530152CFBC
:1049400021E024CED9170CF079CD91509093B30289
:1049500075CD853009F022CE81E0809352019860B8
:104960009093510190E420E08091AA028111A7CF99
:104970009093530110E086E0C0E050CDD1E0A1E07B
:1049800004CE2034D9F1203869F1203C09F443C029
:1049900090935301911170C080915101877F809352
:1049A000510110E084E0C0E039CDDB5F2DCE23E083
:1049B000A1E0D1E0FFCC25E0A1E0D4E0FBCCA1E078
:1049C000D4E0D195E2CD80935201E0CED7FFF4CE72
:1049D000F1CEC862E2CC25E0A1E0D0E0EBCCA0E0D3
:1049E000D0E0D4CD82E0809352018091510180FFCC
:1049F00025C013E009CF90E420E0B6CF81E080939A
:104A000052018091510180FF13C012E0FDCE22E0DF
:104A1000A1E0D0E0CFCC83E08093520120915101FE
:104A200020FF0EC012E081E0822780935101ECCE7E
:104A30001EEFEACE23E0A1E0D0E0BCCC1DEFE4CE37
:104A40001EEFF1CF203208F42BCF20522093AA0280
:104A500029CF80FF0DC09EEF9093B30228CF282F5F
:104A6000A1E0D0E0A7CC91E0981B9093B40218CFBE
:104A700092E09093B3021BCF10E084E0C0E0CECC74
:104A8000D0E0A9CCCF93DF93E09150016091520127
:104A9000660F20915101322F347022FF12C0C8ECF2
:104AA00021FDC0E2E330A1F0E53009F44CC08E2FC7
:104AB00090E08830910538F04091B30260E0D0EE8C
:104AC0000DC0C8EEEDCFFC01E85BFF4F0C946B3DD1
:104AD0004091B302442309F43AC0D0EE25FD6EE3C1
:104AE00031116160862F90E0880F991FFC01FF5201
:104AF0003491309357013196849181958093580178
:104B000020FD48C014160CF089C0413009F4CFC014
:104B1000423009F486C0433009F4C6C0D8E741EDFD
:104B2000809156018823A9F081508093560120E49A
:104B30008DEA92E00E94AF0D8091510184FD12C078
:104B4000DF91CF9108954091B302411137C068E0E1
:104B5000C4CF20E18DEA92E00E94AF0D8091510117
:104B600084FFEECF6091AF027091B0026C55710975
:104B70006C0F711DC7FD7A958091AD029091AE02C8
:104B8000805691098D0F911DD7FD9A95DF91CF9198
:104B90000C949C1CE32FE195E093570147FD02C064
:104BA00040EDBECF4F3F09F472C04E3F09F472C0D2
:104BB0004D3F09F472C0D8E840EDB2CF645ED0EE4C
:104BC0008DCF665D4091B302D0EE88CF645F409197
:104BD000B302D0EE83CF4091B302542F57FD5195CD
:104BE0006091B402E62FFF27E1950CF4F095CF0118
:104BF000E330F105CCF4F7FD1AC0655E660FD0EE28
:104C00006DCF6C5E4091B302D0E068CF605F4091A1
:104C1000B302D0EE63CF4091B3025FCFD19541EDA7
:104C20007FCFD0E541ED7CCF60E3D0EE57CF652F4D
:104C300070E06D5F7F4FFB01F695E795F695E79580
:104C40005E2F550FE50FF0E0F195E195F109E817BA
:104C5000F9078CF076956795562F550F650F7727D6
:104C600061950CF470956817790744F4C7FD0DC081
:104C70006AE3D0EE33CF68E3D0EE30CF6CE3C831D7
:104C80000CF02BCFC8E1D0EE29CFC0E0F1CFD0ECB3
:104C900040ED46CFD0EB40ED43CFDCE940ED40CFD7
:104CA0004091B302685F19CFD4E641ED39CFD0E42B
:104CB00041ED36CF8091550181110AC09091560186
:104CC000911105C081E090915001953008F408954C
:104CD00080E00895811106C0809151018F7E8093FC
:104CE000510108958091510180618093510108958F
:104CF00083FF1EC09091AC02292F237087FD0FC146
:104D0000382F307486FDAAC0633008F015C1362FE5
:104D10003295330F330F307C3F63262F9C7F922BCD
:104D20009093AC029091A902391710F43093A90224
:104D300084FF22C09091AC02292F269526952370DE
:104D400087FDF6C0382F307431119AC0633008F0F7
:104D5000FDC0362F330F330F262F2295220F220F3F
:104D6000207C2F63937F932B9093AC029091AA02A7
:104D7000291710F42093AA0285FF21C09091AC025C
:104D8000292F2295237087FDC6C0382F307431112A
:104D9000A5C0633008F0E3C0362F3295307F262F50
:104DA0002295220F220F207C2F639F7C932B9093C0
:104DB000AC029091AB02291710F42093AB0280FF54
:104DC00019C02091A9029091AC0287FDACC09295C8
:104DD000990F990F907C9F63382F3074311164C004
:104DE000691708F4962F921718F424E020935601BF
:104DF0009093A90281FF10C02091AA029091AC0269
:104E000087FD84C09295907F9F6386FD5AC0691785
:104E100008F4962F9093AA0282FF19C02091AB024A
:104E20009091AC0287FD6DC0990F990F9F6386FF2B
:104E30000FC0492F50E0421B5109E62FF0E0E41764
:104E4000F50714F4962F920F9093AB0208950895EE
:104E50006917D0F7962F9093AB02089543E050E086
:104E6000421B5109E62FF0E0E417F5070CF064C08F
:104E7000260F322F3295330F330F307C3F634ECFE6
:104E800043E050E0421B5109E62FF0E0E417F5073C
:104E90000CF05CC0260F322F330F330F2295220FF8
:104EA000220F207C2F635ECF492F50E0421B510917
:104EB000E62FF0E0E417F5070CF095CF922F960F50
:104EC00092CF492F50E0421B5109E62FF0E0E41742
:104ED000F5070CF09FCF962F920F9CCF43E050E048
:104EE000421B5109E62FF0E0E417F507C4F5260F41
:104EF000322F3295307F2295220F220F207C2F6394
:104F000054CF6217C8F5922F961B9ECF6217C8F533
:104F1000922F961B7FCF6217C8F5261BE9CF621729
:104F200090F5261BA6CF6217A0F5922F961B5BCF9C
:104F3000621720F5261BAFCF93609093AC0284FFDD
:104F40001BCF292F269526952370FECE9C6090932B
:104F5000AC0285FF34CF292F2295237018CF9063A0
:104F60009093AC0280FF46CF2091A9029295990FB1
:104F7000990F907C9F6332CF90E066CF2FE330E0B3
:104F8000F1CE90E047CF3FE320E0C8CE2FE330E002
:104F90000CCF90E028CF9093AE028093AD02709337
:104FA000B0026093AF021092B3021092B40210925A
:104FB000B7022FEF20935401109259011092500123
:104FC0001092510110925601411101C0089520E143
:104FD000209351016C557109805691090C947A1CEB
:104FE0000E94080E0E9445290C94102BFF920F93EB
:104FF0001F93CF93DF93CDB7DEB72F970FB6F894FB
:10500000DEBF0FBECDBF0E948D290E94472B0E949C
:10501000480F10E086E0F82E03C01F5F1C3039F106
:10502000BE016F5F7F4F812F0E94C00E8111F5CFAF
:105030000C850F73BE016F5F7F4F802F0E949E0D06
:10504000FB86CE0101960E94911F802F90E0863151
:105050009105C8F0602FCE0101960E94693381113D
:1050600017C08F850E94E90E1F5F1C30C9F62F966E
:105070000FB6F894DEBF0FBECDBFDF91CF911F9169
:105080000F91FF900895FC01E05BFF4F0C946B3D86
:10509000BE016F5F7F4F812F0E940A0FBECF602F2E
:1050A000CE0101960E943635DACFCE0101960E94DC
:1050B0006F32D5CFCE0101960E94CC33D0CFCE0136
:1050C00001960E94062FCBCFCE0101960E949A2F07
:1050D000C6CFCE0101960E94CC31C1CFCE01019640
:1050E0000E94F430BCCFCE0101960E944E30B7CF63
:1050F000CE0101960E94F12DB2CFCE0101960E9401
:10510000B133ADCF1F93CF93DF93CDB7DEB72F97DA
:105110000FB6F894DEBF0FBECDBF0E94492D10E040
:1051200007C0CE0101960E94AC331F5F1C30D9F03E
:10513000BE016F5F7F4F812F0E94C00E8111F5CF9E
:105140006C856F73862F90E08631910550F7FC01D6
:10515000EA59FF4F0C946B3DCE0101960E94F43545
:105160001F5F1C3029F70E94782A2F960FB6F894FB
:10517000DEBF0FBECDBFDF91CF911F910895CE014D
:1051800001960E941C33D1CFCE0101960E94FF34BC
:10519000CCCFCE0101960E94702FC7CFCE010196D1
:1051A0000E943730C2CFCE0101960E943132BDCF6E
:1051B000CE0101960E94A331B8CFCE0101960E9484
:1051C000B330B3CFCE0101960E94D32EAECFCE0125
:1051D00001960E94C733A9CFCF93DF93EC01FC0166
:1051E0003896249131974491319764913297849104
:1051F0003196349190E0932B0E94511CFE0132961F
:10520000649131969491FE0184913196E49170E01D
:10521000792B90E041E09E2B0E94CB27FE0139962E
:10522000649181E40E947826FE013A96E491E0932D
:105230002A022B96D093E801C093E701DF91CF912A
:105240000C94F027FF920F931F93CF93DF9300915D
:10525000E7011091E80180E0F12CF801C49131964A
:10526000E491D0E0DE2B0E5F1F4FAE01506C6D2F2E
:1052700060746F290E94280EF394D7FFEECFDF9160
:10528000CF911F910F91FF900895E8EBF2E010820B
:10529000369683E0E030F807D1F70895CF93DF9397
:1052A000EC01A8EBB2E0E0E0F0E09C91992341F042
:1052B00031961696EC30F105C1F7DF91CF91089544
:1052C000CF01880F991FE80FF91FEE0FFF1FDF01B5
:1052D000A854BD4F8FE38C9311964C93119712965F
:1052E0002C93AB01BE01CF0185549D4FDF91CF912F
:1052F0000C94440D90E0FC01EE0FFF1FE80FF91F26
:10530000EE0FFF1FE854FD4F8081681720F4861BC5
:10531000806C80830895108208957F928F929F926F
:10532000AF92BF92CF92DF92EF92FF920F931F93B3
:10533000CF93DF93CDB7DEB72B970FB6F894DEBFD0
:105340000FBECDBF8091E9018F5F8093E90108EB2B
:1053500012E069EBE62E62E0F62E7AEBC72E72E0E1
:10536000D72E74C090831D821E82F70180818F83A7
:10537000F60181915F0188871B86AE014D5F5F4F0B
:10538000BE016F5F7F4FCF010E944E0DCE0101968F
:105390000E94911F4B815C8169817A81C5010E94C5
:1053A000440D898587FD7BC0882309F483C08595DA
:1053B00085958F832A8527FD67C0222309F47CC049
:1053C0002595259528879091E901392F3F7029F07F
:1053D0003B8531FF07C0937029F418160CF06EC09E
:1053E00081508F83F7018083F6012083A980BA80E2
:1053F000B694A794B694A794B694A7948B809C80F7
:10540000969487949694879496948794B401C50152
:105410000E94D70C782EB4016F5F7F4FC5010E94A8
:10542000D70C90EB970D923000F180558230E8F068
:105430000A5F1F4FF6E0EF0EF11C86E0C80ED11C8C
:10544000E2E0CE16E3E0DE0609F43EC0F80180811A
:10545000982F9F7369F39FEF980F292F207C09F4F1
:1054600081CF8154F80180837ECFB401C5010E94B1
:105470008F0C0E94961C89E190E00E94AC1460E4BD
:1054800081E00E94F535D4CF332721950CF4309577
:1054900035952795359527952195288794CF992778
:1054A00081950CF49095959587959595879581951F
:1054B0008F8380CF8F817ECF288585CF882309F485
:1054C00091CF8F5F8F838ECF2B960FB6F894DEBF70
:1054D0000FBECDBFDF91CF911F910F91FF90EF9045
:1054E000DF90CF90BF90AF909F908F907F90089566
:1054F0000F931F93CF93DF93CDB7DEB72D970FB6E2
:10550000F894DEBF0FBECDBF0BEB12E007C00A5F01
:105510001F4F83E00330180709F445C0F8013397A3
:105520002081322F3F7399F3319680818F8331969A
:1055300080818887AE014D5F5F4FBE016F5F7F4FF7
:10554000C8012C873D870E944E0D8F812C853D859B
:1055500087FD38C040E5888587FD30C09F81E92FF1
:10556000092E000CFF0B682F082E000C770BDB01B7
:105570001296AE17BF0714F16F5F7F4F6E177F074C
:105580002CF53F3150F568EF26952170622B20E510
:10559000CE0101960E94AF0D0A5F1F4F83E00330DA
:1055A000180709F0BBCF2D960FB6F894DEBF0FBEDB
:1055B000CDBFDF91CF911F910F9108953F3118F327
:1055C00066EFE2CF81958F8341E5C5CF8595891739
:1055D00034F43F3168F06EEFD7CF6AEFD5CF3F316B
:1055E00048F0622F647070E076956795606FCCCF5D
:1055F0006CEFCACF64EFC8CF0F93403178F0242FFF
:10560000247030E036952795206F46954170422BE7
:1056100000E520E50E94BB0D0F91089524EFF5CF22
:10562000EAEEF1E01082369682E0EA31F807D1F72F
:1056300008950F93CF93DF93EC01AAEEB1E0E0E081
:10564000F0E09C91992349F031961696E830F105E7
:10565000C1F7DF91CF910F910895CF01880F991F66
:10566000E80FF91FCF01880F991FDC01A651BE4F2B
:105670000C9311964C93119712962C93AB01BE018B
:1056800083519E4FDF91CF910F910C94440D8F92D7
:105690009F92AF92BF92CF92DF92EF92FF920F93C1
:1056A0001F93CF93DF93CDB7DEB72D970FB6F89446
:1056B000DEBF0FBECDBF80911A028F5F80931A02AA
:1056C0000AEE11E04BEEA42E41E0B42E5CEEE52E86
:1056D00051E0F52E1AC06B817C8140EC50EC898141
:1056E0009A810E94DB15811102C0F80110820A5FC5
:1056F0001F4FF6E0AF0EB11C86E0E80EF11CECE1A6
:10570000EE16E2E0FE0609F451C0F801D080DD207B
:1057100011F31D821E82F50180818F83F701808144
:1057200088871B86AE014D5F5F4FBE016F5F7F4F65
:105730004801F3E08F0E911CC4010E944E0DCE0172
:1057400001960E94911F4B815C8169817A81C4011D
:105750000E94440D6B817C8189819A810E94D715BA
:105760003F81432F632F9090B302931A9885792F2E
:10577000C090B402C91A892C881C8824881C282D42
:1057800021952925280DC7FC7FC02C1510F42C2D40
:10579000220F5D2D507C503821F1503C11F15034D6
:1057A000C1F0F5014083F701908395CF2D960FB698
:1057B000F894DEBF0FBECDBFDF91CF911F910F9147
:1057C000FF90EF90DF90CF90BF90AF909F908F9021
:1057D00008958111F2C08B8581FFCBC0F801108242
:1057E000E0CF811159C0FD2DF073DF2E80911A0298
:1057F000982F9F7009F46CC09B8591FDFCC0998522
:1058000097FD6EC0292F2695620F6F832A8527FD8D
:10581000E1C0322F3695730F788791116DC0211139
:10582000E4C0837009F482C08A8587FD7FC03F8110
:10583000432FF8018081982F977047FD91C0442332
:1058400009F4DEC020911A02413009F4E2C023704D
:1058500009F49F5F9770887F892BF8018083DD2092
:1058600009F49CC08051F80180834111A3C0988540
:10587000911108C08B8581FF05C080911A02837049
:1058800009F483C0432F8DCF5C2D5195251708F067
:1058900080CF252F220F7DCF8D2D8073D82E09F03C
:1058A000A5CF233008F0BAC0F801808180638083DF
:1058B0008110CCC019140CF43F5FC7FCC4C0C110E8
:1058C0007F5F632F80911A02982F9F7009F094CF09
:1058D00013160CF098C06FEF630F998597FF92CF66
:1058E000892F81958695681B6F832A8527FD72C055
:1058F000822F8695780F7887503C09F473C0CC24AA
:10590000C3949E5F953018F42E5F253008F0CC0CC0
:105910006C2D6295607F80E00E94F5358C2D0E9491
:10592000D41C80911A02837009F07ECF8B8581FF91
:105930007ECF6B817C816F5F7F4F89819A810296D8
:105940000E946D0D882309F48AC03F8141E0430F16
:10595000342F4F83F8018081982F977047FF6FCFC6
:1059600020911A024F3FE1F4277009F073CF915054
:1059700071CF80911A028F7009F013CF13160CF0BB
:105980007CC04FEF430F4F830CCF0E9448108770AD
:105990009927892B11F4F80110824F81988501CF46
:1059A000237009F491509770887F892BF8018083C8
:1059B000D11058CF432F9885F4CE0E9448108170A3
:1059C00062E0680F81E80E947826F80110824F811A
:1059D0009885E7CE822F81958695781B7887503CF5
:1059E00009F08DCF32E0C32E8CCF503C09F087CF29
:1059F00082E0C82E89CF982F937009F000CF68CF2E
:105A0000D11030CF34CF332309F4F9CE61E0630FE6
:105A1000F6CE277009F01ECF9F5F1CCF2C875D87C5
:105A20000E9448105D852C85682F503C89F063707A
:105A30002250220F620F81E85D870E9478267885C8
:105A40003F815D8531CF7150632FD0CE315035CF3E
:105A500067708EEF820F880F880F680FECCF6B8115
:105A60007C816F5F7F4F89819A8102970E946D0DC3
:105A70003F81811109C0432FDCCE332309F491CE3D
:105A800041E0430F4F838DCE4FEF430F342F4F83B1
:105A9000D0CEEF92FF920F931F93CF93DF93CDB7AA
:105AA000DEB72B970FB6F894DEBF0FBECDBF0DEE5D
:105AB00011E0EE24E39406C00A5F1F4F82E00D312F
:105AC000180769F1F8013397F080FF20A9F33196A8
:105AD00080818F83319680818887AE014D5F5F4FD3
