:100000000C94C3020C9404030C9404030C94040396
:100010000C9404030C9404030C9404030C94040344
:100020000C9404030C9404030C9404030C94040334
:100030000C9404030C94F30C0C94C90C0C9404035E
:100040000C9404030C9404030C9404030C94040314
:100050000C9404030C9404030C9404030C94040304
:100060000C9404030C9404030C9404030C940403F4
:10007000202620262026972533267D2539253D2636
:100080003128E527F1275E27EE27EB27E827D12740
:1000900014362D362436E135CA3524361D36CA3598
:1000A00024365A55012001010038080000000000E4
:1000B0000000000000000000000000000000000040
:1000C00000008100450027FF24FF2A902B1C210CF3
:1000D00022FB850084008907881B8B008A478109E1
:1000E0006F06444247004501B083B300B1012511BA
:1000F0000002020007FF00085504085A0000F8003B
:100100000990000A1E32050000FFF0000026121BB5
:10011000251C1C012F375249BF6D7FFF0026095C4B
:100120002576FFAE373FA45BBF657FFF1800000058
:100130000C8080808011081D0829083508C0C0C0C7
:10014000C0C0C0C0C0C1C2C3C4C0C0C0C0C0C0C0A5
:10015000C5C6C7C8C9C0C0C0C0C0C0C0CACBCCCD4E
:10016000C0C0C0C0C0C0C0C0CECFD0D1D2C0C0C03F
:10017000C0C0C0000000000000000000000000003F
:1001800000000B00000BBA000BBA640BBA4145AB80
:100190003115220000000000000BBB00BBAA33BADF
:1001A000A3652736452777652777772777727222E9
:1001B00022222200000000AAAAAABB22270653225C
:1001C000203D457707456D200465567044666604FA
:1001D00046446600000000B0000000ABB000006ABA
:1001E000B0000064AB0000D44B0000D44B0000D141
:1001F0003B00000000000A000007A30000AA440022
:1002000003A444007A145000A120050330769973AA
:100210005DE981A11522208452200265200215206B
:10022000028952028986259918425581815555883F
:1002300085566572222250522225072222570955DF
:1002400055208855560698554029465602946662B0
:1002500028447021444441844411441111456618D6
:100260004554521656577A662006367001933078F8
:10027000ED3300D6AB000053A000006AA00000A33D
:10028000000000300000000000000000000000003E
:10029000000000339C88883DEE88883DEEE88E3370
:1002A000CECEE873DCCCCD0533ECED002533330046
:1002B0000072238E456666E156666486666415663E
:1002C0004412004DD307DCD372DCD3333D333233D9
:1002D00022770064167078167078CE002ECED3DCAC
:1002E000CE3337CD333700333700007000000000C5
:1002F000000000CE333000625000003200000000E9
:1003000000000000000000000000000000000000ED
:1003100000000000000000000000000000000000DD
:1003200000000700000A7F000AA7CC0BAA5EECBA07
:10033000D9E557000000000000B7FF0B6FFFF6FF84
:10034000FF66C7666F677DC66F677DC6FF6C75C643
:10035000FF6CED00000000FF777AAA55D3B51DDDD4
:10036000DBD55433221415D2284444B2814444B816
:1003700081114400000000A2000000ABB000004A60
:10038000B2000041BB000051DB000051DB0000580F
:100390003200000000002B000002BD00003B1100F5
:1003A00003B111002B113000B13004033024992324
:1003B00045E988B991D55A9144DBAC4432BDCC3281
:1003C00023ECCC039EEECC999EEEC699EE5EC69EC3
:1003D000E55EC676F66CEB66F66CAD66F667AE6FFC
:1003E000F6CACE6FF67CCE6FF766E56F666CE96F86
:1003F00066CEDBD9111111E881881199881444E97E
:100400008441439144422B813024DD32259D302E9E
:10041000C5330054B2000043B000004B200000B3CD
:10042000000000300000000000000000000000009C
:10043000000000339C98993DEE999E35ECEEEE332A
:10044000CECEEE235CC6650D3DC6CC003DDD77000B
:1004500000233DEE85ECC6E515ECC6E155ECC6156E
:100460005ECC765CC5A7FFC5D7FFFF7766F6F6774B
:100470007D3200FF6C7BDCFF67766CF66FF6CDFF9C
:10048000FF675BFFF6C300FF630000A000000000F1
:10049000000000CED3300053D20000D30000000093
:1004A000000000000000000000000000000000004C
:1004B000000000000000001000101180008000907B
:1004C000009000F000F000C000C00C900900900106
:1004D00010001100000000111011110080800009AF
:1004E000009000F000FFFF0000C00000009000112D
:1004F0001011110000000010111100008000800098
:1005000090009000FFFF0000C000C000900090101D
:1005100011110000000000001110100800808090F0
:10052000009009F000F000C000C00C90090090118C
:100530001000100000000000100000008000000902
:10054000000000F00000000C00000000900000001F
:100550001000005454545554545456565253525249
:10056000FA52565653525252FB5756565252525303
:100570005258565454545454545556032B1A202848
:10058000273F3F3F3F0011241FBECFEFD0E1DEBF2A
:10059000CDBF23E0A0E0B1E001C01D92A030B207C2
:1005A000E1F714BE88E10FB6F894809360001092D2
:1005B00060000FBE0E94111A811102C00E94EF1943
:1005C000F8940E94081B10920F0181E080930E01A5
:1005D00080EE8093130184E1809312010E94CC1D70
:1005E00082EC90E0FC0125913491F901FF273083E2
:1005F000029620E0803F9207A9F778940E941C1D84
:100600000E94F21D0C940C380C940000E1E5F0E11E
:10061000B0910C01B03059F01B2EB191BF70A19177
:10062000019009F00C921A94C1F710920C010895F0
:10063000112410920C0108959C2DDF92EF92FF92ED
:100640000F931F93CF93DF931124022FD0900B01B0
:10065000C0900C01742F372F3695369536953A9504
:10066000E0EAFFE0E30FF11D0080600D262F2695E4
:10067000269526952A9577706770293168F5383167
:1006800058F5402F407C21F046FD405D47FF405625
:10069000B3D016F504FF12C0E70EF11CF70105FFF9
:1006A00002C0108101C0149162FD129561FB16F425
:1006B000110F110F60FD110F17FD0EC0770F770F8F
:1006C00030EF8F70669510F032958295760FC70FD8
:1006D00008800322082A0882DF91CF911F910F9191
:1006E000FF90EF90DF90C92E08950F93002701C06F
:1006F0000F93BF924F925F926F927F928F929F92D1
:10070000CF92DF92EF92FF921F93CF93DF93B02EA1
:10071000022F1124D0900B01C0900C01E9E1F8E107
:100720004F01742F572E56945694569477706F93AA
:100730007F9378505914C8F4783FB9F0E0EAFFE0AD
:10074000E50DF11D0080600D462E469446944694BA
:1007500067703B016850683F19F0481408F431D0C5
:100760004A94B301481408F42CD07F916F915A94A5
:100770005914B8F4E0EAFFE0E50DF11D0080600DCA
:10078000462E46944694469467703B016850683FF5
:1007900019F0481408F415D04A94B301481408F429
:1007A00010D0DF91CF911F91FF90EF90DF90CF900D
:1007B0009F908F907F906F905F904F90BF900F9120
:1007C00008954FE067FF461B67FD460F77FF471B05
:1007D00077FD470F04FD4150502F529556955670A6
:1007E000450F465047FD44274295920105D00EF42F
:1007F00077D103FB04F90895C1E5D0E104FB03F9C7
:10080000C11019C0E0910101F091020110910001A5
:1008100011FF02C0108101C01491FF27E12F17FFC3
:1008200004C0EC54F04F108103C0EC5FF748149102
:10083000185010930D0159E1359FD0011124A8548F
:10084000B44FA20FB11D2C91203C88F12F732C15B1
:1008500068F5CEF4E0ECFFE0E20FF11D10811E3FE1
:1008600038F458E0103E38F0E0E0F9EF006206C0DE
:1008700071F50F7E08C0E0E0FAE90F7D159FE00DED
:10088000F11D11247F01022E000C020EC00DD11D9E
:100890003881340F08F4306F388350E2259FE0012F
:1008A000112400900D01D00D68940895206CE09102
:1008B0000101F091020110910001E30FF11D11FF00
:1008C00008C0108107C0EF54F04F308110C0E89489
:1008D00008951491FF27E22FE295E695E695E370DF
:1008E000E10FF11D17FDEFCFEF5FF748349150E2B4
:1008F0002502310D203C50F00394E02CF32EE22F22
:10090000EF73FF27E054F04F10810DC0E02CF32E61
:1009100058E0E59E112DF59EF0011124E10FF11D27
:10092000E051F846149111242EF41E3F18F079F688
:100930000F7EE894CD1054C0FD2D3FEFEF2FF15006
:10094000F87FCF0FD11DCF0FD11DCF0FD11DE77075
:1009500061F0E23068F139F1E43000F1D1F0E630D5
:1009600098F069F007C06897E85F0D88031610F4E7
:10097000302DE7E00A88031610F4302DE6E00F84EE
:10098000031610F4302DE5E00C84031610F4302D1E
:10099000E4E00984031610F4302DE3E00E80031622
:1009A00010F4302DE2E00B80031610F4302DE1E05E
:1009B0000880031610F4302DE0E0F850A0F6307FE8
:1009C000431708F484CF3E2FEE0FE30FCE0FD11D57
:1009D000F881E9810A80FF700082FF27F88307C051
:1009E0003C2D0C2C000C0C0CC00DD11DC3945B2FA6
:1009F0005F70542B2A83A9835883C0920C0150E264
:100A0000359FE001112400900D01D00DF701E0FFAA
:100A10000DC0EE7F58E0019009920190099201907B
:100A20000992019009925A95B1F740C00590099238
:100A300005900992059009920590099205900992F6
:100A400005900992059009920590099205900992E6
:100A500005900992059009920590099205900992D6
:100A600005900992059009920590099205900992C6
:100A700005900992059009920590099205900992B6
:100A800005900992059009920590099205900992A6
:100A90000590099205900992059009920590099296
:100AA000059009920590099205900992E0ECFFE00B
:100AB000E30FF11D1083A097306C3C937EF458E057
:100AC000103E20F0E0E0F9EF006203C0E0E0FAE958
:100AD0000F7D159FE00DF11D11247F01689408958D
:100AE000CF928F939F9377FB16F0E70EF11C26F0C1
:100AF000072E000C000CC00D02FF07C0ACEFBFEFCB
:100B0000845E9F4F5EF4572F05C0A4E0B0E036F43A
:100B1000572F5195550F550F850F9B1F48E0C42E39
:100B200016F0C71A0EF4C70E695F43EC55E000FDDE
:100B3000615F460F511D0A0101FB04FD11C0112721
:100B400005C0CA94D9F08A0F9B1FCC5F4427552754
:100B5000BA01F0010994CA9489F08A0F9B1FCC5FF7
:100B600044275527BA01F70105FD04C015917F01FF
:100B7000F001099411917F01F00109949F918F91E7
:100B8000CF9011240895A8C01CC022C02AC032C032
:100B90003CC046C051C05CC067C070C079C080C056
:100BA00087C016C38BC0A8C0BFC0DBC009C133C19A
:100BB00064C1ABC1FAC140C271C29BC2C9C2E5C225
:100BC000FAC2FC01339616F045919AC0419198C043
:100BD000FC0132961EF045915591ACC04191519166
:100BE000A9C0FC0132961EF045915591C0C04191BB
:100BF0005191BDC0FC01319626F04591559165910A
:100C0000E7C0419151916191E3C0FC01319626F01A
:100C100045915591659107C141915191619103C1F0
:100C2000FC012EF0459155916591759130C141912E
:100C30005191619171912BC1FC012EF0459155911B
:100C4000659175916CC1419151916191719167C1AB
:100C5000FC012EF04591559165917591B0C141917E
:100C6000519161917191ABC1FC0126F05591659153
:100C70007591EBC1519161917191E7C1FC0126F031
:100C800055916591759113C25191619171910FC206
:100C9000FC011EF06591759133C26191719130C272
:100CA000FC011EF0659175915AC26191719157C214
:100CB000FC0116F075916EC271916CC217FDC2C233
:100CC000FC0116F4E08101C0E491E295EF70F9E7D0
:100CD000EB0D4491429592C217FDB4C2FC013396CC
:100CE00016F4E08101C0E491EF70F9E7EB0D449157
:100CF000429584C2419103C0FC01EEF345914295B7
:100D0000F9E7E42FE295EF70EB0D34913295E42F83
:100D1000EF70EB0D4491432B17FD4F7016FD407F94
:100D20006DC25191419104C0FC01E6F3559145918A
:100D300042955295F9E7E42FEF70EB0D44914295FF
:100D4000E52FE295EF70EB0D3491432BE52FEF701B
:100D5000EB0D54915295107E41F550C25191419145
:100D600004C0FC01E6F35591459142955295F9E78F
:100D7000E42FE295EF70EB0D34913295E42FEF7094
:100D8000EB0D4491432BE52FE295EF70EB0D349181
:100D90003295E52FEF70EB0D5491532B107F19F422
:100DA0002DC213FD6F7014FD507F17FD4F7016FD9F
:100DB000407F15FD5F7022C261915191419105C044
:100DC000FC01DEF3659155914591429552956295EE
:100DD000F9E7E42FEF70EB0D44914295E52FE29592
:100DE000EF70EB0D3491432BE52FEF70EB0D549129
:100DF0005295E62FE295EF70EB0D3491532BE62FD1
:100E0000EF70EB0D64916295187F59F6F7C161910F
:100E10005191419105C0FC01DEF3659155914591D9
:100E2000429552956295F9E7E42FE295EF70EB0D4C
:100E300034913295E42FEF70EB0D4491432BE52F65
:100E4000E295EF70EB0D34913295E52FEF70EB0DDD
:100E50005491532BE62FE295EF70EB0D34913295C0
:100E6000E62FEF70EB0D6491632B1C7FE1F5C6C19B
:100E7000719161915191419106C0FC01D6F3759138
:100E80006591559145914295529562957295F9E714
:100E9000E42FEF70EB0D44914295E52FE295EF7052
:100EA000EB0D3491432BE52FEF70EB0D54915295E0
:100EB000E62FE295EF70EB0D3491532BE62FEF7098
:100EC000EB0D64916295E72FE295EF70EB0D349195
:100ED000632BE72FEF70EB0D749172951E7F09F471
:100EE0008DC111FD7F7017FD4F7016FD407F15FD00
:100EF0005F7014FD507F13FD6F7012FD607F7EC127
:100F0000719161915191419106C0FC01D6F37591A7
:100F10006591559145914295529562957295F9E783
:100F2000E42FE295EF70EB0D34913295E42FEF70E2
:100F3000EB0D4491432BE52FE295EF70EB0D3491CF
:100F40003295E52FEF70EB0D5491532BE62FE29580
:100F5000EF70EB0D34913295E62FEF70EB0D64914D
:100F6000632BE72FE295EF70EB0D34913295E72F6D
:100F7000EF70EB0D7491732B1F7F09F43FC117FDC8
:100F80004F7016FD407F15FD5F7014FD507F13FDFF
:100F90006F7012FD607F11FD7F7010FD707F2EC19C
:100FA000719161915191419106C0FC01D6F3759107
:100FB0006591559145914295529562957295F9E7E3
:100FC000E72FE295EF70EB0D7491E62FEF70EB0DCC
:100FD00034913295732BE62FE295EF70EB0D64910F
:100FE000E52FEF70EB0D34913295632BE52FE295F1
:100FF000EF70EB0D5491E42FEF70EB0D34913295BF
:10100000532BE42FE295EF70EB0D44911F7709F419
:10101000F5C016FD407F15FD5F7014FD507F13FD78
:101020006F7012FD607F11FD7F7010FD707FE6C054
:1010300071916191519106C0FC013196D6F3759181
:1010400065915591529562957295F9E7E52FE29574
:10105000EF70EB0D34913295E52FEF70EB0D54915D
:10106000532BE62FE295EF70EB0D34913295E62F7E
:10107000EF70EB0D6491632BE72FE295EF70EB0DB2
:1010800034913295E72FEF70EB0D7491732B1F7332
:1010900011F6BDC071916191519106C0FC0131966C
:1010A000D6F3759165915591529562957295F9E7D0
:1010B000E72FE295EF70EB0D7491E62FEF70EB0DDB
:1010C00034913295732BE62FE295EF70EB0D64911E
:1010D000E52FEF70EB0D34913295632BE52FE29500
:1010E000EF70EB0D54911F7129F591C071916191D1
:1010F000A9CFFC013296DEF37591659162957295E8
:10110000F9E7E62FE295EF70EB0D34913295E62F7B
:10111000EF70EB0D6491632BE72FE295EF70EB0D11
:1011200034913295E72FEF70EB0D7491732B1F7094
:1011300019F476C014FD507F13FD6F7012FD607FAF
:1011400011FD7F7010FD707F62C07191619105C0CB
:10115000FC013296DEF37591659162957295F9E71F
:10116000E72FE295EF70EB0D7491E62FEF70EB0D2A
:1011700034913295732BE62FE295EF70EB0D64916D
:101180001770E1F64DC0719104C0FC013396E6F38F
:1011900075917295F9E7E72FE295EF70EB0D3491B9
:1011A0003295E72FEF70EB0D7491732B11FD7F706B
:1011B00010FD707F3EC010FD45C0FC01339616F453
:1011C000E08101C0E491EF70F9E7EB0D749131C05B
:1011D00010FD38C0FC0116F4E08101C0E491E295F5
:1011E000EF70F9E7EB0D749124C0513090F4613049
:1011F000C8F4713000F504FFA4CCADCC4130A8F3A5
:1012000025F1403118F42881207F422B488351304A
:1012100070F315F1503118F42981207F522B598336
:10122000613038F305F1603118F42A81207F622B98
:101230006A83713000F3F5F0703118F42B81207F50
:10124000722B7B8304FF7DCC86CC28812F70422BB0
:101250004883513060F2F5F629812F70522B598363
:10126000613038F205F72A812F70622B6A83713062
:1012700010F215F72B812F70722B7B8304FF61CC4A
:101280006ACC99E1969FF0011124E80FF11DE85412
:10129000F44F40830895AB2DC49188B812C0FA2D45
:1012A000C49158B8E70F0490EF9168B8E70F149015
:1012B0003730000078B879F7CF91B880C29588B8F8
:1012C000A881982F1C012C013C0198B807FC2B2CFD
:1012D00006FC3B2C05FC4B2C28B804FC5B2C03FCC7
:1012E0006B2C02FC7B2C38B8C4914C0117FC8A2E65
:1012F00048B816FC9A2EEF91E70F1C0158B80490DD
:101300002C0115FC2A2E68B814FC3A2E13FC4A2E28
:1013100012FC5A2E78B8EF91E70F149088B8C49158
:10132000C49198B8373099F5CF91B88028B8C29554
:10133000A8813C0107FC6B2C38B84C011C0106FC51
:101340007B2C05FC8B2C48B8C491C49158B800C0C4
:1013500028512C0104FC9B2C68B803FC2B2C02FCAC
:101360003B2C17FC4A2E78B83C01FC0116FC5A2E87
:1013700015FC6A2E88B814FC7A2E13FCEA2F12FC96
:10138000FA2F98B84F0190E208F480C05AC0C49177
:1013900028B8AB2DCECFF50FED0D48B8C191A19176
:1013A000288058B84C90C295A295388068B85C9057
:1013B000C191A19178B804905FC0EF700E2E48B82B
:1013C000E295E029CE2FAE2F288058B8388048808B
:1013D000588068B800C000C0EDCF38B8F001F3FD08
:1013E000DACFFC0D3AC049F3363018F0000048B8A7
:1013F00056CF48B80000E70FFA2D982F1C010C01BA
:1014000058B8343011F0A08101C0A49168B82C0103
:101410002850A7FD2B2CA6FD3B2C78B8A5FD4B2C06
:10142000A4FD5B2C3C0190E288B8A3FD6B2CA2FDCF
:101430007B2CA1FD0B2C98B8A0FD1B2C400130F19A
:1014400000C028B8EF91E90240F2313038B858F6C0
:10145000F0010A2CF3FD0B2CF00D48B8ED0DC591F1
:10146000288058B8C2953880A59168B84C90A2954C
:10147000C59178B85C90A591285088B868808C9008
:10148000C295A29598B878809C90D8F68FEF28B82E
:101490009EE08DBF9EBF239549F1000038B80490AF
:1014A000239521F1000048B804902395F9F000003D
:1014B00058B804902395D1F0000068B804902395A3
:1014C000A9F0000078B80490239581F0000088B856
:1014D0000490239559F0000098B80490222706C084
:1014E00088E242D2685028F0FBCFE5C128B96850A5
:1014F000B8F7609111016017C1F3CC2790900001FB
:10150000E0910701F091080191919017A1F41191D8
:101510004191E0930701F0930801E0910101F091FE
:101520000201812F869586958695E80FFC1F91FE16
:101530000FC0E0810EC0329740810000EECFE05531
:10154000F04F00C06191A190B190C19051910BC03A
:10155000E491FF27E7FDF3CFE050F8486591A590AF
:10156000B590C5905591E0910301F0910401880F69
:10157000E80FFC1F92FE04C0A191B191000002C0CF
:10158000A591B59194FE14C0E12FFEE08080899270
:101590008992899289928992899289928992899273
:1015A000899289928992899289928992899202C0BC
:1015B00089E1DAD111972D01362F762F37706871B6
:1015C000707E289820EC4770E2E00E94A30D000096
:1015D000603031F432FD0FC031FF0AC000C0A9C035
:1015E000C62F86E2C1D12051C850A1F30000F9CF27
:1015F000B12FB77005C0B12FB770AB0ECB2DB8802F
:10160000C295BB0FBB0FDB2E90E2BD2F22240395AA
:101610001395403029F188814DBE5EBEEF91E902FD
:1016200050F1313068F5F0010A2CF3FD0B2CF00D70
:10163000ED0DC591A5914C90C295A29538805C9016
:10164000C591A59168808C90C295A29578809C9058
:10165000241B473019F53324210131018824F2CEAF
:1016600089E182D188814DBE5EBE332421013101E2
:1016700041012850E7CEF001F3FD32C0FC0DD8CF78
:10168000000009F03AC0EF700E2EE295E029CE2F4F
:10169000AE2F38804880588004902DC0463029F401
:1016A0003324210131010490DACF453029F4332469
:1016B0002101662400C0F7CF443021F433242101F6
:1016C0000490F8CF433021F43324442400C0F8CFF1
:1016D000423019F433240490F9CF049000C0FBCFBA
:1016E000F50FED0DC191A1914C90C295A295388056
:1016F0005C90C191A1910490A5CFE70FFA2D382EEF
:10170000482E582E32014201343011F0008001C0C1
:10171000049006FC3B2C05FC4B2C04FC5B2C03FCCE
:101720006B2C02FC7B2C01FC8B2C00FC9B2C00C046
:101730008FCF8EE419D1812F877009F0873011F097
:10174000000002C076FF0FC0CA2D288016D128B82D
:101750008CE215D18A95E9F700C06AC0CA2D2880AD
:10176000519613D10FC08030C9F71196CA2DC07F92
:10177000C2952224FD01EC0FF21D75FF02C02080EE
:1017800001C0249028B8FD0175FF12C0019011908E
:101790002190319041905190619071908190919001
:1017A000A190B190C190D19041915191E6D010C0DB
:1017B00005901590259035904590559065907590C1
:1017C00085909590A590B590C590D59045915591EF
:1017D000CC27802DB8D0C395812DB5D0C395822D4F
:1017E000B2D0C395832DAFD0C395842DACD0C39513
:1017F000852DA9D0C395862DA6D0C395872DA3D0BE
:10180000C395882DA0D0C395892D9DD0C3958A2DD1
:101810009AD0C3958B2D97D0C3958C2D94D0C3951A
:101820008D2D91D0C395842F8ED0C395852F8BD0CD
:1018300082E1A5D08A95E9F700C000C00395139511
:10184000205929F081E690D02051E1F700C04ECE1A
:101850003091000137FF59C08DB79EB780930901C1
:1018600090930A018FEF9EE08DBF9EBF8FE57CD0E5
:10187000DFE0E0EBFBE000C0CC2733FF02C081914A
:1018800001C0859160D0C3958BE16ED033FF02C05B
:10189000819101C0859157D0C39579F70027E0E089
:1018A000F0E100C011913196E0930701F093080137
:1018B00080E15AD01ECE84E157D080E455D000900C
:1018C0000E01001A00920E0133D1E0910F0142E0A7
:1018D000E427E160E0930F01E6E0E09336008091B9
:1018E000050190910601182E192A39F480910901F9
:1018F00090910A018DBF9EBF08956FE97FE06DBF93
:101900007EBF11248F939F93189583E538D08A95D5
:10191000E9F734D0002770911101701741F0039559
:1019200007D182E62CD08A95E9F72CD0F4CF00D1EC
:10193000E0910F0142E0E427E160E0930F01E6E06F
:10194000E0933600089589938993899389938993C5
:1019500089938993899389938993899389938993A7
:101960008993899388830895869500F0869500F081
:1019700000F08A950000E9F70895000000000000DB
:10198000000000000000000000000895992788274B
:101990000895EABDE0918400E2FD04C0E1FD02C0CB
:1019A000000000C0E0FF00C0F09BE491289AEAB577
:1019B000F4991895F09B09C0F39B11C0E0E7EEBBCA
:1019C000E3E0E0938B00E7E006C0E1E7EEBBE0E098
:1019D000E0938B00E7E4E0938A00EAB51895E2EF24
:1019E000EEBBEAB51895EABDE0918400E2FD04C0C3
:1019F000E1FD02C0000000C0E0FF00C0F29988C015
:101A0000EFB7EBBDFF9328980F921F929CD0B49A2A
:101A1000F19B6DC0E0910E01EA95E0930E01F9F0A3
:101A2000F0911001EF1B41F080F51F900F90FF9196
:101A3000EBB5EFBFEAB51895F8E0FA95F1F70000BD
:101A4000E2E0FF2701900F92EE31E1F70E94280CAF
:101A5000EEE1FF27EA950F900082E1F711C0EDEF6C
:101A6000E0930E01E9EFEEBBE0911201E195E45045
:101A7000E0931001E0911301E09311011F900F908A
:101A8000FF91EBB5EFBFEAB51895E131A0F0129ADE
:101A900009F412981F900F90FF91EBB5EFBFEAB5D4
:101AA000F79B1895E7E0E0938900EBE1E09388006D
:101AB000F798EAB518951398009016011090170141
:101AC0008894009B08941794079400921601109232
:101AD0001701E13021F400921401109215011F90BA
:101AE0000F90FF91EBB5EFBFEAB5139A1895F29AF4
:101AF0001F900F90FF91EBB5EFBFEAB5F79B1895DC
:101B0000E3E0E0938900EDE8E0938800EAB51895FA
:101B1000F69906C0EAB52898F59907C0F498189583
:101B20002898EAB5F698F2981895F598F2981895CD
:101B30002898E2E000C00E94A30DE0910E01EA9512
:101B4000E0930E0108950F931F932F932091180196
:101B5000239509F42A952093180110911C01E09116
:101B60001D01F0911E0100911A01100F00911B013F
:101B7000E01F0491E0931D0110931C0100901901D6
:101B8000029E112D219500901F01029E110D01034F
:101B9000000810912301E0912401F09125010091AA
:101BA0002101100F00912201E01FF099289A049161
:101BB000E093240110932301F00100902601029E7E
:101BC000112D219500902001029E110D01030008A6
:101BD0001F0E0E1E10912A01E0912B01F0912C0195
:101BE00000912801100F00912901E01F0491E0935A
:101BF0002B0110932A01F00100902701029E112D64
:101C0000219500902D01029E110D010300081F0E69
:101C10000E1E10913101E0913201F0913301F199E2
:101C2000289A00912F01100F00913001E01F0491BC
:101C3000E093320110933101F00100903401029ED3
:101C4000112D219500902E01029E110D0103000817
:101C50001F0E0E1E10913801E0913901F0913A01EA
:101C600000913601100F00913701E01F0491E093BD
:101C7000390110933801F00100903501029E112DB9
:101C8000219500903B01029E110D01030008F10D0A
:101C9000E01D2F911F910F91F058EF4F1AF4F0E0D3
:101CA000000003C0E03009F0FFEFF093B3000895A7
:101CB0009FEF90934001909341010895AA27B3E0CC
:101CC0001D92A030E9F7F4CF969587959695879564
:101CD00076956795769567950090FF100694609DC0
:101CE0001124F00191E0869508F0990F869510F087
:101CF000990F990F869508F09295E80FF3E0008010
:101D0000092A0082D5CF96958795969587957695E1
:101D10006795769567950090FF100694609D112455
:101D2000F00191E0869508F0990F869510F0990FD3
:101D3000990F869508F092959095E80FF3E0008052
:101D400009220082B5CF8093B40B9093B50B6093BA
:101D5000FF104093B30BB2CF282F237060FD246097
:101D600061FD286009D08295F82FFF70807FE22FF7
:101D7000E80FF356849108959695879596958795E3
:101D80007695679576956795992730914001381734
:101D900039F470914101761719F480914201089548
:101DA0008093400160934101382F762F8695869568
:101DB0007695E091B40BF091B50B5091FF1085171B
:101DC00070F50090B30B701560F5759FE00DF11D77
:101DD000E80FF91F0490432F437060FD4460E8E072
:101DE0000E9EF001E40FF35584915695569F1124F1
:101DF000F00141E0369508F0440F369510F0440F9D
:101E0000440F369508F04295E30FF3E0008004227A
:101E100019F0E82FF6EB849180934201089583E056
:101E2000FBCF80E0F9CFDC018091B30B4D93893378
:101E300048F4893118F45770770F07C05F707295B6
:101E4000707F05C05F737295707F770F770F572B88
:101E50005D936D930895DC018091B30BFA014D9170
:101E600041934D91542F893378F4893130F4477080
:101E7000473009F44FEF56950DC04F704F3009F4BD
:101E80004FEF52955F7008C04F734F3309F44FEF17
:101E900052955F70569556954193FB014D91419334
:101EA000519308956091B30B4D915D91752F6933F6
:101EB00078F4693130F45770573009F45FEF769554
:101EC0000DC05F705F3009F45FEF72957F70E4CFF3
:101ED0005F735F3309F45FEF72957F707695769547
:101EE0006D910895A82FB62F96958795969587950D
:101EF0009695879576956795769567957695679586
:101F00000E94AC0EE82FF5EB8491B2FD02C08695DD
:101F100086958370813019F490E081E0089518F47B
:101F200090E080E00895B370A695A37080FD02C094
:101F3000A195AD5FAB1780F7F3CFF7EDE82F849154
:101F4000FF5F94910895DB011496F9E7E82FE7FB12
:101F5000E6F9E0686491762F6F70660F6D93707F7D
:101F6000769576957D9308950F93022F242F462F13
:101F7000DC018D919D916D917D9102D00F9108951D
:101F8000DC01FB015091A5023091A602851B930B49
:101F90005091A7023091A80250583040587F651BDD
:101FA000730B382F305E392F3F4F303009F00895D2
:101FB000362F305E372F3F4F303009F008950F93A2
:101FC000003209F59F938F937F936F934F932F93D5
:101FD000CD01BF019695879596958795969587959E
:101FE0007695679576956795769567950E94AC0E80
:101FF000E82FF5EB849187FD00E32F914F916F91CE
:102000007F918F919F91342FAB01BC01832F0E9450
:102010009D0F0E94051E0F910895EDEAF2E0A9EFD1
:10202000B0E18191919180549F4F8D939D938191C7
:10203000919180549F4F8D939D93ABE5B1E099278B
:102040008CE09C9319968A95E1F7A7ECB1E09FEF9D
:1020500080E29D938A95E9F708952F923F924F92DF
:102060005F922090F9103090FA104090FB10509041
:10207000FC10FA0160682CE030E047E050E01124E9
:10208000782F01C07395959197FF65C0892F807750
:10209000480F511D405450409F709295290F311D9B
:1020A00020583040D101A21BB30BA058B14050F7CB
:1020B000C201841B950B8058914020F7A05C1894B6
:1020C000BE4F21F4805C18949E4FE1F290E8A72F58
:1020D000A69508F49695A69510F496959695A695CE
:1020E00008F49295BB27A953BE4F8C91982351F2C7
:1020F0008DE0A4E5B1E017968A9539F00D909D9199
:102100009713F9CF07FEF7CFBDCF8CE090E0ABE59A
:10211000B1E00C9007FE0DC006FE982F19968A9527
:10212000C1F7903021F166FF22C0892D989FA01938
:10213000B1096D937D937F936F930A01CD01B9012E
:102140000E94130FA0016F917F9111241D921D9287
:102150001D921D9297CF9F3799F0592F3591259158
:10216000422F407F47602F7022952C609BCF739544
:10217000959197FDFCCF9F3719F095919591F7CFE9
:102180009927872F5F904F903F902F9008958C3024
:1021900048F499E0899FD001A55ABE4F11249D9122
:1021A00097FD03C081E090E008959F778D919C0199
:1021B000CD01FB013296AF0134960F010E942B0F27
:1021C000F00111247D9171937D9171933396319338
:1021D0007D9171937D91719321938827992708951B
:1021E00090E8A82FA69508F49695A69510F49695D4
:1021F0009695A69508F49295BB27A953BE4F0C90CF
:10220000909509220C92A3E5B1E09DE011249A95E6
:1022100039F019960C900812FACF11971D92F7CF4A
:1022200008958C3048F499E0899FD001A55ABE4F9B
:1022300011249C9197FD01C00895FB0112962191F4
:10224000319141915191CD01B9010A010E94130FC1
:10225000A0011124329671917D9371917D933396F3
:10226000919171917D9371917D938191199790686E
:10227000E091F910F091FA10E21BF30BE058F140F5
:1022800060F4E091FB10F091FC10E41BF50BE058BA
:10229000F14018F49D938D9308951C920895EDEAF2
:1022A000F2E0A9EFB0E12191319120543F4F2D93FD
:1022B0003D934191519140545F4F4D935D93ABE5F8
:1022C000B1E09CE0092E1124FA018C9187FF13C024
:1022D00012960E94520F621B730B60587E4F48F09B
:1022E0004E1B5F0B40585E4F20F014960A9469F71E
:1022F000089515971C9219960A9439F70895DAE211
:10230000E3EBECF4F5FDFEBEB6756D6C40E090912C
:10231000A7029770BEE0A92FA05DF2E2EEEF9EE06B
:10232000989FE00DF11D8DE0407EC1F41590012CC9
:1023300015900D920D920D920D921D920D921D927F
:102340000D921D920D921D920D921D921D928A95D5
:1023500071F71D921D921D9211240895562F677CCE
:102360005873649FB001549F512D41952591322F90
:10237000277C3873249F060E171E212D277C349F3F
:10238000150E312D3873230F922F2591322F277C74
:102390003873249F060E171E212D277C349F150E9F
:1023A000312D3873230F9D939D939D939D932D9372
:1023B0009D932D939D932D939D932D939D932D935D
:1023C0002D938A9509F72D932D932D93112408951C
:1023D00040E0BBE0A1EB407E49F46DEA80FF60E0A5
:1023E0006D936BE080FF6FEF6D930895962F677C80
:1023F0009873649FB001949F912D419525E880FFCB
:1024000020E0249F060E171E212D277C38E280FF36
:1024100030E0349F190E312D3873230F2D9323E0B4
:1024200080FF27EC249F600D711D777C38E080FFD2
:1024300038E3349F910D9873970F9D93112408955D
:1024400060E0BBE0A1EAF8E7E1EE2FE0607E29F46E
:1024500005900D922A95E1F70895782F877C78737F
:10246000869FC001769F712D61954591542F477CC1
:10247000469F080E191E412D477C5873569F170E14
:10248000512D5873450F4D932A9579F711240895CE
:102490008091B60B9091B70B880F991F65E27FE78B
:1024A000861F971F6BED86278093B60B9093B70B13
:1024B000089500000000000000000000000000007F
:1024C00000303233000000000000000030313233B1
:1024D0000000000000003031323300000000000036
:1024E00000000000000000000000000000000000EC
:1024F0000000000030323300000000000000000047
:1025000000000000000000000000000000000000CB
:1025100000303132330000000000000000000000F5
:102520003434353435353435353434353435343563
:102530000303040304040304040303040304030463
:102540000C0C0D0C0D0D0C0D0D0C0C0D0C0D0C0DC3
:10255000880F991F880F991F0F931F930091FD10EB
:102560001091FE100F5F1F4F0093FD101093FE108F
:10257000E3E01E9F102D0E9F002D110D080F191F57
:1025800060517040A8EBBBE052E030E077FD2CC01A
:10259000E8E02E9F061A170A18F011F0112457C010
:1025A000F9E0F01942FF04C0F99FE02DF89F03C045
:1025B000F19FE02DF09F1E0E000C111C000C111C51
:1025C000000C111C012C4ED041FF03C040FD06C081
:1025D00008C040FD03C0E062F5E231C0E063F5E20F
:1025E0002EC0E064F5E22BC046FD08C0F7E0F61B04
:1025F000FF0FF09FE12DF19F0E0E0DC0F9E0F61BCD
:10260000F99FE02DF89F1E0E000C111C000C111CF0
:10261000000C111C012C26D0F62FF295F07345FF0B
:1026200003C044FD08C0DDCF44FD05C0E06CEF0FE2
:10263000F4E2F01D04C0E06EEF0FF4E2F01D049030
:102640000D92EF5F0DF0E0511A94C9F75997599622
:102650006F5F7F4F5D5F3395383109F097CF1F91E2
:102660000F910895E7E01E2E1020E52FFF27E85F69
:10267000FF4E1082E32FFF27E056F04F1082E9E172
:102680001E2E069406940694E62FE00DEF700024AB
:10269000089500000000000000000000000000009D
:1026A000DC01ED91FD912D913D910D909D911124B5
:1026B000A8EBB2E084E0080E9C5FE00DF11D8827D6
:1026C00004C0159683958C30D1F04D914030C9F3FC
:1026D0004F33B8F712960E94520FE617F70790F3A0
:1026E000600D711D600D711DE617F70758F724176F
:1026F000350740F3490F511D2417350718F799275F
:10270000089500000101010202020303030404040E
:1027100005054040414243434344454647484849F4
:102720004949494A4B4C4D4E4F50505152535455C4
:1027300055565656565758595A5B5C5D5D5E5F5FFD
:102740006061FF27E82F805128F4882745D0EE5E8E
:10275000F84D0BC0E82F805128F488273DD0E85E63
:10276000F84D03C035D0E25EF84DE491ED937A95D3
:102770007617D1F07130E9F0FF27E82F805128F467
:1027800088272AD0EC5DF84DF0CFE82F805128F44F
:10279000882722D0E65DF84DE8CF1AD0E05DF84DED
:1027A000E4CFE3E6ED937A957130D9F7E2E6ED9365
:1027B0000895FF27E82F805128F488270DD0EA5C80
:1027C000F84D03C005D0E45CF84DE491ED93089515
:1027D000E82FEF3008F0EFE0EE5FF84DE491FF27CF
:1027E0000895A9EAB2E02D913D914D915D91A0E14E
:1027F000BEE088E08D938AE08D9314968BE08D93F4
:1028000014968CE08D93149680E28D9315968D939B
:102810008DE08D93179689E08D9374E0652F63703A
:1028200061956D5F822F8695A2E1BEE08ADF74E03C
:10283000652F6073629561956D5F842F8695A7E122
:10284000BEE07FDF74E0652F6C70669566956195DC
:102850006D5F832F8695ACE1BEE073DF77E060E0CB
:1028600080912A02A8E2BEE06CDF6091280270919C
:10287000290240E3A1E2BEE00C944D16E7E09E9FE2
:10288000F02D8E9FF10D1E2EE02D90E8F695E79528
:1028900008F49695F695E79510F496959695F69525
:1028A000E79508F49295E050FC410590E491882763
:1028B000F02DF923F195881F969511F490E80E2ECE
:1028C0001A94B1F799270895DC01FB0162E08D911C
:1028D0009927869597958695979581938D91782FD1
:1028E00082958F7096959695982B91938D91982FB0
:1028F000990F771F990F771F7F7371938F73819350
:102900006A9529F78D918F7381938D918F73819340
:102910000895DC01FB0162E08D919D91990F990F63
:10292000990F881F990F881F81938D91880F880FA9
:102930008295782F7F70972B91939D91807C9F73C8
:10294000892B81936A9541F78D918F7381938D9136
:102950008F73819308958A3140F0843340F08E3331
:1029600040F08F3340F080E608958F5F0895895FCF
:102970000895845C08958DE60895DC01FB016AE00A
:102980008D91E9DF81936A95D9F70895DC011B9653
:102990009CE08C918E3621F0803629F48EE68C9363
:1029A00011979A95B1F79C3009F40895119680E635
:1029B0008C9308958F93609305017093060182E2D2
:1029C00064EC0E94EA1960E87BE060930101709377
:1029D000020188E380930B01A0E0B0E18FEF91E565
:1029E0008D939A95E9F78F918130C0F091F18AE348
:1029F00064E90E94EA1960E87BE050E0A0E0B0E101
:102A000090E080EA8D939D93E0E58CEFED938D93BC
:102A10009D93E4E5ED939D939D9344C050E1A0E028
:102A2000B0E190E089EF8D939D9382E08D9380EFEC
:102A30008D939D938AE08D938FEF8D939D938BE083
:102A40008D9380E38D939D93E0E8F8E780EA98E723
:102A50002DC050E1A0E0B0E190E089EF8D939D930F
:102A600082E08D9380EE8D939D93EAE080EFED936D
:102A70008D939D93E85FE232D1F780E6ED938D93DD
:102A80009D93E2EA80EFED938D939D93E85FEA3B9F
:102A9000D1F7ED9388EE8D939D9382EC8D9389EF22
:102AA0008D939D93E0E2F8E780E498E750931F024E
:102AB0008093030190930401DB0190E285918D9353
:102AC0009A95E1F78AE980930001FFCFA8EBBBE07C
:102AD0007FEA813050F0A1F080E89CE00CD0A8EBB8
:102AE000BCE088EF9DE070E606C080E19EE003D088
:102AF00080E39EE070E27D93A817B907E1F708959F
:102B000088E19EE070E6F7DFA8EBBDE088ED9DE090
:102B100071E4F1DF88EF9DE076E4EDDF70E470931F
:102B2000B80D72E47093D70D75E47093D80D77E407
:102B30007093F70DA8EBBBE088EB9DE073E4709316
:102B4000F80D07D0A7EDBBE087ED9DE074E470932E
:102B5000170E7D935F96A817B907D9F7089580914E
:102B60001B02839580931B0270911D0290911E029F
:102B700090FF0BC068E095FD60E1760F80F47FEF79
:102B800094FF0DC09F7E9E7F0AC068E095FD60E1C6
:102B9000761B28F470E094FF02C09F7E91609093B2
:102BA0001E0270931D020C940D1860911C0240913E
:102BB0001D0290911E0292FF40E080911F028F70D3
:102BC0000E94871160911C0240911D0290911E028B
:102BD00093FF40E080911F0282958F700E94E9115F
:102BE00080911C0260911D0290911E0291FF60E095
:102BF0000E94211280911D0290911E02809597FFE4
:102C00008FEF0E947A1C08958FEF809320028093AB
:102C10002102089580E00E94D219A0E2B2E06C91F6
:102C20008D937C919D936095709568237923882777
:102C30009927672B09F081E00895A0EABFE090E2B0
:102C40008D939A95E9F708958FEF80931D02ADCF8C
:102C50006091280270912902680F791F10F46FEFBC
:102C60007FEF6093280270932902089560912802F3
:102C700070912902681B790B10F460E070E060939A
:102C8000280270932902089590912A02980F08F45F
:102C90009FEF90932A020895DC01552799278827F2
:102CA000660F771F881F660F771F881F660F771FB5
:102CB000881F33E085300DF08D5F660F771F881F0A
:102CC0003A95C1F733E085300DF08D5F803508F01F
:102CD000805D660F771F881F991F3A95A1F734E032
:102CE00085300DF08D5F803508F0805D95300DF0FA
:102CF0009D5F660F771F881F991F3A9589F733E00C
:102D000085300DF08D5F803508F0805D95300DF0D9
:102D10009D5F903508F0905D660F771F881F991FA3
:102D2000551F3A9569F7540F5D93592F52955F706F
:102D3000540F5D939F70940F9D93582F52955F7021
:102D4000540F5D938F70840F8D930895A8EFBFE0AB
:102D50008EEF8D938D938D938D930895CF93DF9305
:102D60000F93C0E0D8E980911B028295869580760A
:102D7000C80F08E507D006D005D004D00F91DF9129
:102D8000CF910895CE01602F0E94AA19C058DF4F3D
:102D90000F5F0895DC012D913D914D915D91DB0117
:102DA0006D917D918D919D91621B730B841B950B91
:102DB000DB01A058B040BF3FD9F5FC01E058F0401E
:102DC000FF3FB1F5A05730F0A05220F4E05710F0CB
:102DD000E05288F1959587959595879575956795B6
:102DE000759567954C5050402F923F924F925F924D
:102DF0006F927F928F929F921F9319012A013B013C
:102E00004C0113E0260C371C480C591CC101B201BF
:102E10000E94720F803011F01A95A1F71F919F90B8
:102E20008F907F906F905F904F903F902F9008957C
:102E300088279927089581E099270895DC01462F76
:102E40008D919D916D917D91552747FD5FEF840F89
:102E5000951F47FF4195641B7F4F0C94720F022E04
:102E60001124DA019C01AB016D917D918D919D91B1
:102E7000621B730B841B950B0114A9F107269AF1B1
:102E80000726AFEF77FD04C067FF71116FE705C03C
:102E900067FD7A1360E80194619597FD04C087FF90
:102EA00091118FE703C087FD9A1380E8332733958C
:102EB0006019EAF7982F97FD81955FEF5395831B73
:102EC000EAF797FD31953150311D35953595531BF6
:102ED000051610F457FF502D97FD5195852F992712
:102EE00087FD9FEF089599278FE70895841B950B21
:102EF000885F9F4F8051904050F4621B730B605F5E
:102F00007F4F6052704018F481E090E0089580E0B7
:102F100090E0089500251E1C3E14331E3F3FB00470
:102F200003372D21001D1D372B3FB603092E1B1A19
:102F30002D221A273F3FF4016F937F938F939F9326
:102F400090EF8DEA0E949A1A80309F918F917F9125
:102F50006F9149F0E4E1FFE264E2DC0175917D9359
:102F60006A95E1F70895DB01FC01129653E00E9497
:102F700066146D9161936D9161935A95C1F70895AF
:102F8000509100015F93552750930001DC01FB0134
:102F900090EF8DEA8193919353E00E948B146D9191
:102FA00061936D9161935A95C1F7B097CF010E94DB
:102FB000281A5F9150930001089520E0ECE2F2E0BE
:102FC00011243FEF41E03083418312821382148247
:102FD000658376831782719623952330A1F7089530
:102FE00060935F0270936002E8DF0C94F11A6091C5
:102FF0005F0270916002680F791FDFDFECE2F2E0A0
:1030000088276FEF80830C946A1CE82FEE0FFF2750
:10301000E256F54185919591EACFDF92EF92FF92CA
:103020000F931F93CF93DF9300E0CCE2D2E018819F
:10303000143048F599819A95998329F593E0199F61
:10304000C00DD11DED81FE81C019D109D5909FE041
:103050007F01ED2DE295E923D922FF27E05AF74EB3
:1030600009951F3F41F093E0199FC00DD11DED83DD
:10307000FE83C019D10918811F3F29F0D114F1F244
:10308000DD0CDD0CD982802F0E94721C6B81860FB3
:1030900010F067FD80E010F467FF8FEF682F802F3E
:1030A0000E946A1C61960395033009F0C0CFDF913E
:1030B000CF911F910F91FF90EF90DF900C94441BE4
:1030C0000FC013C030C033C039C040C044C045C079
:1030D00054C062C06BC06EC071C070C06FC06EC0A3
:1030E0001A9518831FEFF7010895F70185916591EF
:1030F000759191E1899FD001A45DBD4F11241D926E
:1031000013941D92139640915F0250916002460FF6
:10311000571F4D935D9311241D928013089511271D
:103120001883FA010895F70165916A830895F701FC
:103130006591802F7F010E946A1CD5CFF7014591D0
:103140006C81460F6A812FEF7F0101C020E0802F44
:103150000E94551CC8CFD294C6CFF7019591859196
:10316000C00DD11D7F81715008F4792F7F8311F03C
:10317000E81BF109C019D1090895133068F4F7016B
:10318000E590F590C00DD11DED83FE831A86C01920
:10319000D1091395188303C0F701E590F590E091EC
:1031A0005F02F0916002EE0DFF1D0895F701659139
:1031B0006B830895F70165916C83089594CFA8EB14
:1031C000BBE099E178E159E14427282F27FD2195BB
:1031D000921B09F008F40895362F37FD3195731BC3
:1031E00009F008F408959A31E8F787FB603011F090
:1031F0002AF460C08030B1F30AF45CC0FD01072EF0
:10320000030E0A94059E090E141E16F0020E141EDB
:10321000A00DB11D072E0A94059E090E141E16F46A
:10322000020E141EE00DF11D591B872FBE01EF0188
:10323000990FE0E5F9E1E91BF40B38C01A901E92F2
:103240001A901E921A901E921A901E921A901E9216
:103250001A901E921A901E921A901E921A901E9206
:103260001A901E921A901E921A901E921A901E92F6
:103270001A901E921A901E921A901E921A901E92E6
:103280001A901E921A901E921A901E921A901E92D6
:103290001A901E921A901E921A901E921A901E92C6
:1032A000A51BB40BC51BD40B8A9509F00994EB013F
:1032B00011240895FD0116F0A20FB41F359F16F4D6
:1032C000020E141EE00DF11D591B872FBE01EF01E8
:1032D000990FE0EAF9E1E91BF40B38C019901D924F
:1032E00019901D9219901D9219901D9219901D927E
:1032F00019901D9219901D9219901D9219901D926E
:1033000019901D9219901D9219901D9219901D925D
:1033100019901D9219901D9219901D9219901D924D
:1033200019901D9219901D9219901D9219901D923D
:1033300019901D9219901D9219901D9219901D922D
:10334000A50FB41FC50FD41F8A9509F00994EB018E
:1033500011240895FC01A0E26A9FD001112468E0C5
:1033600005900D9205900D9205900D9205900D928D
:103370006A95B1F70895A0E28A9FD001112468E010
:103380001D921D921D921D926A95D1F70895FFCF4F
:1033900080910F018170089520910F012E7F20935D
:1033A0000F01089580911401909115010895F999E4
:1033B000FECF92BD81BD60BDF894FA9AF99A7894D7
:1033C0000895F999FECF92BD81BDF894F89A80B521
:1033D0007894089560931301809312010895CF9318
:1033E000DF93C0E0D0E0FE01EE55FF4F6491CE01C7
:1033F0000E94D7192196C032D105A9F7C0E2D0E0CA
:103400006FEFCE010E94D7196FEFCE0101960E9497
:10341000D719A096C11588E0D80791F7DF91CF9111
:103420000895CF9380E090E00E94E119C82F81E0D9
:1034300090E00E94E119282F30E0322F22272C0F34
:10344000311D81E02A35354509F080E0CF9108959E
:10345000DF92EF92FF920F931F93CF93DF93EC01D4
:103460000E94111A811109C084E0DF91CF911F9150
:103470000F91FF90EF90DF900895888199818F3FA1
:103480002FEF920709F444C08A35954509F440C0EE
:1034900000E210E0D12CFF24F39406C0F394005E08
:1034A0001F4F20E4F216E9F1C8010E94E119E82E4D
:1034B000C80101960E94E119282F30E0322F2227FF
:1034C0002E0D311D488159814217530739F02F3F86
:1034D0003F4F21F7D110E2CFDF2CE0CFD11023C036
:1034E0007E0120E2E20EF11C0C1B1D0BCE01800FB1
:1034F000911F69910E94D719CE15DF05B9F780E0B9
:10350000DF91CF911F910F91FF90EF90DF90089581
:1035100081E0DF91CF911F910F91FF90EF90DF90AD
:103520000895DD2029F080E2D89E80011124D8CFB3
:1035300082E09BCFDF92EF92FF920F931F93CF9386
:10354000DF937C01EB010E94111A811109C084E014
:10355000DF91CF911F910F91FF90EF90DF90089531
:103560008FEFE816F806D9F100E010E006C0005E23
:103570001F4F011584E0180749F1C8010E94E119A5
:10358000D82EC80101960E94E119282F30E0322F71
:1035900022272D0D311D2E153F0549F77E0180E2B2
:1035A000E80EF11C0C1B1D0BCE01800F911F0E9419
:1035B000E1198993CE15DF05B9F780E0DF91CF914E
:1035C0001F910F91FF90EF90DF90089583E0DF91BE
:1035D000CF911F910F91FF90EF90DF90089581E0C0
:1035E000B7CF9093A3028093A2028FE68093A402A8
:1035F0000E94081B8FEF8093660280937302809372
:10360000800280938D0280939A0208950C94441B4B
:103610001124E9E1F1E0ACE3B1E004D0E1E6F2E04D
:10362000A2EAB2E01192EA17FB07E1F70895E62F4C
:10363000EE0FFF27E050F74CA591B591E7E0E89F2A
:10364000F001E75EFE4FA183B28311240895E7E005
:10365000E89FF001E75EFE4FA0EEA60FA5831124C0
:103660000895E7E0E89FF001E75EFE4F60831124D4
:103670000895E9E1F1E095E08081868337969A9597
:10368000D9F79093180108950F931F930E94391B47
:1036900001E612E0D80188272D9126FD26C05C9115
:1036A00051505D9309F008F5ED91FD91F03011F462
:1036B000E030D9F045914F3088F46591959113979A
:1036C0009D93ED93FD93D80155274D53544EFA0128
:1036D0000995903051F4D8011296E6CFF0E0129798
:1036E000FD93FD93D8012F752C93662725FF28C0E5
:1036F000D80115966D911D904D91439509F0149E3A
:1037000027FD6FEF639509F0169E6091A402639503
:1037100009F0169E612D5D91FD91ED911D90112096
:1037200079F0F05274917058739509F0179E1094C7
:10373000639509F0169E612D7D91E70F1397EC9329
:103740000E94311B25FF0BC0D80117964A95450FE3
:1037500010F057FD40E010F457FF4FEF4C93D801A5
:103760001D968D018395853009F096CFECE3F1E04D
:1037700082E09081939509F49A9591938A95C9F77F
:103780001F910F9108950EC010C010C011C016C037
:103790001CC01EC020C022C027C029C02BC02BC007
:1037A0002BC02DC018966C93089508950C94271B78
:1037B00014960C90600D6C930C94171B14960C903F
:1037C000061A602D6C930C94171B2F752C9308957B
:1037D00020642C93089517966C930895277F2C935B
:1037E00014966C930C94171B1B966C9308951C965F
:1037F0006C930895089508951A966C9308951996F8
:103800006C930895ADE0A89FD001AF59BD4F3C9196
:103810003062377B3D93E091A202F091A30292E0E7
:10382000699FE00DF11D9591F491E92F70E0F03062
:1038300011F4E03009F075917D93ED93FD93FD0156
:1038400011242283148215821782642F37FD089574
:1038500040830C94171B262F682F84E01124A5E9C0
:10386000B2E0ECE3F1E0403041F09281691799F069
:103870008A959381691779F083959C9197FF0BC086
:103880008A951D979C9197FF06C070819181791749
:1038900010F083951D967C9170687C93843009F0BC
:1038A0003196108262830C94021CEDE0E89FF001D7
:1038B000EF59FD4F908197FD0895203049F496FD12
:1038C00004C07085703009F09F759F7B90830895C8
:1038D0000C94021CEDE0E89FF001EF59FD4F658369
:1038E00011240895EDE0E89FF001EF59FD4F858127
:1038F000112408958093A40208958091A40208954C
:1039000022002400260028002B002D003000330068
:10391000360039003D004000440048004C00510092
:1039200056005B00600066006C0073007900810047
:10393000880090009900A200AC00B600C100CC0045
:10394000D800E500F300010110012101320144011A
:1039500057016C0181019801B001CA01E501020221
:103960002102410264028802AE02D702030330033F
:1039700061039403CB03050442048304C7041005C8
:103980005D05AF0505066106C20629079607090809
:10399000830805098E09200ABA0A5D0B0A0CC10CBE
:1039A000840D510E2B0F121007110A121D13401413
:1039B0007415BA1614188319071BA31C571E24204C
:1039C0000E22142439267F28E82A752D2930063343
:1039D0000F364539AD3C49401B442848734CFE50D6
:1039E000CF55EA5A51600C661D6C8B725A799280E1
:1039F00037885090E598FDA19FABD3B5A3C01F9326
:103A0000CF93DF93C3E7D1E011E2612FCE010E9493
:103A1000AA19A0961F5F1E32C1F7A0EBBBE0FD0103
:103A2000E45AFA40E491ED93A03C8BE0B807B9F773
:103A3000DF91CF911F9108951F93CF93DF938091D2
:103A4000001080934708809101108093480880916E
:103A5000021080934908A0E0B8E0FD01E45DF64063
:103A6000E491ED93A73488E0B807B9F7E0E3F0E11B
:103A7000C0E0D8E0AAE4B8E080818D938991819379
:103A8000E53380E1F807C1F71092001010920110A1
:103A90008FEF8093021085E098E09093020180936D
:103AA000010189E098E09093040180930301C3EB46
:103AB000D4E01EE2612FCE010E94AA19A0961F5FDA
:103AC0001333C1F780E20E94BB1960E28EE60E94C8
:103AD000EA198AE091E00E94F11A8FE090E00E94DA
:103AE000D71D41E06FEF80E00E942B1C0E94FF1C5D
:103AF0008EE88093000183E090E00E94D71DC3E12F
:103B0000D3E011E2612FCE010E94AA19A0961F5F97
:103B10001E32C1F7A0EBBBE0FD01E459FA40E4918D
:103B2000ED93A03C8BE0B807B9F782E090E00E94EB
:103B3000D71D0E94FF1C81E490E00E94D71D1092C7
:103B4000000184E190E00E94D71D80914708809396
:103B5000001080914808809301108091490880935B
:103B6000021080914A088093301080914B08809316
:103B7000311080914C088093321080914D088093D1
:103B8000331080914E088093341060EE84E1DF9111
:103B9000CF911F910C94EA19109200011092060126
:103BA0001092050180E280930B010C9418030F938F
:103BB0001F93CF93DF938C011816190674F4C0E09D
:103BC000D0E00E94C8198823E1F30E94CC190E941A
:103BD000061B2196C017D107A1F7DF91CF911F9146
:103BE0000F9108958FE98DBF8FE08EBF8FEF0E94F8
:103BF0007A1C6BEC78EE8BEB98EE0E94F01780E06D
:103C00000E946D3280E090E008953F924F925F9263
:103C10006F927F928F929F92AF92BF92CF92DF92DC
:103C2000EF92FF920F931F93CF93DF93EC01D62E69
:103C3000E42EC02E822F817D882E122F11702071CC
:103C4000E22FE064FE2E30E1B32E48E0942E960E73
:103C5000AA24A394AE0C58EF752EFE016490CE01F9
:103C600002963196049160FE33C0FC015490FE012F
:103C700033964490249662FC32C0112319F0F72D3C
:103C8000F5195F2E692D650D4A2D440D802F90E0AA
:103C9000982F8827262D207E822BCC2009F466C001
:103CA0000C2D282D0E94780361FED7CFDF91CF9194
:103CB0001F910F91FF90EF90DF90CF90BF90AF904A
:103CC0009F908F907F906F905F904F903F9008955E
:103CD00007FD3FC00068C62DD0E0D02BBECF362CEC
:103CE00032948FE03822602F62956F70402F4F70B2
:103CF000112319F08B2D861B682F4E0D6D0D2F2D66
:103D0000832D0E941C03501681F0652D62956F7003
:103D1000452D4F70112319F0EB2DE61B6E2F4E0D24
:103D20006D0D2F2D832D0E941C03451409F4BCCF6B
:103D3000642D62956F70442D4F70112319F0FB2D87
:103D4000F61B6F2F4E0D6D0D2F2D832D0E941C0322
:103D5000ABCFA62DB0E0B02BFD016490319604915D
:103D60003196549031964490EC0185CF282D0E94D5
:103D700075039ACF30E8639FF0011124E05CF109EC
:103D8000F0934501E093440130E4439FF001112496
:103D9000F0934701E09346012093430110924E01B6
:103DA0000E94A30E8091430180688093430108958F
:103DB0000E94FA1E80914801909149019093A602B9
:103DC0008093A50280914A0190914B019093A802A3
:103DD0008093A70210924C0110924D0180914301F3
:103DE00080688093430108958091430180688093A7
:103DF0004301089560587F4F81152FEF9207A0F07F
:103E0000109249011092480161158FEF7807D8F49C
:103E1000809146019091470168177907F0F47093FB
:103E20004B0160934A01089520914401309145016E
:103E30008217930768F03093490120934801611578
:103E40008FEF780728F310924B0110924A010895E2
:103E50009093490180934801D7CF90934B01809371
:103E60004A01089580934E0108954F925F926F9298
:103E70007F928F929F92AF92BF92CF92DF92EF92FA
:103E8000FF920F931F93CF93DF930091A5021091A0
:103E9000A602E090A702F090A802809148019091BC
:103EA0004901801B910BC0914C0197FD0AC18138DB
:103EB000910508F045C1815F82958F70982FCF5F83
:103EC000C8170CF00BC1C0934C0180914E018111B9
:103ED0000DC1C8018C0F911DC7FD9A959093A60244
:103EE0008093A5028115EFEF9E0708F45CC1109244
:103EF000A6021092A502970140E080914A0190919C
:103F00004B01821B930BC0914D0197FD9BC08138E3
:103F1000910508F018C1815F82958F70982FCF5F4F
:103F2000C8170CF09CC0C0934D0141119EC0C9013F
:103F30008C0F911DC7FD9A959093A8028093A702BC
:103F40003C0176946794769467947694679487702E
:103F500033E1381B8091A5029091A6022C01569462
:103F600047945694479456944794482F47708BE053
:103F7000809308108091A7028770805D809309105C
:103F800040930A104093A00FA1EABFE0EDE0F0E1FA
:103F900028E3EF01229738832196288340834D93AD
:103FA000285F385F3396203FA1F78091430187FD5A
:103FB00009C1169507951695079516950795041549
:103FC000150508F4EEC0C1E00415150509F498C103
:103FD000F694E794F694E794F694E794E614F704DD
:103FE00008F4B4C099249394E614F70409F486C144
:103FF000692D8C2F0E94DF18CF3F09F4B0C0C1118A
:1040000054C12FEF921609F4C7C091100AC1209134
:10401000B30B40914301B3018091A5029091A60298
:10402000DF91CF911F910F91FF90EF90DF90CF9094
:10403000BF90AF909F908F907F906F905F904F90C8
:104040000C94A8128038FFEF9F0708F428C18295CE
:104050008F70806F982FC1508C170CF464CFC92FCC
:10406000C0934D01442309F462CF0E94481240914D
:104070004E01282F453008F0F8C0277084E02C0F3F
:10408000281B27FDF8C0293008F028E030E0809197
:10409000A7029091A802820F931F9093A802809389
:1040A000A70281152FEF920708F412C11092A802FF
:1040B0001092A70233E1612C712C415040934E01C4
:1040C00049CF80382FEF920708F4ECC082958F70AB
:1040D000806F982FC1508C170CF4F5CEC92FC09368
:1040E0004C0180914E01882309F4F3CE0E944812BE
:1040F00040914E01282F453008F0C4C0277084E05D
:104100002C0F281B27FDC4C0293008F028E030E020
:104110008091A5029091A602820F931F9093A60210
:104120008093A50281155FEF950708F4C1C0109236
:10413000A6021092A5022091A7023091A802DDCE1E
:1041400088E098E0BCCE88E098E0E9CE99249A9483
:10415000692D8C2F0E94DF18CF3F09F050CF88E1E6
:1041600090E08301005111095C01A40CB51CEC0125
:10417000C854D44F630148E0C40ED11CB801C50136
:104180000E94AC0E88830F5F1F4F69960C151D05AA
:10419000A9F72FEF921239CF8FE392E027E130E0B9
:1041A00044C0CFEF15CF20914401309145018217D3
:1041B000930708F457C03093A6022093A5029701F5
:1041C00040E09BCE8F77809343018301005111091A
:1041D000430148E0840E911C28EBC22E2BE0D22E26
:1041E000C2018854944F5C01E601512C7501EC1812
:1041F000FD08F8EBEF1AFBE0FF0AB801C7018C0FCE
:104200009D1F0E94AC0E8993539499E15912F5CFEA
:104210000F5F1F4FE9E1CE0ED11C0815190521F7DC
:10422000F6CE80E090E020E030E0730150E1E51A46
:10423000F108E20EF31E8C010854144FD12CE20158
:10424000C85BDB40C81BD90BB701CE01800F911FA3
:104250000E94AC0EF80181938F01D394F9E1DF1233
:10426000F3CFD5CE970140E048CE2F7088E02C0FD9
:10427000281B27FF08CF283F08F44FC0332727FD0E
:10428000309505CF2F7088E02C0F281B27FF3CCFDF
:10429000283F08F445C0332727FD309539CF88EFF4
:1042A00098EFD9CE88EF98EF15CF80E090E059CF06
:1042B00020914401309145018217930720F03093FB
:1042C000A6022093A5022091A7023091A80215CE44
:1042D00020914601309147018217930798F030935F
:1042E000A8022093A7023901769467947694679484
:1042F00076946794277033E1321BDFCE912C78CE11
:10430000C0E066CE3C017694679476946794769488
:104310006794877033E1381BD0CE28EF3FEFB7CEDC
:1043200028EF3FEFF5CE80914F018F5F833018F07B
:1043300010924F01089580934F01089583E090916A
:104340004F01891B833009F0089580E008958F9212
:104350009F92AF92BF92CF92DF92EF92FF920F9314
:104360001F93CF93DF931F92CDB7DEB74C018B0124
:10437000C42E6F5F7F4F29830E94720FB82E298150
:10438000C11018C0AB2CB1100FC082E00F90DF91AC
:10439000CF911F910F91FF90EF90DF90CF90BF9042
:1043A000AF909F908F900895AA20D9F0882329F18B
:1043B00080E0ECCF2695EE24E394F12CE21AF1088C
:1043C000E00EF11ED12CB701C4018C199D090E9489
:1043D000720FA82EB701C601880D991D0E94720F99
:1043E000D2CF882391F2B801635F7F4FC4010E944E
:1043F000720F882351F282E1C9CFB801635F7F4F0A
:10440000C4010E94720F882309F4BFCF82E2BECF9D
:104410002F923F924F925F926F927F928F929F92D4
:10442000AF92BF92CF92DF92EF92FF920F931F93C2
:10443000CF93DF93CDB7DEB72F970FB6F894DEBFDB
:104440000FBECDBF9B838A83FC0100811181228135
:1044500033813F872E8784809580C680B780F28421
:1044600031E0391508F0AAC1292C292D482D6E8577
:104470007F85C8010E94A72181116EC18F2D8D708B
:10448000982F9E7FD92E8A7029F480914F0188231E
:1044900009F49FC1822D8695282F30E03B872A871B
:1044A00019821D861C86A12C712C312CC10180958E
:1044B00090959F838E83E82DF0E0FD83EC83E0955B
:1044C000F095F987E8874C805D80FFEF4F1A5F0A0F
:1044D00078016A2C0D2DDB2CC11064C0DD2009F49D
:1044E000A2C01D140CF461C0102F1D7FAE80BF80D0
:1044F0008E859F85A80EB91EB501C701EC81FD818F
:104500008E1B9F0B0E94720F882309F4F8C0811044
:10451000EDC02E853F85215031093F872E87D394EA
:1045200006FDC6C06A94012F0F7B1C140CF457C003
:10453000CC20A1F2A884B984AE0CBF1C6E857F8507
:1045400062197309C5010E94720F882309F464C0BF
:1045500091101CC111FFF0C0570191E0A91AB108D8
:104560006E857F8561507109C5010E94720F882395
:1045700009F452C06E857F856F5F7F4FC5010E9431
:10458000720F6E857F85882309F42DC16E5F7F4F82
:10459000C5010E94720F882309F43CC1012F0D7BD5
:1045A0007501D7C01D140CF078C0292D482D6E85DB
:1045B0007F85C7010E94A721811173C0102F1D7F25
:1045C0002E853F852F5F3F4F3F872E87DA9406FD6C
:1045D0006FC06394012F0F7B1C140CF0A9CF520104
:1045E000AE0CBF1C6E857F8562197309C5010E94E0
:1045F000720F882389F091106DC011FF5BC05701C5
:104600009FEFA91AB90A6E857F8561507109C501AE
:104610000E94720F811179C000683981316039833D
:10462000C12CD1105ECFA62CD02E87018D2D8D7B75
:10463000D82E292D482D6E857F85C7010E94A72180
:104640008D29EA81FB811086118687FDABC03C85F0
:10465000730EEA81FB817682A782118300832E8507
:104660003F853383228382872F960FB6F894DEBF6F
:104670000FBECDBFDF91CF911F910F91FF90EF90B3
:10468000DF90CF90BF90AF909F908F907F906F9072
:104690005F904F903F902F900895D11025CF102F0D
:1046A00099CF398132603983102F1268D12C92CF83
:1046B000126090CF57018FEFA81AB80A6E857F85D8
:1046C000C5010E94720F882309F4A6CF7501CA9410
:1046D000739402CF6E857F858A859B85681B790BD5
:1046E000C5010E94720F811188CF96CFB5018C81D0
:1046F0009D818E0D9F1D0E94720F81110ACF10683F
:10470000398132603983D12C65CF6E857F856F5FAB
:104710007F4FC5010E94720F6E857F85882301F14E
:104720006E5F7F4FC5010E94720F882309F449C054
:10473000012F0D7B7501CBCF570181E0A81AB1087D
:104740006E857F85C5010E94720F882309F464CFAE
:104750007501C3947A94C0CE8F2D8F70826090CEF5
:10476000C5010E94720F8111B1CFDA9400643D85BA
:10477000311135C0CA9412FF03C03C853F5F3C87AE
:10478000C1102DC0750131E03D87A8CE6E857F85B3
:104790008A859B85681B790BC5010E94720F811168
:1047A000D9CE3ACF398130FD10C0398131FF4FCF9A
:1047B000EA81FB8197819195918749CF92E0292EDB
:1047C00054CE0064D394750182CF968191959087E1
:1047D000ECCFEFE1EB150CF45DCEB3945BCE75013D
:1047E00031E03D8774CFC5010E94720F8111B0CFB7
:1047F000DA9400643D85311109C0C39412FF03C0EF
:104800003C8531503C87CC2009F4BCCF750131E0A8
:104810003D879FCF0064D39475019BCF0F931F9367
:10482000CF93DF93182F809159018F5F837080930E
:10483000590180915501882309F4A8C081508093C3
:104840005501012F0470D12FD270C0E09091510119
:10485000002309F499C09460DD2309F491C09260AB
:1048600090935101812F807114FD81C09F7B9093A3
:10487000510120915001263011F010925A01D0912F
:10488000B302D7FDD1954091B70241FF46C015FF55
:10489000177F882339F096FD05C08091500185303F
:1048A00009F474C216FDB8C017FD39C214FFC3C0A5
:1048B00096FDC1C0DD2309F47AC22091500186E043
:1048C000A0E090FDC195253009F4B0C0233009F473
:1048D000ADC03091B30237FD40C23C170CF4C32F7A
:1048E000332309F43AC230915401332309F4FEC151
:1048F0003150309354013DEF380F323008F4FEC18F
:10490000811104C081E0223009F080E0522F93FF32
:1049100016C090915301852F1FC016FF73C090FFE2
:104920009AC017FD76C081E015FD92C0A0E0C0E0FE
:104930008111C1955091500187E093FDEACF851711
:1049400041F3863009F4F3C11092520110925301E1
:1049500098609093510190E0082F10E00830110505
:1049600008F0F4C0085C1F4FF8010C940638209141
:104970005A01283008F083CF2F5F20935A017FCF50
:104980009D7F909351016ECF9B7F66CF10FF59CFD3
:104990008091AB02883108F454CF88518093AB02E8
:1049A00087E080935501C091B3022091B4028091B9
:1049B000510180FFD7C1C550012F047012FD245052
:1049C000D12FD27011FD2E5F809158016091AF02FE
:1049D0007091B002680F711D87FD7A958091570123
:1049E000E091AD02F091AE024C2FDF01A80FB11D96
:1049F00087FDBA95CD010E94E02A60E481E00E9423
:104A00006A3224CF892F817017FF8ECF882309F453
:104A10008BCFC1E0A1E08ECF90FD46CF2091500119
:104A200084E0A2E0C0E0253009F050CF309154017D
:104A300031115ECF60CF13FF14C08091AA02209184
:104A40005001803108F490C185E0A1E0C4E039CF85
:104A5000A1E0C4E06DCF5091500187E0A1E0CFEF1D
:104A60006CCF15FF85C12091500183E0A1E0C1E02A
:104A700028CF2091AA02222319F021502093AA02C4
:104A800020E4290F20935301291708F064C0909166
:104A90005201933008F05FC09F5F909352019330B2
:104AA00009F059C020915A0130E02D5F3F4F6D2F22
:104AB00070E06D5F7F4F7695679576956795260FC9
:104AC000371F36952795522F51955093B4029091E8
:104AD000AA02903108F0ACC15F3F0CF4BAC1109249
:104AE000AA0290915101D23008F4A9C1977F906435
:104AF0009093510110E0D1E030C02091AA0222230E
:104B000019F021502093AA02292F30E2D39F200DC3
:104B10001124209353012917C8F4909152019F5FEB
:104B200090935201963090F0109252010FC0292FAD
:104B3000F0E4DF9F200D112420935301291730F456
:104B4000909152019F5F9370909352019091510107
:104B5000977F9093510110E0D0E080935001AA23F9
:104B600061F090915901911108C09091B3029C1786
:104B70000CF0CEC09F5F9093B302407309F098C0D1
:104B80009091B302DD2309F49AC024E02093B70288
:104B9000910F9093B3026DEA72E080680E94A30FB8
:104BA0008091510185FF03C080E18093B2028DEABC
:104BB00092E00E9408228091B302811B8093B3028D
:104BC000DD2309F480C09091B40297FD7CC010925F
:104BD000500190915101292F2F7D20935101811176
:104BE00006C08091B70290FF5DC084FD5DC09091CA
:104BF000AA028091AC02492F50E0282F2C7060E16E
:104C0000269F900111242F634217530718F49F5FCA
:104C10009093AA024091AB02242F30E0807390E081
:104C2000880F991F880F991F8F632817390718F469
:104C30004F5F4093AB02DF91CF911F910F91089589
:104C4000851719F02FEF209354012EE1290F20939F
:104C50005301291708F07FCF909152019F5F917007
:104C60009093520173CF911169C01092520110E0DC
:104C7000905F90935301D0E070CF9091AA02992356
:104C800019F091509093AA029091B30291115ECFC6
:104C90002091510120FF76C01C160CF075C091E0E8
:104CA000922756CF85FFA3CF2062209351019FCF3B
:104CB0009091510190FF18C09EEFD11166CF26E070
:104CC0002093B70265CF3091500190915101292F67
:104CD0002F7D209351014AEF430F423008F487CFD4
:104CE000343009F07CCF83CF92E04CCF222369F09F
:104CF000213009F000CE82E0522F09CE3FEF320F73
:104D0000323008F4FFCD522F02CE81E0522FFFCD7A
:104D1000C9170CF032CF91509093B3022ECF90FF71
:104D2000C5CD20915001C0E084E0A2E0CCCD55304B
:104D300009F00ACE21E02093520108CE903409F404
:104D400043C0903859F1903C09F44FC0905F909364
:104D50005301992309F4FACEFECEC3170CF0C3CD4C
:104D6000C32FC1CDCB5F28CE85E0A1E0C3E0A9CDA4
:104D7000D33070F491FF31C02091500182E0A1E066
:104D8000C0E09FCDC7FD8BCF922FE2CE18628ACDB7
:104D90002091500185E0A1E0C0E093CD22E0209376
:104DA00052012091510120FD3AC01DEF61CF0E94B8
:104DB0009E219091510120915001823091F180E02B
:104DC000A0E04091B7027DCD21E0209352012091D7
:104DD000510120FF17C012E04BCFDD23A9F0209135
:104DE000500183E0A1E0C0E06CCD23E020935201AC
:104DF0003091510130FD1AC01EEF21E0232720938E
:104E0000510136CF1EEF34CF809150012FEF280F84
:104E10002230D8F0282F80E0A1E0C0E052CD13E08E
:104E200027CF86E0A0E04091B7024BCD12E0E5CF5E
:104E3000903208F454CE90529093AA0252CE90FF32
:104E40000DC02EEF2093B30251CE282FA1E0C0E079
:104E500038CD91E0921B9093B40241CE22E0209392
:104E6000B30244CE0F931F93CF93DF9380915001F1
:104E700060915201660F70915101072F047072FD0D
:104E800012C0C8EE71FDC0E2D091B302833009F4C4
:104E900077C0853009F474C090E08830910528F01F
:104EA00060E010EE0CC0C8ECEDCF805C9F4FFC01C1
:104EB0000C9406386CE3C8310CF4C8E110EE75FDB3
:104EC0006EE301116160862F90E0880F991FFC014D
:104ED000F7522491209357013196849181958093C4
:104EE000580170FD46C01D160CF07EC0D13009F48B
:104EF000BDC0D23009F47BC0D33009F4B4C018E788
:104F000041ED80915601882389F0815080935601AC
:104F100020E48DEA92E00E94B40F8091510184FD5B
:104F20000EC0DF91CF911F910F91089520E18DEA7E
:104F300092E00E94B40F8091510184FFF2CF609102
:104F4000AF027091B0026C5571096C0F711DC7FDF5
:104F50007A958091AD029091AE0280569109810FB1
:104F6000911D17FD9A95DF91CF911F910F910C9490
:104F7000FA1E219520935701D7FD07C040EDC1CF00
:104F8000D1118ACFD0E068E099CFDF3F09F460C04B
:104F9000DE3F09F460C0DD3F09F460C018E840ED71
:104FA000B0CF2D2F27FD21956091B402462F5527B4
:104FB00041950CF45095CA0143305105DCF457FD7E
:104FC0001CC0655E660F10EE7ACF645F10EE77CF7F
:104FD000665D10EE74CF645E10EE71CF6C5E10E013
:104FE0006ECF605F10EE6BCF119541ED8ACF10E56B
:104FF00041ED87CF60E310EE62CF30E02D5F3F4F91
:10500000A9015695479556954795542F550F540F1E
:10501000452F50E0519541955109481759079CF08B
:1050200036952795322F330F320FE32FFF27E19567
:105030000CF4F095E817F9070CF03CCFC7FD06C05B
:105040006AE310EE3CCF68E310EE39CFC0E0F8CF52
:1050500010EC40ED56CF10EB40ED53CF1CE940ED86
:1050600050CF685F2BCF14E641ED4BCF10E441EDFC
:1050700048CF8091550181110AC08091560181115C
:1050800006C081E090915001953008F4089580E0C9
:105090000895811106C0809151018F7E8093510146
:1050A000089580915101806180935101089583FF9B
:1050B0001CC09091AC02792F737087FD07C186FDEB
:1050C000A4C0633008F00FC1262F2295220F220FB3
:1050D000207C2F63762F9C7F972B9093AC0290912E
:1050E000A902291710F42093A90284FF20C070910F
:1050F000AC02972F96959695937087FDF0C086FD2C
:1051000096C0633008F0F3C0262F220F220F962F8F
:105110009295990F990F907C9F63737F722B709378
:10512000AC022091AA02921710F49093AA0285FF74
:105130001FC07091AC02972F9295937087FDC2C0EB
:1051400086FDA3C0633008F0D6C0262F2295207FAD
:10515000962F9295990F990F907C9F637F7C722B6D
:105160007093AC022091AB02921710F49093AB02B3
:1051700080FF17C07091A9029091AC0287FDAAC070
:105180009295990F990F907C9F6386FD64C0691773
:1051900008F4962F971718F424E020935601909363
:1051A000A90281FF10C07091AA029091AC0287FD04
:1051B00084C09295907F9F6386FD5AC0691708F45A
:1051C000962F9093AA0282FF19C05091AB02409192
:1051D000AC0287FD6DC0440F440F4F6386FF0FC0C4
:1051E000842F90E0851B9109262F30E0281739077E
:1051F00014F4462F450F4093AB02089508956417A9
:10520000D0F7462F4093AB02089523E030E0271BF0
:105210003109462F50E0421753070CF064C0760F57
:10522000272F2295220F220F207C2F6354CF23E0BB
:1052300030E0291B3109462F50E0421753070CF08C
:1052400056C0960F292F220F220F9295990F990F72
:10525000907C9F6362CF292F30E0271B3109462FB6
:1052600050E0421753070CF095CF962F970F92CF2F
:10527000292F30E0271B3109462F50E042175307F2
:105280000CF09FCF962F970F9CCF23E030E0291B87
:105290003109462F50E0421753076CF5960F292F1E
:1052A0002295207F9295990F990F907C9F6356CFFE
:1052B000651728F5452F461B9ECF671728F5972FB2
:1052C000961B7FCF691728F5961BE9CF6717F0F477
:1052D000761BA6CF671700F5972F961B5BCF691734
:1052E00080F4961BAFCF93609093AC02FECE7C60AF
:1052F0007093AC021CCF70637093AC0239CF40E066
:105300007ACF9FE320E009CF90E05BCF2FE370E0FE
:10531000E2CE9FE320E022CF90E03CCF9093AE021C
:105320008093AD027093B0026093AF021092B3020B
:105330001092B4021092B7022FEF209354011092F2
:1053400059011092500110925101109256014111D1
:1053500001C0089520E1209351016C5571098056D8
:1053600091090C94D81E0E940D100E94D72A0C940B
:105370009C2CFF920F931F93CF93DF93CDB7DEB793
:105380002F970FB6F894DEBF0FBECDBF0E94152B2E
:105390000E94C92C0E944F1110E086E0F82E03C035
:1053A0001F5F1C3041F1BE016F5F7F4F812F0E9454
:1053B000C7108111F5CF0C850F73BE016F5F7F4F52
:1053C000802F0E94A30FFB86CE0101960E94082227
:1053D0000230C1F118F5002381F1013041F5CE0111
:1053E00001960E941B2E811112C08F850E94F01021
:1053F0001F5F1C30C1F62F960FB6F894DEBF0FBEAC
:10540000CDBFDF91CF911F910F91FF900895BE0105
:105410006F5F7F4F812F0E941111C2CF0330B9F00F
:10542000043029F4CE0101960E940A31DCCF602FAE
:10543000CE0101960E94F031D6CFCE0101960E9496
:105440004532D1CFCE0101960E94842FCCCFCE0120
:1054500001960E942830C7CF1F93CF93DF93CDB71B
:10546000DEB72F970FB6F894DEBF0FBECDBF0E94F8
:105470008D2D10E00BC06623B9F1613059F5CE01D6
:1054800001960E942A2F1F5F1C30C1F0BE016F5F82
:105490007F4F812F0E94C7108111F5CF6C856F73EC
:1054A0006230E9F040F3633021F1643099F4CE01C9
:1054B00001960E94B4311F5F1C3041F70E94012CFD
:1054C0002F960FB6F894DEBF0FBECDBFDF91CF9100
:1054D0001F910895CE0101960E944032D4CFCE0193
:1054E00001960E94DB2FCFCFCE0101960E9465323C
:1054F000CACFCE0101960E94E130C5CFCF93DF9392
:10550000EC01FC01389624913197449131976491D4
:10551000329784913196349190E0932B0E94BA1E79
:10552000FE013296649131969491FE0184913196F8
:10553000249170E0792B90E041E0922B0E948E291B
:10554000FE013996649181E40E945728FE013A9643
:10555000E491E0932A022B96D093E801C093E701EF
:10556000DF91CF910C94B329FF920F931F93CF93A8
:10557000DF930091E7011091E80180E0F12CF80140
:10558000C4913196E491D0E0DE2B0E5F1F4FAE0147
:10559000506C6D2F60746F290E942D10F394D7FF0B
:1055A000EECFDF91CF911F910F91FF900895E8EB1F
:1055B000F2E01082369683E0E030F807D1F70895E4
:1055C000A8EBB2E0E0E0F0E03C91332331F031961B
:1055D0001696EC30F105C1F70895DF01AA0FBB1F45
:1055E000AE0FBF1FAA0FBB1FFD01E854FD4F3FE3E5
:1055F000308341832283AB01BC01CD0185549D4F93
:105600000C94130F90E0FC01EE0FFF1FE80FF91F41
:10561000EE0FFF1FE854FD4F8081681720F4861BB2
:10562000806C80830895108208957F928F929F925C
:10563000AF92BF92CF92DF92EF92FF920F931F93A0
:10564000CF93DF93CDB7DEB72B970FB6F894DEBFBD
:105650000FBECDBF8091E9018F5F8093E90178EBA8
:10566000E72E72E0F72EE9EBCE2EE2E0DE2E0AEB1B
:1056700012E074C090831D821E82F60180818F83A8
:10568000F80181915F0188871B86AE014D5F5F4FF6
:10569000BE016F5F7F4FCF010E942B0FCE0101969D
:1056A0000E9408224B815C8169817A81C5010E9438
:1056B000130F898587FD7BC0882309F484C08595F5
:1056C00085958F83282F8A8587FD66C0882309F4F6
:1056D0007CC08595859588879091E901392F3F7029
:1056E00029F03B8531FF07C0937029F412160CF0A6
:1056F0006EC021502F83F6012083F8018083A9809A
:10570000BA80B694A794B694A794B694A7948B80C5
:105710009C80969487949694879496948794B401E9
:10572000C5010E94AC0E782EB4016F5F7F4FC5019A
:105730000E94AC0E90EB970D9230F8F080558230BD
:10574000E0F0F6E0EF0EF11C86E0C80ED11C0A5F17
:105750001F4FE3E002301E0709F43FC0F7018081CC
:10576000982F9F7371F39FEF980F292F207C09F4D6
:1057700081CF8154F70180837ECFB401C5010E949F
:10578000640E0E94F41E8AE090E00E94281660E4F5
:1057900081E00E946A32D5CF992781950CF49095CB
:1057A00095958795959587958195888795CF992724
:1057B00081950CF49095959587959595879581950C
:1057C0008F83282F80CF2F817ECF888585CF22237E
:1057D00009F491CF2F5F2F838ECF2B960FB6F894BD
:1057E000DEBF0FBECDBFDF91CF911F910F91FF9014
:1057F000EF90DF90CF90BF90AF909F908F907F9071
:105800000895EF92FF920F931F93CF93DF93CDB73D
:10581000DEB72B970FB6F894DEBF0FBECDBF0BEBF4
:1058200012E007C00A5F1F4F83E00330180709F436
:1058300046C0F8013397F0808F2D8F73E82E91F3D7
:10584000319680818F83319680818887AE014D5F4C
:105850005F4FBE016F5F7F4FC8010E942B0F8F818A
:1058600087FD3AC040E5588557FD18C06F81862FE7
:10587000992787FD9095252F332727FD3095F9012E
:105880003296E817F90754F02F5F3F4F2817390772
:105890003CF58EE18E1560F56AEF01C066EFF1FA16
:1058A000FF24F0F86F2920E0CE0101960E94B40F8A
:1058B0000A5F1F4F83E00330180709F0BACF2B9619
:1058C0000FB6F894DEBF0FBECDBFDF91CF911F9111
:1058D0000F91FF90EF90089581958F8341E5C3CF9D
:1058E00055958EE1561734F48E1570F46EEFD7CFC0
:1058F00068EFD5CF8E1550F48F2D847090E096957B
:105900008795682F606FCBCF6CEFC9CF64EFC7CF9F
:105910000F93403178F0242F247030E0369527958E
:10592000206F46954170422B00E020E50E94C00F99
:105930000F91089524EFF5CFEAEEF1E0108236964C
:1059400082E0EA31F807D1F708950F93AAEEB1E0AB
:10595000E0E0F0E03C91332339F031961696E830E0
:10596000F105C1F70F910895DF01AA0FBB1FAE0F1C
:10597000BF1FAA0FBB1FFD01E651FE4F00834183ED
:105980002283AB01BC01CD0183519E4F0F910C943A
:10599000130F5F926F927F928F929F92AF92BF92FE
:1059A000CF92DF92EF92FF920F931F93CF93DF93EB
:1059B000CDB7DEB72B970FB6F894DEBF0FBECDBFC5
:1059C000A090B1028090B20280911A028F5F809302
:1059D0001A02AAEEEA2EA1E0FA2EBBEECB2EB1E01F
:1059E000DB2E0CEE11E0B12C912C0DC0F6E0EF0E89
:1059F000F11C86E0C80ED11C0A5F1F4FE2E00C319B
:105A00001E0709F458C0F7015080552079F31D8214
:105A10001E82F60180818F83F80181913F01888782
:105A20001B86AE014D5F5F4FBE016F5F7F4FCF01A1
:105A30000E942B0FCE0101960E9408224B815C81AF
:105A400069817A81C3010E94130F89819A81209113
:105A5000AD023091AE02A501480F591F42175307FE
:105A600030F4852D8E7F8230E1F18F8140C02A0D88
:105A70003B1D28173907A8F32B813C818091AF0289
:105A80009091B002A401420F531F4817590748F3E1
:105A90008217930730F3852D8E7F823031F70E9475
:105AA0004812682F61706E5F81E80E945728F701E5
:105AB00010828F811CC02B960FB6F894DEBF0FBEEC
:105AC000CDBFDF91CF911F910F91FF90EF90DF90AD
:105AD000CF90BF90AF909F908F907F906F905F908E
